:020000040000FA
:100000002808002085010000291900008F01000048
:1000100000000000000000000000000000000000E0
:100020000000000000000000000000009701000038
:1000300000000000000000009B010000F10D000026
:100040009F01000005180000191800002D1800007D
:1000500041180000A901000055180000F907000030
:1000600049080000B1010000D1180000B5010000EE
:10007000B7010000B9010000BB010000BD01000094
:10008000FD130000C1010000C3010000C501000014
:10009000C701000009130000CB010000CD010000E2
:1000A000CF010000D1010000D3010000D501000004
:1000B000D7010000D9010000DB010000191A00007F
:1000C000EFFFEAFF00F002F800F030F80CA030C8B3
:1000D000083824182D18A246671EAB4654465D46C4
:1000E000AC4201D100F022F87E460F3E0FCCB6465E
:1000F0000126334200D0FB1AA246AB4633431847D1
:10010000801A0000A01A0000002300240025002609
:10011000103A01D378C1FBD8520700D330C100D5C3
:100120000B6070471FB51FBD10B510BD00F05BF927
:100130001146FFF7F7FF01F093FB00F073F903B4EA
:10014000FFF7F2FF03BC01F0B9F8000070B50546F7
:100150000C46164602E00FCC0FC5103E102EFAD208
:10016000082E02D303CC03C5083E042E07D301CCCE
:1001700001C5361F03E021782970641C6D1C761EB2
:10018000F9D270BD1948804719480047FEE7FEE7DD
:10019000FEE7FEE7FEE7FEE7FEE7FEE7FEE7FEE737
:1001A000FEE7FEE7FEE7FEE7FEE7FEE7FEE7FEE727
:1001B000FEE7FEE7FEE7FEE7FEE7FEE7FEE7FEE717
:1001C000FEE7FEE7FEE7FEE7FEE7FEE7FEE7FEE707
:1001D000FEE7FEE7FEE7FEE7FEE7FEE7FEE70000DC
:1001E00004480549054A064B70470000290E0000E7
:1001F000C500000028030020280800202804002053
:1002000028040020F8B5042A2CD3830712D00B78D9
:10021000491C0370401C521E83070BD00B78491CED
:100220000370401C521E830704D00B78491C0370D6
:10023000401C521E8B079B0F05D0C91ADF002023DC
:10024000DE1B08C90AE0FFF781FFF8BD1D4608C99B
:10025000FD401C46B4402C4310C0121F042AF5D2A6
:10026000F308C91A521EF0D40B78491C0370401CC5
:10027000521EEAD40B78491C0370401C012AE4D4B6
:1002800009780170F8BD002203098B422CD3030AC0
:100290008B4211D300239C464EE003460B433CD4D3
:1002A000002243088B4231D303098B421CD3030A3B
:1002B0008B4201D394463FE0C3098B4201D3CB016B
:1002C000C01A524183098B4201D38B01C01A52419B
:1002D00043098B4201D34B01C01A524103098B429F
:1002E00001D30B01C01A5241C3088B4201D3CB008A
:1002F000C01A524183088B4201D38B00C01A52416D
:1003000043088B4201D34B00C01A5241411A00D21C
:1003100001465241104670475DE0CA0F00D0494285
:10032000031000D34042534000229C4603098B42F5
:100330002DD3030A8B4212D3FC22890112BA030A7D
:100340008B420CD3890192118B4208D389019211FF
:100350008B4204D389013AD0921100E08909C30984
:100360008B4201D3CB01C01A524183098B4201D386
:100370008B01C01A524143098B4201D34B01C01A71
:10038000524103098B4201D30B01C01A5241C308E9
:100390008B4201D3CB00C01A524183088B4201D358
:1003A0008B00C01A5241D9D243088B4201D34B0073
:1003B000C01A5241411A00D20146634652415B10B5
:1003C000104601D34042002B00D549427047634696
:1003D0005B1000D3404201B50020C046C04602BDBC
:1003E000704770477047754600F024F8AE46050028
:1003F00069465346C008C000854618B020B5FFF7CF
:10040000EFFE60BC00274908B6460026C0C5C0C53F
:10041000C0C5C0C5C0C5C0C5C0C5C0C5403D4900F8
:100420008D46704710B50446C046C0462046FFF7CB
:1004300086FE10BD00487047C402002070B58C18BD
:100440000578401C6B075B0F01D10378401C2A1113
:1004500006D10278401C03E00678401C0E70491C4F
:100460005B1EF9D12B0705D40023521E0DD40B704F
:10047000491CFAE70378401CCB1A921C03E01D7854
:100480000D70491C5B1C521EF9D5A142D8D3002027
:1004900070BD10B502460B460021002000BF02E0EF
:1004A000545C6040491C9942FADB10BD00B5C02283
:1004B0009178F8221140144A1278114313480A46E1
:1004C000E03A130000F0A4FE0E0A0E12161A1E1EC9
:1004D0001E080C1014181C1E0D4813E00D4811E0E6
:1004E0000D480FE00D480DE00D480BE00D4809E008
:1004F0000D4807E00D4805E00D4803E00D4801E018
:100500000D4800BF00BF00BD201C024040420F004C
:100510000090D003006CDC020048E80100366E0158
:100520000024F400001BB70000127A00808D5B00ED
:1005300000093D00C0C62D0080841E001CB54B2163
:10054000C9011F48006800F0E1FC01211D4800F0CE
:1005500081FD00BF1C481D4908600020088188807B
:100560000520C88000BF0846007B40084000087393
:100570000846007B02218843144908730846007B23
:10058000042188431149087300BF11480863002102
:100590000E48018781862021C18600BF00200B49BB
:1005A000C8650021094860300173002009490A220A
:1005B000034600910190084800F034FA1CBD000089
:1005C0008401002014000020F80100208801002090
:1005D00034020020DD050000580200207CB50446EE
:1005E0000D461EE000BF6148016B3422825E895CCB
:1005F000C26D3C30815400BF3C38808E401C01B23B
:100600005A48818602463621515E3420105EFFF73B
:1006100044FE5648818600BF00BFC06D401C534950
:10062000C8655248C06D202806DA50483421415E22
:100630003822825E9142D5D14C48007B4007C00FE2
:10064000002806D1494A5C3211462039484800F05A
:1006500095F84648007BC007C00F00287CD143486E
:10066000007B4007C00F002810D04048007B0421C9
:1006700088433E4908730846007B40084000401C00
:1006800008730846603000F089FB65E03748007B5E
:100690008007C00F002842D034486030007B401CE7
:1006A00041B2324860300173007B0A2809D02F48DC
:1006B0006030007B142804D02C486030007B1E285A
:1006C0004AD12A48007B40084000401C2749087353
:1006D0000B460A680421595E0C235943501800F058
:1006E0005DFB224860300C2141561E2934DB00217D
:1006F00001736038007B022188431C49087300BFE6
:1007000008468088401C00B288800A460621515E57
:100710000420105EFFF7C1FD144881801CE01349DE
:100720000420085E08228A5E904215D00846007BAD
:1007300040084000401C08730846007B02218843A3
:10074000801C0A4908730B460A680421595E0C2371
:100750005943501800F022FB00200649642203464A
:1007600000910190044800F05DF97CBD88010020F3
:10077000D50C0000DD05000058020020F7B582B05E
:100780000E46154600270020019000240BE02A6841
:10079000111B3019029A904701900198002800DC43
:1007A00004E0019824182868A042F0DC00BF002C67
:1007B0000BDD2868001B2860002703E03819305C37
:1007C000F0557F1C2868B842F8DC05B0F0BD000089
:1007D000014903C970470000080000200548407C1B
:1007E000802188430349487400BF00BF00BF00BF99
:1007F00000BF7047201A044010B500200E4908774A
:100800000E48008800280FD00D48006800780D4978
:1008100008720B480068401C0949086007480088B6
:10082000401E0649088003E000F0E2FC01F07AF87F
:1008300000200149087710BD006000401801002029
:1008400014010020401704401CB500201E49087008
:100850001E4840884107490F0091684600781B49AF
:10086000488168460078002803D06846007801F087
:1008700053F81748807A019016480088164909886D
:10088000884218DD684600791449096808701348E1
:100890000068401C114908600F480088401C0E4940
:1008A00008800C4800880988884208D100F072FC52
:1008B00001F037F803E06846007901F034F80020D1
:1008C000014908701CBD0000206000404015044034
:1008D0004017044022010020200100201C010020BC
:1008E00070B504460D462946204600F0BBF970BDA0
:1008F000F8B506460C4617461D462078002804D059
:10090000012807D002281CD111E0002E01D00120BF
:10091000207017E0002E07D002202070002D05D097
:1009200000213846A84701E0002020700AE0002E90
:1009300006D100202070002D02D001213846A847A2
:1009400000E000BF00BFF8BD1CB5002400BF0CE0F4
:1009500062000C4BD21851786200985C012200F0C2
:10096000C9F8002008490855641C0C2CF0DB002055
:1009700006490246034600910190054800F052F8EE
:100980001CBD00003C1B0000B802002095090000BF
:1009900088020020FEB505460E46002400BF1FE079
:1009A000042C1CD0144A125D5200144B9A5C144B58
:1009B000D2181278104B1B5D5B00104FDB195F786B
:1009C0000123BB401A40002A01D1012200E000228D
:1009D00010460C4A11190C4B2246FFF789FF641C84
:1009E0000C2CDDDB002009490A220346009101900E
:1009F000074800F017F8FEBD541B00003C1B000028
:100A000000000440B8020020E10800009509000041
:100A10008802002001460248016000207047000063
:100A200080010020F8B5044615461E46002C02D071
:100A30000698002802D10020C043F8BD184F06E0F8
:100A40003868A04202D12068386003E03F68386807
:100A50000028F5D100BF1348006880474019714154
:100A6000E160A06006982061079860610C4F00BFAC
:100A70003868002802D120603C600DE0E168A06881
:100A80003B689A68DB68801A994103D23868206015
:100A90003C6001E03F68EBE700BF0020CDE70000CD
:100AA0007C0100208001002010B51048046818E087
:100AB0000F4800688047A368E268C01A914105D2D8
:100AC0000B4800688047A168081A10BD07492068D4
:100AD00008602069002803D0204622696169904798
:100AE0002468002CE4D10020EFE700007C01002006
:100AF0008001002070B50C4615460123A340D9B2F1
:100B00002A462B0000F084FB070527435F65788C9D
:100B1000AA00534B1B5C8B43514E3354504B403B0C
:100B20001B5C0B434E4E403E33544D4B103B1B5C05
:100B30008B434B4E103E3354494B303B1B5C8B4335
:100B4000474E303E3354464B203B1B5C8B43444E58
:100B5000203E335482E0424B1B5C8B43404E335467
:100B60003F4B403B1E5C0E431E543D4B103B1E5CF6
:100B70008E431E543A4B303B1B5C0B43384E303E89
:100B80003354374B203B1E5C8E431E5466E0344B7F
:100B90001B5C8B43324E3354314B403B1E5C0E4347
:100BA0001E542F4B103B1B5C8B432D4E103E335479
:100BB0002B4B303B1E5C8E431E54294B203B1E5C4E
:100BC0008E431E544AE0264B1B5C0B43244E335489
:100BD00044E0234B1E5C8E431E54214B403B1B5C68
:100BE0008B431F4E403E33541D4B103B1B5C8B43CD
:100BF0001B4E103E335431E0194B1B5C8B43184E97
:100C00003354174B403B1B5C8B43154E403E3354D3
:100C1000134B103B1B5C0B43114E103E33541DE035
:100C20000F4B1B5C8B430E4E33540D4B403B1E5CF5
:100C30000E431E540A4B103B1B5C8B43084E103E68
:100C40003354074B303B1E5C8E431E54044B203BF9
:100C50001B5C0B43024E203E335400BF00BF70BDEF
:100C6000600004403EB504460D4690216846017080
:100C7000022141708470C570154A0621515E1346E9
:100C800008229A5E501CFFF708FB11480422825E7E
:100C900091421BD000BF02460821515E1289521CAE
:100CA00012B203461A810C22514302461268881878
:100CB0000C226946FFF7A6FA054A0621515E082074
:100CC000105EFFF7EAFA0248018100BF3EBD000056
:100CD0008801002070B504460E462078AA2801D06D
:100CE000012070BD022E01DA0020FAE76078142896
:100CF00001DD0120F5E76578681D864201DA0020F4
:100D0000EFE7281D205CBB2807D1A91C601CFFF75A
:100D1000C0FBE91C615C884201D00120E1E7A078BA
:100D200080282ADA1C48007B8007C00F002831D0B9
:100D30001948024601680420105E0C225043085CEA
:100D4000A178884226D11448007B022188431249A9
:100D5000087300BF08468088401C00B288800A469D
:100D60000621515E0420105EFFF797FA0A48818041
:100D700000BF0021603001730CE00748007B0421B4
:100D80008843001D04490873A1780348603001704E
:100D900000214170681DA4E78801002010B50446B9
:100DA000AA20124948736178104881732178C17371
:100DB0006278A11C1030FFF725FA6078811C0B487F
:100DC0000E30FFF766FB6178C91C084A0D3250549B
:100DD000BB226078001D05490D310A546078411D21
:100DE00002480D3000F04CF910BD000088010020D1
:100DF00007480068401E06490860064802684068C7
:100E00000021521C484103490A60486070470000B5
:100E1000100000200800002000B5FFF747FB014943
:100E2000086000BD8401002000B580201B49487186
:100E30001A201A49203908732B2048733C208873E4
:100E40004D20C873002016494860FFF72FFB154955
:100E500008600020C0431449086014490860144821
:100E600014490860114903221202891848600F4989
:100E7000891888600D498918C8600C49891808616B
:100E80000A498918486109498918886107498918F8
:100E9000C861AC200849487000BD00002004024031
:100EA00000B001408401002080E200E000E100E0A9
:100EB000C0C0C0C000E400E000100240F8B5054624
:100EC0000E466A463146284600F028F90446002CB2
:100ED00016D103200B49888068460078C880684690
:100EE00040784006000C0849088168464078400672
:100EF000000C488103484088032108430149488089
:100F00002046F8BD601504404017044070B5054602
:100F10000E46454800780821084343490870434875
:100F20008088032108434149888001214048017796
:100F30003F4820300170017100203E4908773D494B
:100F400020310870087122203849203908823A4837
:100F5000088367204002394908813948007C102104
:100F60000843374908740720304920394881FF2059
:100F70002330488233484883672040022F49488104
:100F80002A48008901210843284908810846808AA7
:100F90002D49084025498882084640890121084397
:100FA0002249488100BF0620284988702848007BD4
:100FB000042108432649087325482030007B04217A
:100FC000884323492031087321484030007F0421A1
:100FD00088431F49403108771D486030007B042159
:100FE00088431B496031087300BF00BF24201749A4
:100FF0002031C87216482030007B02210843144972
:101000002031087312486030007B02218843104968
:101010006031087300BF31462846FFF74FFF044692
:1010200000F050F8204670BD2004024060150440D6
:1010300000610040006000409780000040170440BD
:101040006004044097400000FEFF00004008044098
:101050000000044010B502460020002901D1812083
:1010600006E00023034C2380034B1980034B1A60D6
:1010700010BD000020010020220100201C010020E2
:1010800010B502460020002901D1812012E00A4B50
:101090001A600A4B1980084B1B681B78084C237296
:1010A000054B1B685B1C044C2360044B1B885B1EB8
:1010B000024C238010BD0000140100201801002004
:1010C0004017044010B51248008901210843104917
:1010D000088108464089012108430D494881084696
:1010E0004088032108430A494880002009490877BD
:1010F000084920310870072000F098F8082000F017
:1011000095F800210448017703482030017010BD94
:10111000601504400060004000610040F7B584B0F5
:1011200016468020039000242BE06000174A115AD5
:101130000498FFF7A8F8019002251EE0691C0198A9
:10114000FFF7A1F841080291114A0299514308465C
:101150000599FFF798F80E49471A381E01DB01463A
:1011600000E04142142906DA3470757000200390C3
:10117000039807B0F0BD681CC5B2802DDEDB601C93
:10118000C4B2102CD1DB0398F3E70000601B000011
:101190001027000010B5144A3621515E3823D35E63
:1011A000581CFFF77AF810483422825E914216D01C
:1011B00000BF0E4801780C483822825E008F401C28
:1011C00003B209480387006B8154074A3621515EF8
:1011D0003820105EFFF761F80348018700BF012146
:1011E0000248FFF737FF10BD8801002014000020DF
:1011F0000348007B40084000014908737047000025
:1012000088010020AC20014948707047001002405E
:1012100030B47446641E2578641CAB4204D3635D0D
:101220005B00E31830BC18471D46F8E7002805DBD3
:10123000C206D20E01219140014A116070470000A0
:1012400080E200E010B5002819DB1A4A03231B02D4
:10125000D21883089B00D2588307DC0EFF23A340DB
:101260009A438B071B0E8407E40EA3401A43114BCD
:10127000032424021B198408A4001A5118E00E4A02
:1012800003071B0F083B9B089B00D2588307DC0E0B
:10129000FF23A3409A438B071B0E8407E40EA34051
:1012A0001A43054B0407240F083CA408A4001A5154
:1012B00010BD000000E100E01CED00E0002803D0BC
:1012C0000449054A116202E00121034A116200BF8C
:1012D000FEE70000AD0B00000080024070B5044640
:1012E000084B0C229A5E08269E5F911B9A89121B5E
:1012F00012B23C235A431046FEF7CFFF193005B215
:10130000284670BD6006500010B5002011490875D0
:101310001148C07B11490968087010480068401CDA
:101320000E4908600C48C0890D49096808800C48BE
:101330000068801C0A4908600A480068401C094986
:1013400008600549C98908B2FFF7C8FF0649088047
:1013500010BD0000406000400050044030000020FC
:1013600034000020380000203C00002070470000BE
:101370000848007C012108430649087400BF06485C
:10138000407CC007C00F0028F9D001200349087035
:1013900070470000201A0440401B04405300002006
:1013A0000848007C012108430649087400BF06482C
:1013B000407CC007C00F0028F9D001200349087005
:1013C00070470000201A0440401B044052000020D7
:1013D0000349097C20221143014A1174704700001F
:1013E000201A044001200149087070475300002072
:1013F00001200149087070475200002010B50020FC
:1014000007490870FFF7EAF90648407C8021084048
:10141000802802D100F008F801E000F0D3F810BDF8
:1014200040600040401B044010B55E48807C402175
:101430000840002807D15C480088002803D001201C
:10144000FFF794FFACE0594800788021084000285D
:1014500044D15448407C0421084000283AD05348E5
:10146000007880210843514908704E48407C08218B
:10147000084000281BD04E48007C08434C490874A3
:101480004948008800280FD04A480068007845493C
:10149000087448480068401C464908604248008873
:1014A000401E414908807BE0FFF77AFF78E0404822
:1014B000007C042108433E4908740846007C08214A
:1014C00088433B4908740846007C2021084338497A
:1014D000087465E00220FFF749FF61E03148407C75
:1014E00008210840002824D02E48407C04210840D0
:1014F000002807D12C480088002803D00220FFF7DD
:1015000035FF4DE02848008800280FD029480068A2
:1015100000782449087427480068401C2549086061
:1015200021480088401E2049088039E0FFF738FF35
:1015300036E0214800882149098888422EDA194876
:10154000007C1F49096808701D480068401C1C4940
:10155000086019480088401C174908800846008820
:1015600016490988884212D11148007C0421884319
:101570000F4908740846007C202108430C49087470
:101580000846007C082108430949087408E0084817
:10159000007C202108430649087401E0FFF7E8FEBB
:1015A00010BD0000401B04405000002040000020FF
:1015B000201A04404C0000204A000020480000206F
:1015C0004400002010B57748407CC007C00F0028B9
:1015D0001FD07548007C10218843734908747348F4
:1015E00000788021084000280FD07048007804213E
:1015F0000840002801D0FFF7FBFE6C48007802216C
:101600000840002801D0FFF7EDFE0120674908706F
:10161000C6E0664800788021084000284CD1614827
:10162000407C10210840002842D05F48007C0843DD
:101630005D49087480205D4908705A48407C082143
:101640000840002821D05848007C084356490874B7
:101650005748008800280FD0564800680078514944
:10166000087454480068401C52490860504800887B
:10167000401E4F49088093E0FFF7BAFE4A48007CBD
:1016800020210843484908748AE04748007C042127
:101690000843454908740846007C082188434249AC
:1016A00008740846007C202108433F49087477E00D
:1016B0008020FFF78DFE73E03A48407C0821084007
:1016C000002830D039480078042108433749087091
:1016D0003448407C04210840002807D13448008861
:1016E000002803D00220FFF773FE59E0304800883D
:1016F00000280FD02F48006800782A4908742D4828
:101700000068401C2B49086029480088401E284971
:10171000088045E0FFF76CFE2348007C2021084349
:10172000214908743CE021480078022108431F4900
:101730000870214800882149098888422ADA194816
:10174000007C1F49096808701D480068401C1C493E
:10175000086019480088401C17490880084600881E
:101760001649098888420ED10F48007C0821084399
:101770000D4908740846007C202108430A49087472
:10178000FFF730FE0CE00848007C202108430649A2
:10179000087405E00448007C2021084302490874CD
:1017A00010BD0000401B0440201A044041000020EE
:1017B000500000204C0000204A000020480000207B
:1017C0004400002002480068401C0149086070473E
:1017D0005400002002480068401C0149086070471E
:1017E0005800002002480068401C0149086070470A
:1017F0005C00002002480068401C014908607047F6
:101800006000002010B5002002490871FFF7DAFFE0
:1018100010BD00000060004010B5002002490872B1
:10182000FFF7D8FF10BD00000060004010B5002099
:1018300002490873FFF7D6FF10BD000000600040AA
:1018400010B5002002490874FFF7D4FF10BD000056
:1018500000600040002001490876704700600040A9
:10186000FFF7DAFA7D21C90012480068FEF70BFD88
:1018700005462C46601E1049884200D90CE0601EC7
:101880000E4948610321081FFFF7DCFC00200B49CB
:1018900088610720086100BF0948FFF7BBF80949C4
:1018A0004868804708494868804701E0FFF7FCF82E
:1018B000FCE7000084010020FFFFFF0000E000E0E3
:1018C000D10700001800002024000020704700000D
:1018D00010B500200C4908720C48008800280FD071
:1018E0000B48006800780B49087409480068401CE0
:1018F0000749086005480088401E0449088001E047
:10190000FFF7E4FF10BD00002060004068000020E9
:10191000640000200013044010B50446FEF70EFEDC
:1019200010BD70477047704710B5FFF76BFC034858
:101930000068401C0149086010BD000078010020CB
:1019400001460820334AD060F120106255205060D3
:10195000AA2090600020C043086000BF2D480068A6
:10196000C007C00F0028F9D02A48006801221043A0
:10197000284A10600020D060704701461020254A98
:10198000D060F120106255205060AA2090600020A5
:10199000C043086000BF1F480068C007C00F002890
:1019A000F9D01C480068012210431A4A1060002038
:1019B000D06010621046006804221040002801D058
:1019C000012070470020FCE770B503461D46F1205A
:1019D000104E3062002416E0AA200E4E7060552092
:1019E000B06010782870521C6D1C00BF0948006858
:1019F000C007C00F0028F9D0064800680126304310
:101A0000044E3060641C8C42E6D30020014E3062EC
:101A100070BD000000000240002047490877704771
:101A2000F7B5FFB089B006460F4600208790012029
:101A300005904002874205D98020879087987FB023
:101A40000CB0F0BD039600240CE00398007886905B
:101A50000398401C03908698FF2801D00020059031
:101A6000601C84B2BC42F0D30598002805D03946EA
:101A700030468A9AFFF7A8FF5BE0750AF119681CE7
:101A80004002814202D90120049001E0002004902C
:101A9000700A40020290F005C00D019004980028E1
:101AA0000FD0002408E00298007806A90855029893
:101AB000401C0290601C84B2012080028442F2DB50
:101AC0000EE0002408E00298007806A90855029864
:101AD000401C0290601C84B2012040028442F2DB70
:101AE00000240AE08A9801780198001906AA115486
:101AF0008A98401C8A90601C84B2BC42F2D304983D
:101B000000280DD06802FFF738FF691C4802FFF774
:101B100034FF680206AA01218902FFF755FF08E099
:101B20006802FFF72AFF680206AA01214902FFF7AF
:101B30004BFF879883E70000606000400D060C03B0
:101B40000C0401040103010201010100020302026D
:101B50000201020004080009010A020B030706053E
:101B60000100020004000800100020004000800076
:101B70000001000200040008001000200040008066
:101B8000A01B000000000020880100003C040000B1
:101B9000B41B000088010020A0060000080100001E
:101BA000021B01A33D050312490902FF1901309AE6
:041BB000FF01011020
:04000005000000C532
:00000001FF
