:020000040000FA
:1000000020090020950100009D2C00009F010000A8
:1000100000000000000000000000000000000000E0
:10002000000000000000000000000000A701000028
:100030000000000000000000AB010000111C0000E7
:10004000AF010000ED2A0000012B0000152B00007D
:10005000292B0000B90100003D2B0000910E00008B
:10006000E10E0000C1010000C3010000C501000055
:10007000C7010000292C00009D2B0000CD010000CD
:10008000E5260000790F0000C90F000019100000DC
:1000900069100000F1250000DB010000DD01000017
:1000A000DF010000E1010000E3010000B9100000E1
:1000B0000911000059110000A91100008D2D000048
:1000C000EFFFEAFF00F002F800F038F80CA030C8AB
:1000D000083824182D18A246671EAB4654465D46C4
:1000E000AC4201D100F02AF87E460F3E0FCCB64656
:1000F0000126334200D0FB1AA246AB4633431847D1
:10010000D02D0000F02D0000002300240025002643
:10011000103A01D378C1FBD8520700D330C100D5C3
:100120000B60704710B5642902D100F089F810BD4A
:10013000002010BD1FB51FBD10B510BD00F0E1FAC5
:100140001146FFF7F7FF02F0FFFC00F0F9FA03B4E5
:10015000FFF7F2FF03BC02F025FA000070B5054678
:100160000C46164602E00FCC0FC5103E102EFAD2F8
:10017000082E02D303CC03C5083E042E07D301CCBE
:1001800001C5361F03E021782970641C6D1C761EA2
:10019000F9D270BD1948804719480047FEE7FEE7CD
:1001A000FEE7FEE7FEE7FEE7FEE7FEE7FEE7FEE727
:1001B000FEE7FEE7FEE7FEE7FEE7FEE7FEE7FEE717
:1001C000FEE7FEE7FEE7FEE7FEE7FEE7FEE7FEE707
:1001D000FEE7FEE7FEE7FEE7FEE7FEE7FEE7FEE7F7
:1001E000FEE7FEE7FEE7FEE7FEE7FEE7FEE70000CC
:1001F00004480549054A064B70470000491C0000A9
:10020000C500000020040020200900202005002057
:10021000200500200FB41CB5084B06AA7B44694694
:100220000090059800F041FA04460020694600F06D
:100230004FFA20461CBC08BC04B01847B1040000AB
:10024000F7B5002575291068009914A611D0C0468D
:10025000C046002802DA404211A608E00099096869
:100260008A0701D50FA602E0490704D50EA601258D
:1002700001E0C046C046009F0024243704E000F09F
:100280002CFA30313955641C0028F8D12B463246FF
:100290002146009800F0ABF9FEBD00000000000010
:1002A0002D0000002B00000020000000F3B50446E4
:1002B000002081B020622046E168884700287AD07B
:1002C000252802D06268A16871E0E1682046002517
:1002D000884706460020E0610746A0612A2E0AD022
:1002E000304602F057F9002827D0B8000019303EF8
:1002F0000090866119E00298BA00121902C8916153
:1003000002902046E1688847012F064617D1E06930
:1003100000281FDA202085431CE000980A2180690C
:10032000484300998019303888612046E168884741
:10033000064602F02FF90028EFD1012F0AD02E2E09
:1003400008D12046E16888470646202005437F1CE7
:10035000022FC3DBA069002803DA4042A06101201C
:100360000543E80701D010208543002E23D03046F6
:100370004138192803D80120C00205432036204601
:1003800025603146029A1546FFF7CCFE00280BD0B7
:10039000012806D0ED1DE808C000083002908AE769
:1003A00009E02D1D029586E762683046A1689047F6
:1003B000206A401C7EE7206AFEBDF8B5042A2CD3D3
:1003C000830712D00B78491C0370401C521E830710
:1003D0000BD00B78491C0370401C521E830704D0BD
:1003E0000B78491C0370401C521E8B079B0F05D0D5
:1003F000C91ADF002023DE1B08C90AE0FFF7AEFEA2
:10040000F8BD1D4608C9FD401C46B4402C4310C031
:10041000121F042AF5D2F308C91A521EF0D40B7821
:10042000491C0370401C521EEAD40B78491C03700F
:10043000401C012AE4D409780170F8BDD2B210B58D
:1004400013029A1813049A1800F00EF810BD01E078
:1004500004C0091F0429FBD28B0701D50280801C30
:10046000C90700D00270704700290BD0C30702D023
:100470000270401C491E022904D3830702D5028062
:10048000801C891EE3E70022EEE70022DFE700225E
:1004900003098B422CD3030A8B4211D300239C46C1
:1004A0004EE003460B433CD4002243088B4231D339
:1004B00003098B421CD3030A8B4201D394463FE0CD
:1004C000C3098B4201D3CB01C01A524183098B422D
:1004D00001D38B01C01A524143098B4201D34B0116
:1004E000C01A524103098B4201D30B01C01A524179
:1004F000C3088B4201D3CB00C01A524183088B4200
:1005000001D38B00C01A524143088B4201D34B00E8
:10051000C01A5241411A00D201465241104670475A
:100520005DE0CA0F00D04942031000D3404253405F
:1005300000229C4603098B422DD3030A8B4212D31F
:10054000FC22890112BA030A8B420CD38901921151
:100550008B4208D3890192118B4204D389013AD08E
:10056000921100E08909C3098B4201D3CB01C01A63
:10057000524183098B4201D38B01C01A5241430976
:100580008B4201D34B01C01A524103098B4201D364
:100590000B01C01A5241C3088B4201D3CB00C01AD1
:1005A000524183088B4201D38B00C01A5241D9D2E9
:1005B00043088B4201D34B00C01A5241411A00D26A
:1005C0000146634652415B10104601D34042002B66
:1005D00000D54942704763465B1000D3404201B5E5
:1005E0000020C046C04602BD704770477047FFB547
:1005F00004460D4681B0243000902168880604D559
:100600001022E0699143216000E00120A84201DD51
:10061000471B00E000270498A1697A191018081AEE
:10062000A0612078C00602D42046C046C0460026FD
:1006300008E003986268A168805D9047206A401CCA
:10064000761C206204988642F3DB2078C0060AD527
:100650002046C046C04606E06268A1683020904748
:10066000206A401C206238467F1E0028F4DC07E028
:1006700000986268A168405D9047206A401C206233
:1006800028466D1E0028F3DC2046C046C046207870
:10069000000602D5022005B0F0BD0120FBE70000F6
:1006A00001694A1C02610878704700B58FB0029159
:1006B0000021059105490193794403911146049065
:1006C0006846FFF7F3FD0FB000BD0000E5FFFFFF38
:1006D0000A681070521C0A60704701468008081AA8
:1006E00002091018020A1018020C1018C008820023
:1006F00012185200891A01E0401C0A390A29FBD25B
:100700007047754600F024F8AE460500694653462A
:10071000C008C000854618B020B5FFF769FD60BC71
:1007200000274908B6460026C0C5C0C5C0C5C0C51B
:10073000C0C5C0C5C0C5C0C5403D49008D46704755
:1007400010B50446C046C0462046FFF700FD10BD68
:1007500000487047C003002070B58C180578401C15
:100760006B075B0F01D10378401C2A1106D1027878
:10077000401C03E00678401C0E70491C5B1EF9D13A
:100780002B0705D40023521E0DD40B70491CFAE729
:100790000378401CCB1A921C03E01D780D70491C95
:1007A0005B1C521EF9D5A142D8D3002070BD10B5F4
:1007B00002460B460021002000BF02E0545C60406E
:1007C000491C9942FADB10BD70B50346002407E0CE
:1007D0001D785B1C0E78491CB54201D0204670BDC7
:1007E0002046641C9042F3DB0020F8E700B5C022ED
:1007F0009178F8221140144A1278114313480A469E
:10080000E03A130001F070FE0E0A0E12161A1E1EB8
:100810001E080C1014181C1E0D4813E00D4811E0A2
:100820000D480FE00D480DE00D480BE00D4809E0C4
:100830000D4807E00D4805E00D4803E00D4801E0D4
:100840000D4800BF00BF00BD201C024040420F0009
:100850000090D003006CDC020048E80100366E0115
:100860000024F400001BB70000127A00808D5B00AA
:1008700000093D00C0C62D0080841E0010B5FF2277
:100880000C210448FFF7DAFD0520000502F02FFADD
:1008900010BD0000680300201CB501F0CDF94B210C
:1008A000C9011F48006801F04BFC01211D4801F0FF
:1008B000EBFC00BF1C481D490860002008818880AF
:1008C0000520C88000BF0846007B40084000087330
:1008D0000846007B02218843144908730846007BC0
:1008E000042188431149087300BF1148086300219F
:1008F0000E48018781862021C18600BF00200B4958
:10090000C8650021094860300173002009490A22A6
:10091000034600910190084800F0EAFD1CBD00006C
:10092000100200201C000020880200201802002075
:10093000C4020020C1090000E80200201CB54B21C0
:10094000C9010E48006801F0B5FA01210C4801F018
:1009500051FB00BF0B480C490860002008818880CB
:100960002020C88000BF00200849052203460091CE
:100970000190074800F0BCFD1CBD000010020020E3
:100980002C0000200C03002000030020C1150000F3
:100990005003002010B501F08DFB0221084600F045
:1009A0004DF9022000F046FA10BD10B501F0D0FC60
:1009B0000221012000F042F9012000F03BFA10BDB5
:1009C0007CB504460D4627E000BF6E48016B34221B
:1009D000825E895CC26D3C30815400BF3C38808EA1
:1009E000401C01B26748818602463621515E3420A0
:1009F000105EFFF756FD6348818600BF00BFC06DE3
:100A0000401C6049C86500205F49604A0346009168
:100A100001905F4800F06CFD5A48C06D202806DA4E
:100A200058483421415E3822825E9142CCD15548EB
:100A3000007B4007C00F002806D1524A5C321146A5
:100A40002039544800F0BCF84E48007BC007C00F66
:100A5000002815D14B48007B4007C00F002810D05C
:100A60004848007B04218843464908730846007BB8
:100A700040084000401C08730846603000F0ACFF9E
:100A800076E04048007B8007C00F002853D03D48E7
:100A90006030007B401C41B23A4860300173007BFB
:100AA0000A2809D037486030007B142804D0354824
:100AB0006030007B1E285BD13248007B400840003C
:100AC000401C304908730B460A680421595E0C2308
:100AD0005943501800F080FF2A4860300C214156DD
:100AE0001E2945DB002101736038007B0221884309
:100AF0002449087300BF08468088401C00B28880E3
:100B00000A460621515E0420105EFFF7CAFC1D480C
:100B1000818000BF01460420085E08228A5E904260
:100B200026D100201849194A03460091019018481F
:100B300000F0DEFC1CE013490420085E08228A5EF7
:100B4000904215D00846007B40084000401C0873C6
:100B50000846007B02218843801C0A4908730B4623
:100B60000A680421595E0C235943501800F034FFE1
:100B7000002009490A22034600910190074800F02D
:100B8000B7FC7CBD18020020F91A000010270000F5
:100B9000A00300208D170000C1090000E80200201A
:100BA00010B50648046805E06068002801D0606858
:100BB00080472468002CF7D110BD00000C020020F3
:100BC000F7B582B00E46154600270020019000249C
:100BD0000BE02A68111B3019029A90470190019886
:100BE000002800DC04E0019824182868A042F0DC0A
:100BF00000BF002C0BDD2868001B2860002703E0E5
:100C00003819305CF0557F1C2868B842F8DC05B014
:100C1000F0BD0000014903C970470000100000202A
:100C20000548407C802188430349487400BF00BFC9
:100C300000BF00BF00BF7047201A044008B5C207BC
:100C4000D20F002A32D000BF2422754B1A71754A88
:100C5000127B02231A43734B1A73724A4032127B7F
:100C600002239A436F4B40331A7300BF01236E4A2D
:100C7000137100226D4B1A716D4A527E5208520058
:100C80006B4B5A761A46127E520852001A761A4652
:100C9000527ECB07DB0F1A43654B5A761A46127EFB
:100CA00002230B405B081A43614B1A760222024072
:100CB000002A34D000BF0722594B5A71594A527842
:100CC00010231A43574B5A70564A40325278102319
:100CD0009A43544B40335A7000BF0123524A137257
:100CE0000022524B1A72524A527E02239A43504BB0
:100CF0005A761A46127E02239A434D4B1A761A46AA
:100D0000527ECB079B0F1A43494B5A761A46127EE6
:100D100002230B405B085B001A43454B1A76042202
:100D20000240002A34D000BF18223D4B9A713D4A40
:100D3000527902231A433B4B5A713A4A4032527954
:100D400002239A43374B40335A7100BF0123364A7E
:100D500013730022354B1A73354A527E04239A438B
:100D6000334B5A761A46127E04239A43304B1A7636
:100D70001A46527ECB075B0F1A432D4B5A761A4602
:100D8000127E02230B405B089B001A43284B1A7605
:100D900008220240002A34D000BF1322204BDA710F
:100DA000204AD27801231A431E4BDA701D4A403282
:100DB000D278520852001B4B4033DA7000BF012337
:100DC000194A13740022194B1A74194A527E0823C7
:100DD0009A43174B5A761A46127E08239A43144BAD
:100DE0001A761A46527ECB071B0F1A43104B5A76BF
:100DF0001A46127E02230B405B08DB001A430C4BA1
:100E00001A760022009205E000BF6A461278521C52
:100E1000D3B200936A461278012AF5D908BD0000C2
:100E20006008044020000440006100400060004071
:100E3000205B0440C107C90F002905D00021124AD8
:100E40001171002211490A7102210140002905D0C7
:100E500000210D4A117200220C490A72042101403E
:100E6000002905D00021084A1173002207490A739E
:100E700008210140002905D00021034A11740022F5
:100E800002490A74704700000060004000610040A1
:100E900010B500200E4908770E48008800280FD0B2
:100EA0000D48006800780D4908720B480068401C26
:100EB0000949086007480088401E0649088003E089
:100EC00001F002FB01F0DAFE00200149087710BDB5
:100ED00000600040600100205C01002040170440D9
:100EE0001CB500201E4908701E4840884107490F64
:100EF0000091684600781B494881684600780028C0
:100F000003D06846007801F0B3FE1748807A01905C
:100F10001648008816490988884218DD6846007915
:100F200014490968087013480068401C114908609A
:100F30000F480088401C0E4908800C48008809882A
:100F4000884208D101F092FA01F097FE03E068466A
:100F5000007901F094FE0020014908701CBD0000DA
:100F60002060004040150440401704406A01002002
:100F7000680100206401002000200E4908710E481D
:100F80000068401C0C4908600C480088C007C00F6E
:100F9000002808D00A48008B401C01210904401891
:100FA0000849086004E00648008B401C05490860B9
:100FB0007047000040600040D4010020A01D0440A4
:100FC000001F0440C401002000200E4908720E4892
:100FD0000068401C0C4908600C484088C007C00FDE
:100FE000002808D00A48408B401C01210904401801
:100FF0000849086004E00648408B401C0549086029
:101000007047000040600040D8010020A01D04404F
:10101000001F0440C801002000200E4908730E483C
:101020000068401C0C4908600C488088C007C00F4D
:10103000002808D00A488088401C01210904401873
:101040000849086004E006488088401C054908609B
:101050007047000040600040DC010020A01D0440FB
:10106000601F0440CC01002000200E4908740E4887
:101070000068401C0C4908600C48C088C007C00FBD
:10108000002808D00A48C088401C012109044018E3
:101090000849086004E00648C088401C054908600B
:1010A0007047000040600040E0010020A01D0440A7
:1010B000601F0440D001002000200E4908730E4834
:1010C0000068401C0C4908600C480088C007C00F2D
:1010D000002808D00A48008B401C01210904401850
:1010E0000849086004E00648008B401C0549086078
:1010F0007047000060600040F4010020A02104401F
:1011000000230440E401002000200E4908740E482A
:101110000068401C0C4908600C484088C007C00F9C
:10112000002808D00A48408B401C012109044018BF
:101130000849086004E00648408B401C05490860E7
:101140007047000060600040F8010020A0210440CA
:1011500000230440E801002000200E4908750E48D5
:101160000068401C0C4908600C488088C007C00F0C
:10117000002808D00A488088401C01210904401832
:101180000849086004E006488088401C054908605A
:101190007047000060600040FC010020A021044076
:1011A00060230440EC01002000200E4908760E4820
:1011B0000068401C0C4908600C48C088C007C00F7C
:1011C000002808D00A48C088401C012109044018A2
:1011D0000849086004E00648C088401C05490860CA
:1011E000704700006060004000020020A021044021
:1011F00060230440F001002070B505460E4600242F
:1012000000BF0BE02819094900228A560849FFF758
:10121000DBFA002801D1012070BD641C03480021C5
:101220004156701AA042EDDA0020F5E76000002078
:101230006803002070B59AB004460D46002D43D1D6
:101240000A2C09DA214842560078401C40B21F4B54
:1012500018701F48845437E00B2C32D100F032FA5A
:101260001CA101A8FEF7D6FF0646314601A800F0F2
:101270009FFB1AA101A8FEF7CDFF0646314601A843
:1012800000F096FB1A48002141561A4800F0F4F984
:1012900019A101A8FEF7BEFF0646314601A800F0DD
:1012A00087FB0A4800214156094800F0E5F9074844
:1012B000002141560648FFF79FFF002801D000F0AB
:1012C00035FC0020014908701AB070BD6100002093
:1012D000740300207665726966793A0070617373F1
:1012E000776F726420726573746F72653A000000E4
:1012F000600000206803002070617373776F726470
:1013000020696E7075743A0010B5002211467D2078
:10131000C00100F0F3FC10BD70B59AB005460E4652
:1013200059480078012842D158480068642825DAD5
:1013300056480068401C5549086008460068642803
:1013400012DB53A101A8FEF765FF0446214601A860
:1013500000F02EFB4C485149514A00230091019066
:10136000504800F0C5F87FE047484C490A22002366
:10137000009101904B4800F0BBF875E04AA101A82C
:10138000FEF748FF0446214601A800F011FB0220A9
:101390003D49087000203D4908603B483F49404AAC
:1013A0000023009101903F4800F0A2F85CE036482D
:1013B0000078022818D13EA101A8FEF72BFF0446B1
:1013C000214601A800F0F4FA03202F4908700020FC
:1013D0002E4908602C4831490022134600910190A3
:1013E000304800F085F83FE02748007803283BD1DB
:1013F000264800686321C943884227DD23480068E6
:10140000401E22490860084600686321C94388429B
:1014100012DC2CA101A8FEF7FDFE0446214601A81E
:1014200000F0C6FA18481D491D4A0023009101909A
:101430001C4800F05DF817E0134818490A22002301
:1014400000910190174800F053F80DE01FA101A88A
:10145000FEF7E0FE0446214601A800F0A9FA0020AC
:1014600009490870094908600848006800F0DEFA78
:1014700000201849184A034600910190174800F0CF
:1014800037F81AB070BD0000700000207400002012
:10149000756E6C6F636B200A00000000191300006A
:1014A000B80B00008803002070617573650A0000A6
:1014B0006C6F636B20736F66742073746172740A4F
:1014C000000000006C6F636B0A00000073746F70A3
:1014D0000A000000F91A000010270000A0030020F5
:1014E0000146024801600020704700000802002009
:1014F000F8B5044615461E46002C02D00698002872
:1015000002D10020C043F8BD184F06E03868A04261
:1015100002D12068386003E03F6838680028F5D1C0
:1015200000BF13480068804740197141E160A06026
:1015300006982061079860610C4F00BF386800284A
:1015400002D120603C600DE0E168A0683B689A68C9
:10155000DB68801A994103D2386820603C6001E062
:101560003F68EBE700BF0020CDE700000402002049
:101570000802002010B51048046818E00F48006801
:101580008047A368E268C01A914105D20B48006801
:101590008047A168081A10BD0749206808602069C3
:1015A000002803D020462269616990472468002CF6
:1015B000E4D10020EFE70000040200200802002030
:1015C0007CB504460D462AE000BF22480068214948
:1015D00004228A5E815C2048204A1268815400BF40
:1015E0001C488088401C00B21A4988800A4606219F
:1015F000515E0420105EFEF754FF1648818000BF44
:1016000000BF16480068401C1449086000201449B7
:10161000144A0346009101901348FFF769FF0F48F1
:101620000068202806DA0B490420085E08228A5E3A
:101630009042C9D1094A08490C48FFF7C1FA002075
:101640000B4905220346009101900A48FFF750FF1D
:101650007CBD0000000300202C030020300000208F
:10166000F91A000010270000A003002099180000BC
:10167000C115000050030020F0B599B004460D4696
:1016800000260BE02278641C0CA16846FEF7C2FD20
:1016900007463946684600F08BF900BF3046761C95
:1016A000A842EFDB06A16846FEF7B4FD07463946BF
:1016B000684600F07DF919B0F0BD000025642000F7
:1016C0000A000000F0B585B06D46052636050027F6
:1016D00000BF02E001CE01C57F1C042FFADB684683
:1016E000447800785A281AD1214600A8023001F027
:1016F000C7FA6A46A11C515C884210D16946E01CB9
:10170000085CA5280BD16846407840B208490870AB
:10171000224600A902310748FEF74FFE06E00621E7
:101720000448FEF7B0FE06200149087005B0F0BD80
:1017300060000020680300200146044800E00068C3
:101740000268002AFBD10160704700000C020020F3
:101750007FB505460C465A21684601704470224602
:101760002946801CFEF729FE2146284601F088FA0A
:10177000C1B26A46A01C1154A521E01C11541021CD
:101780000520000501F006FB7FBD00007CB5044686
:101790000E462078AA2801D001207CBD022E01DA55
:1017A0000020FAE76078142801DD0120F5E765786C
:1017B000681D864201DA0020EFE7281D205CBB2867
:1017C00007D1A91C601CFEF7F2FFE91C615C88428E
:1017D00001D00120E1E7A07880210840002814D042
:1017E000A078902803D12179E078FFF723FD2648DF
:1017F000007B04218843001D23490873A1782248F7
:1018000060300170002141703BE01F48007B800781
:10181000C00F002835D01C48024601680420105E25
:101820000C225043085CA17888422AD11648007BDC
:101830000221884314490873002113486030017362
:1018400000BF60388088401C00B20F4988800A467B
:101850000621515E0420105EFEF723FE0A488180B7
:1018600000BF01460420085E08228A5E904208D12B
:1018700000200649064A0346009101900548FFF7FB
:1018800037FE681D89E7000018020020F91A0000E1
:1018900010270000A0030020F0B59BB004460F46BF
:1018A0002078AA2802D001201BB0F0BD022F01DA57
:1018B0000020F9E76078142801DD0120F4E765785D
:1018C000681D874201DA0020EEE7281D205CBB2856
:1018D00007D1A91C601CFEF76AFFE91C615C884205
:1018E00001D00120E0E7A078502847D1E078062811
:1018F0002BDBE0780C2828DC002600BF05E0301D3B
:10190000205C0A2800DB03E0761CE078B042F6DCBD
:1019100000BF32461AA102A8FEF77CFC019002A883
:10192000019900F045F8E078B0420DD1E178201D32
:10193000FFF70EFF14A102A8FEF76CFC019002A8AD
:10194000019900F035F800BF0EE0E07800280BD1D7
:10195000FEF794FF11A102A8FEF75CFC0646314693
:1019600002A800F025F800BF6A1D21460F48FEF7C7
:1019700024FD681D81B20D4800F052FB681D93E7FD
:10198000693D25640A000000726573746F726520FA
:1019900070617373776F72640A000000636C722069
:1019A00070617373776F72640A000000400000205A
:1019B00070B505460C4600BF064800880028FBD1DC
:1019C000A1B2284600F02CFB00BF02480088002886
:1019D000FBD170BD0801002010B50446AA201249B1
:1019E00048736178104881732178C1736278A11CB3
:1019F0001030FEF7E2FC6078811C0B480E30FEF7D9
:101A0000D6FE6178C91C084A0D325054BB2260785A
:101A1000001D05490D310A546078411D02480D3002
:101A200000F048FC10BD00001802002070B504460C
:101A3000002C05D11749488316496031888028E079
:101A400000250026642C01DD642404E06320C043EB
:101A5000844200DA0446002C03DBA02025464543DF
:101A600002E06642A0214E430A48408BA84204D1BE
:101A7000084860308088B0420AD0072000F036F96C
:101A800004494D83034960318E80072000F026F918
:101A900000BF70BD0023044010B513480069042145
:101AA000084311490861114811490881114808810A
:101AB0000120887200BF0C480069042108430A49CC
:101AC000086130BF00BF09480949088109480881F9
:101AD0000020887204480069042188430249086193
:101AE000FFF75EF810BD000000ED00E02A190000CD
:101AF000000402404F3E000070B505460E460948FE
:101B0000046805E0A068002801D0A0688047246828
:101B1000002CF7D104488069002802D00249886966
:101B2000804770BD0C020020A003002010B59AB0C1
:101B300011A101A8FEF76EFB0446214601A8FFF79C
:101B400037FF0120114908700020114908600F4833
:101B5000104900221346009101900F48FFF7C8FC7E
:101B600000200E490E4A0346009101900D48FFF7F0
:101B7000BFFC1AB010BD0000756E6C6F636B2073F4
:101B80006F66742073746172740A00007000002024
:101B9000740000201913000088030020F91A0000C7
:101BA00010270000A003002070B500F045F87D214B
:101BB000C9000E480068FEF76AFC05462C46601E08
:101BC0000B49884200D90CE0601E0A494861032194
:101BD000081F00F0A3FC0020064988610720086167
:101BE00000BF0548FFF77CFC70BD0000100200201C
:101BF000FFFFFF0000E000E0150C00000348006953
:101C000040084000014908617047000000E000E022
:101C100007480068401E0649086006480268406898
:101C20000021521C484103490A6048607047000087
:101C3000180000201000002000B5FEF7D7FD014974
:101C4000086000BD1002002000B580201B494871CB
:101C50001A201A49203908732B2048733C208873B6
:101C60004D20C873002016494860FEF7BFFD154996
:101C700008600020C04314490860144908601448F3
:101C800014490860114903221202891848600F495B
:101C9000891888600D498918C8600C49891808613D
:101CA0000A498918486109498918886107498918CA
:101CB000C861AC200849487000BD00002004024003
:101CC00000B001401002002080E200E000E100E0EE
:101CD000C0C0C0C000E400E0001002400249498AD0
:101CE0000143014A51827047A02104400249898A78
:101CF0000143014A91827047A021044030B5054656
:101D00000B46144650480078022108434E4908709B
:101D100000204E49C8824E484C4920390882681E2E
:101D20004C4908834948008B4008400047490883D4
:101D30000846408B400840004883474843492039C3
:101D40004882444843834148C08B022108433F49AD
:101D5000C8830846808B022188433C498883084613
:101D6000008B02218843394908830846408B0221B1
:101D700008433649488300BF022038494872384832
:101D800040780221884336494870354820304078F1
:101D90000221884332492031487031484030407C2C
:101DA000022188432E49403148742D4860304078E4
:101DB000022188432A496031487000BF26482349E0
:101DC000203988822348603084802048C08B0421D9
:101DD00008431E49C8830846808B042188431B4959
:101DE00088830846008B04218843184908830846E5
:101DF000408B042108431549488300BF032017493D
:101E000088741748807804218843154988701448DD
:101E1000203080780421884311492031887010488F
:101E20004030807C042188430D49403188740C483F
:101E3000603080780421884309496031887000BF90
:101E40000720FFF74BFF30BD20040240A0210440D3
:101E500001800000002304400984000000080440C1
:101E600000000440F8B505460E466A46314628464D
:101E700000F090FA0446002C16D10C200B49888003
:101E800068460078C880684640784006000C0849DB
:101E90008880684640784006000CC8800348408827
:101EA0000C210843014948802046F8BD2011044018
:101EB0004013044070B505460E464348007804219F
:101EC000084341490870414880880C2108433F4934
:101ED000888001213E4801750176017700203D4947
:101EE00008750876087722203849203988823A48D0
:101EF000888367204002394988803948007C042162
:101F0000084337490874072030492039C881FF2029
:101F10002330C8823348C883672040022F49C880D5
:101F20002A48008904210843284908810846808AF4
:101F30002D490840254988820846408904210843E4
:101F40002249488100BF0A202849C87228484078A1
:101F50000821084326494870254820304078082148
:101F6000884323492031487021484030407C082173
:101F700088431F49403148741D486030407808212B
:101F800088431B496031487000BF00BF07201749D4
:101F90006031C87316482030407810210843144936
:101FA0002031487012486030407810218843104931
:101FB0006031487000BF31462846FFF753FF0446A2
:101FC00000F050F8204670BD20040240201104406B
:101FD00020610040206000409780000040130440D2
:101FE0006004044097400000FBFF0000000804402C
:101FF0000000044010B502460020002901D18120D4
:1020000006E00023034C2380034B1980034B1A6026
:1020100010BD000010010020120100200C01002062
:1020200010B502460020002901D1812012E00A4BA0
:102030001A600A4B1980084B1B681B78084C2371E7
:10204000054B1B685B1C044C2360044B1B885B1E08
:10205000024C238010BD0000040100200801002074
:102060004013044010B510480089042108430E496C
:10207000088108464089042108430B4948810846E5
:1020800040880C210843084948800020074908750A
:1020900008760D2000F036FA0E2000F033FA002109
:1020A00003480175017610BD2011044020600040F6
:1020B0002061004001210A480175017609488088A5
:1020C0000C21084307498880084640890649084092
:1020D00004494881002005490875087670470000CA
:1020E0002061004020110440FBFF00002060004000
:1020F000F8B505460E466A463146284600F04AF9CC
:102100000446002C16D103200B49888068460078CD
:10211000C880684640784006000C08490881684637
:1021200040784006000C488103484088032108435A
:10213000014948802046F8BD60150440401704401E
:1021400070B505460E4645480078082108434349C6
:102150000870434880880321084341498880012151
:10216000404801773F4820300170017100203E490E
:1021700008773D49203108700871222038492039FC
:1021800008823A4808836720400239490881394863
:10219000007C102108433749087407203049203952
:1021A0004881FF202330488233484883672040021B
:1021B0002F4948812A48008901210843284908817C
:1021C0000846808A2D49084025498882084640896A
:1021D000012108432249488100BF06202849887010
:1021E0002848007B042108432649087325482030ED
:1021F000007B042188432349203108732148403063
:10220000007F042188431F49403108771D48603012
:10221000007B042188431B496031087300BF00BF65
:10222000242017492031C87216482030007B022133
:10223000084314492031087312486030007B0221A2
:10224000884310496031087300BF31462846FFF7C4
:102250004FFF044600F050F8204670BD20040240B5
:10226000601504400061004000600040978000005D
:10227000401704406004044097400000FEFF000047
:10228000400804400000044010B502460020002928
:1022900001D1812006E00023034C2380034B1980E9
:1022A000034B1A6010BD0000680100206A01002085
:1022B0006401002010B502460020002901D18120D0
:1022C00012E00A4B1A600A4B1980084B1B681B78F6
:1022D000084C2372054B1B685B1C044C2360044BA9
:1022E0001B885B1E024C238010BD00005C01002097
:1022F000600100204017044010B5124800890121F8
:1023000008431049088108464089012108430D49C6
:10231000488108464088032108430A494880002034
:1023200009490877084920310870072000F0EAF8C9
:10233000082000F0E7F80021044801770348203026
:10234000017010BD60150440006000400061004055
:1023500001210C4801770B48203001700A48808821
:1023600003210843084988800846408907490840F6
:102370000549488100200649087705492031087041
:10238000704700000061004060150440FEFF00003F
:1023900000600040F7B584B016468020039000240A
:1023A0002BE06000174A115A0498FEF770F801906C
:1023B00002251EE0691C0198FEF769F841080291A8
:1023C000114A0299514308460599FEF760F80E49F3
:1023D000471A381E01DB014600E04142142906DAA3
:1023E0003470757000200390039807B0F0BD681C2E
:1023F000C5B2802DDEDB601CC4B2102CD1DB03988B
:10240000F3E70000B02E00001027000010B5154AB9
:102410000621515E134608229A5E501CFEF741F8D1
:1024200010480422825E914217D000BF0E48017806
:102430000C480822825E0089401C00B2094B1881BA
:102440001846006881541A460621515E0820105E25
:10245000FEF727F80348018100BF01210248FFF77A
:10246000C9FD10BD000300202C00002010B5144A47
:102470003621515E3823D35E581CFEF712F81048FF
:102480003422825E914216D000BF0E4801780C487B
:102490003822825E008F401C03B209480387006B1C
:1024A0008154074A3621515E3820105EFDF7F9FF4E
:1024B0000348018700BF01210248FFF7E5FE10BD78
:1024C000180200201C0000200348007B4008400048
:1024D000014908737047000018020020AC20014930
:1024E000487070470010024030B47446641E25786E
:1024F000641CAB4204D3635D5B00E31830BC184737
:102500001D46F8E7002805DBC206D20E01219140E6
:10251000014A11607047000080E200E010B5002819
:1025200019DB1A4A03231B02D21883089B00D258D6
:102530008307DC0EFF23A3409A438B071B0E8407FF
:10254000E40EA3401A43114B032424021B198408F0
:10255000A4001A5118E00E4A03071B0F083B9B0802
:102560009B00D2588307DC0EFF23A3409A438B07BE
:102570001B0E8407E40EA3401A43054B0407240FE7
:10258000083CA408A4001A5110BD000000E100E0BE
:102590001CED00E030380A2801D2012070470020ED
:1025A00070470000002803D00449054A116202E088
:1025B0000121034A116200BFFEE70000AD0B0000DD
:1025C0000080024070B50446084B0C229A5E082633
:1025D0009E5F911B9A89121B12B23C235A431046EC
:1025E000FDF75FFF193005B2284670BD6006500048
:1025F00010B50020114908751148C07B11490968C0
:10260000087010480068401C0E4908600C48C089DA
:102610000D49096808800C480068801C0A49086058
:102620000A480068401C094908600549C98908B280
:10263000FFF7C8FF0649088010BD00004060004059
:1026400000500440780000207C0000208000002022
:1026500084000020704700000848007C01210843E6
:102660000649087400BF0648407CC007C00F002818
:10267000F9D001200349087070470000201A044077
:10268000401B04409B0000200848007C01210843B7
:102690000649087400BF0648407CC007C00F0028E8
:1026A000F9D001200349087070470000201A044047
:1026B000401B04409A0000200349097C202211435A
:1026C000014A117470470000201A0440012001499A
:1026D000087070479B000020012001490870704776
:1026E0009A00002010B5002007490870FEF798FAFC
:1026F0000648407C80210840802802D100F008F87C
:1027000001E000F0D3F810BD40600040401B0440E1
:1027100010B55E48807C40210840002807D15C4805
:102720000088002803D00120FFF794FFACE059484F
:10273000007880210840002844D15448407C04217E
:10274000084000283AD05348007880210843514976
:1027500008704E48407C0821084000281BD04E4895
:10276000007C08434C4908744948008800280FD071
:102770004A48006800784549087448480068401C89
:102780004649086042480088401E414908807BE075
:10279000FFF77AFF78E04048007C042108433E4977
:1027A00008740846007C082188433B4908740846A1
:1027B000007C202108433849087465E00220FFF7B7
:1027C00049FF61E03148407C08210840002824D0BE
:1027D0002E48407C04210840002807D12C4800885E
:1027E000002803D00220FFF735FF4DE0284800887D
:1027F00000280FD029480068007824490874274829
:102800000068401C2549086021480088401E204976
:10281000088039E0FFF738FF36E021480088214979
:10282000098888422EDA1948007C1F490968087017
:102830001D480068401C1C49086019480088401C5D
:10284000174908800846008816490988884212D12D
:102850001148007C042188430F4908740846007C15
:10286000202108430C4908740846007C08210843CD
:102870000949087408E00848007C202108430649FB
:10288000087401E0FFF7E8FE10BD0000401B0440A3
:102890009800002088000020201A044094000020A6
:1028A00092000020900000208C00002010B5774896
:1028B000407CC007C00F00281FD07548007C102145
:1028C00088437349087473480078802108400028C1
:1028D0000FD07048007804210840002801D0FFF78D
:1028E000FBFE6C48007802210840002801D0FFF769
:1028F000EDFE012067490870C6E066480078802137
:10290000084000284CD16148407C10210840002834
:1029100042D05F48007C08435D49087480205D49CF
:1029200008705A48407C08210840002821D05848A7
:10293000007C0843564908745748008800280FD087
:102940005648006800785149087454480068401C93
:102950005249086050480088401E4F49088093E063
:10296000FFF7BAFE4A48007C202108434849087412
:102970008AE04748007C042108434549087408461A
:10298000007C08218843424908740846007C2021C5
:1029900008433F49087477E08020FFF78DFE73E01D
:1029A0003A48407C08210840002830D03948007857
:1029B00004210843374908703448407C042108400A
:1029C000002807D134480088002803D00220FFF7F0
:1029D00073FE59E03048008800280FD02F48006867
:1029E00000782A4908742D480068401C2B4908606B
:1029F00029480088401E2849088045E0FFF76CFE02
:102A00002348007C20210843214908743CE02148E8
:102A10000078022108431F49087021480088214995
:102A2000098888422ADA1948007C1F490968087019
:102A30001D480068401C1C49086019480088401C5B
:102A400017490880084600881649098888420ED12F
:102A50000F48007C082108430D4908740846007C93
:102A6000202108430A490874FFF730FE0CE00848AB
:102A7000007C202108430649087405E00448007CD6
:102A8000202108430249087410BD0000401B044087
:102A9000201A0440890000209800002094000020A3
:102AA00092000020900000208C0000200248006866
:102AB000401C0149086070479C00002002480068E3
:102AC000401C014908607047A000002002480068CF
:102AD000401C014908607047A400002002480068BB
:102AE000401C014908607047A800002010B5002074
:102AF00002490871FFF7DAFF10BD000000600040D6
:102B000010B5002002490872FFF7D8FF10BD000081
:102B10000060004010B5002002490873FFF7D6FF9F
:102B200010BD00000060004010B50020024908748C
:102B3000FFF7D4FF10BD00000060004000200149F5
:102B400008767047006000400A48FEF7F5FD0A4825
:102B5000FEF7F2FD0948FEF7EFFD0948FEF7ECFD30
:102B6000084809498861FEF71BF801E0FEF702FDFD
:102B7000FCE700000000002064000020200000208E
:102B800034000020991A0000A0030020704710B5FF
:102B9000FFF73CFC10BD7047704700001CB50020DB
:102BA0001B4908761B48C0884107490F00916846B9
:102BB00000781849C88168460078002803D0684624
:102BC0000078FFF7E3FF14488079019013480088EC
:102BD00013490988884216DD684600791149096859
:102BE000087010480068401C0E4908600C480088B6
:102BF000401C0B490880094800880988884206D192
:102C0000FFF7C5FF03E068460079FFF7C5FF1CBD6D
:102C100020600040001104404013044012010020D5
:102C2000100100200C01002010B500200C4908758F
:102C30000C48008800280FD00B48006800780B492A
:102C4000087109480068401C074908600548008869
:102C5000401E0449088001E0FFF79DFF10BD000001
:102C600020600040080100200401002040130440BF
:102C700010B50446FDF710FE10BD70477047704751
:102C800030B502460020002302E01578521C2818B7
:102C90001C465B1C8C42F8DB30BD000010B5FFF712
:102CA0001DFC03480068401C0149086010BD00007D
:102CB000C001002001460820334AD060F120106294
:102CC00055205060AA2090600020C043086000BFDB
:102CD0002D480068C007C00F0028F9D02A480068B6
:102CE00001221043284A10600020D060704701463E
:102CF0001020254AD060F120106255205060AA2093
:102D000090600020C043086000BF1F480068C007F3
:102D1000C00F0028F9D01C480068012210431A4A4D
:102D200010600020D060106210460068042210403D
:102D3000002801D0012070470020FCE770B5034651
:102D40001D46F120104E3062002416E0AA200E4EDF
:102D500070605520B06010782870521C6D1C00BF48
:102D600009480068C007C00F0028F9D0064800686D
:102D700001263043044E3060641C8C42E6D30020B0
:102D8000014E306270BD0000000002400020474943
:102D900008777047F7B5FFB089B006460F460020A8
:102DA0008790012005904002874205D980208790B6
:102DB00087987FB00CB0F0BD039600240CE0039818
:102DC000007886900398401C03908698FF2801D0D5
:102DD00000200590601C84B2BC42F0D30598002806
:102DE00005D0394630468A9AFFF7A8FF5BE0750A9E
:102DF000F119681C4002814202D90120049001E0CF
:102E000000200490700A40020290F005C00D01906D
:102E1000049800280FD0002408E00298007806A942
:102E200008550298401C0290601C84B20120800268
:102E30008442F2DB0EE0002408E00298007806A944
:102E400008550298401C0290601C84B20120400288
:102E50008442F2DB00240AE08A9801780198001984
:102E600006AA11548A98401C8A90601C84B2BC4205
:102E7000F2D3049800280DD06802FFF738FF691CD0
:102E80004802FFF734FF680206AA01218902FFF712
:102E900055FF08E06802FFF72AFF680206AA012131
:102EA0004902FFF74BFF879883E70000606000400E
:102EB0000100020004000800100020004000800013
:102EC0000001000200040008001000200040008003
:102ED000F02E00000000002014020000580700003F
:102EE000242F0000140200200C070000080100003D
:102EF0004123A91B1AFD040118239908E3AB091A01
:102F00003D101A9504000B16746573742075617278
:102F1000740A7206031A091302FF1901309AFF019D
:042F20000154000058
:04000005000000C532
:00000001FF
