:020000040000FA
:10000000100B0020A5010000413D0000AF010000E1
:1000100000000000000000000000000000000000E0
:10002000000000000000000000000000B701000018
:100030000000000000000000BB010000FD260000E1
:10004000BF0100003D3B0000513B0000653B00004C
:10005000793B0000C90100008D3B0000351800000D
:1000600085180000D1010000D3010000D501000077
:10007000D7010000E53C0000593C0000DD01000014
:10008000353700001D1900006D190000BD19000072
:100090000D1A00002D360000EB010000ED010000FC
:1000A000EF010000F1010000F30100005D1A000003
:1000B000AD1A0000FD1A00004D1B0000313E00008B
:1000C000EFFFE1FF00F002F800F041F80CA030C8AB
:1000D000083824182D18A246671EAB4654465D46C4
:1000E000AC4201D100F033F87E460F3E0FCCB6464D
:1000F0000126334200D0FB1AA246AB4633431847D1
:10010000B43E0000D43E0000002300240025002659
:10011000103A01D378C1FBD8520700D330C100D5C3
:100120000B60704710B5642902D100F011F910BDC1
:10013000782902D100F042F910BD002010BD1FB592
:100140000098019900F011FB1FBD10B510BD00F023
:10015000EFFB1146FFF7F3FF03F01EFD00F007FC75
:1001600003B4FFF7F2FF03BC03F034FA70B50546A1
:100170000C46164602E00FCC0FC5103E102EFAD2E8
:10018000082E02D303CC03C5083E042E07D301CCAE
:1001900001C5361F03E021782970641C6D1C761E92
:1001A000F9D270BD1948804719480047FEE7FEE7BD
:1001B000FEE7FEE7FEE7FEE7FEE7FEE7FEE7FEE717
:1001C000FEE7FEE7FEE7FEE7FEE7FEE7FEE7FEE707
:1001D000FEE7FEE7FEE7FEE7FEE7FEE7FEE7FEE7F7
:1001E000FEE7FEE7FEE7FEE7FEE7FEE7FEE7FEE7E7
:1001F000FEE7FEE7FEE7FEE7FEE7FEE7FEE70000BC
:1002000004480549054A064B7047000035270000A1
:10021000C500000010060020100B00201007002071
:100220001007002070B5064600F082FA05683046D7
:100230000B30C408E400B44201D8002070BD6868E7
:100240002A46002818D00168A14211D30B46214646
:1002500008318B4208D3436801194B6003681B1BAC
:100260000B605160046001E041685160001D70BD89
:10027000024640680028E6D12146284600F060FA90
:100280000028DCD170BD70B50446051F00F050FA9F
:100290000068002C1AD0446801E020466468002CF5
:1002A00001D0AC42F9D301680A18AA4204D12A68E5
:1002B00005468918016000E0456028684119A1429F
:1002C00005D16168696021684018286070BD6C6064
:1002D00070BD00000FB41CB5084B06AA7B446946EC
:1002E0000090059800F0D3FA04460020694600F01B
:1002F000E1FA20461CBC08BC04B01847D505000034
:1003000070B5044685690068C10601D5302600E055
:100310002026C00707D070BD62683046A1689047AC
:10032000206A401C20626D1EF6D570BD70B5044673
:1003300085690078C00707D170BD6268A168202078
:100340009047206A401C20626D1EF6D570BD0000EB
:10035000F7B5002575291068009914A611D0C0467C
:10036000C046002802DA404211A608E00099096858
:100370008A0701D50FA602E0490704D50EA601257C
:1003800001E0C046C046009F0024243704E000F08E
:1003900096FA30313955641C0028F8D12B46324684
:1003A0002146009800F015FAFEBD00000000000094
:1003B0002D0000002B0000002000000070B5044656
:1003C0000D4621461068C046C0462188090502D561
:1003D0000F4A7A4402E00E4A7A440E322346002144
:1003E000243305E006070009360F965D5E54491C6C
:1003F0000028F7D120780023000705D5702D03D001
:10040000002901D002231132204600F0E2F970BD2C
:10041000A43B0000F3B50446002081B020622046D2
:10042000E168884700287DD0252802D06268A1684D
:1004300083E0454F00257F442046E1688847202817
:10044000064608DB312E06D2B8192038007800287D
:1004500001D00543F0E7A80701D50420854300201B
:10046000E0610746A0612A2E0AD0304603F0AAF8C0
:10047000002827D0B8000019303E0090866119E0AE
:100480000298BA00121902C8916102902046E168F0
:100490008847012F064617D1E06900281FDA20207F
:1004A00085431CE000980A2180694843009980191F
:1004B000303888612046E1688847064603F082F8B4
:1004C0000028EFD1012F0AD02E2E08D12046E16856
:1004D00088470646202005437F1C022FC3DBA06906
:1004E000002803DA4042A06101200543E80701D05B
:1004F00010208543002E24D030464138192803D8D7
:100500000120C00205432036204625603146029A6C
:100510001546FFF707FE00280CD0012807D0ED1D77
:10052000E80800E00DE0C0000830029077E72D1DDC
:10053000029574E762683046A1689047206A401CC3
:100540006CE7206AFEBD0000683B0000F8B5042A95
:100550002CD3830712D00B78491C0370401C521E09
:1005600083070BD00B78491C0370401C521E830775
:1005700004D00B78491C0370401C521E8B079B0F44
:1005800005D0C91ADF002023DE1B08C90AE0FFF7E7
:10059000EDFDF8BD1D4608C9FD401C46B4402C4386
:1005A00010C0121F042AF5D2F308C91A521EF0D443
:1005B0000B78491C0370401C521EEAD40B78491C6E
:1005C0000370401C012AE4D409780170F8BD0022B0
:1005D00003098B422CD3030A8B4211D300239C4680
:1005E0004EE003460B433CD4002243088B4231D3F8
:1005F00003098B421CD3030A8B4201D394463FE08C
:10060000C3098B4201D3CB01C01A524183098B42EB
:1006100001D38B01C01A524143098B4201D34B01D4
:10062000C01A524103098B4201D30B01C01A524137
:10063000C3088B4201D3CB00C01A524183088B42BE
:1006400001D38B00C01A524143088B4201D34B00A7
:10065000C01A5241411A00D2014652411046704719
:100660005DE0CA0F00D04942031000D3404253401E
:1006700000229C4603098B422DD3030A8B4212D3DE
:10068000FC22890112BA030A8B420CD38901921110
:100690008B4208D3890192118B4204D389013AD04D
:1006A000921100E08909C3098B4201D3CB01C01A22
:1006B000524183098B4201D38B01C01A5241430935
:1006C0008B4201D34B01C01A524103098B4201D323
:1006D0000B01C01A5241C3088B4201D3CB00C01A90
:1006E000524183088B4201D38B00C01A5241D9D2A8
:1006F00043088B4201D34B00C01A5241411A00D229
:100700000146634652415B10104601D34042002B24
:1007100000D54942704763465B1000D3404201B5A3
:100720000020C046C04602BD7047704770470000B9
:1007300000487047B8050020704770477047704701
:1007400038B504460A4600206946C046C04600281F
:1007500005D002462046009900F0CAF8012038BDB5
:1007600010B5012000F0DEF810BDF8B5C046C04657
:10077000054600200C461020C0460646A819A04297
:100780000DD9324669460020C046C046070001D157
:1007900000F0C8F80098A04200D00546C419FFF741
:1007A000C7FFF61D07460560F008C0004619284639
:1007B00000F008F8B44204D031463868A21B00F0BB
:1007C00097F8F8BD002101604160806070471020FB
:1007D0007047FFB504460D4681B024300090216873
:1007E000880604D51022E0699143216000E00120D1
:1007F000A84201DD471B00E000270498A1697A198F
:100800001018081AA0612078C00602D42046FFF70D
:1008100077FD002608E003986268A168805D904734
:10082000206A401C761C206204988642F3DB207804
:10083000C0060AD52046FFF763FD06E06268A1689E
:1008400030209047206A401C206238467F1E0028D6
:10085000F4DC07E000986268A168405D9047206A78
:10086000401C206228466D1E0028F3DC2046FFF75E
:100870005DFD2078000602D5022005B0F0BD012004
:10088000FBE7000001694A1C02610878704700B567
:100890008FB002910021059105490193794403919C
:1008A000114604906846FFF7B5FD0FB000BD00008B
:1008B000E5FFFFFF0A681070521C0A60704701468E
:1008C0008008081A02091018020A1018020C1018E1
:1008D000C008820012185200891A01E0401C0A392F
:1008E0000A29FBD27047000000487047B00500207D
:1008F00010B50346406801E003464068002801D077
:100900008842F9D31868C3188B4206D0CB1CD8088C
:10091000C000001D411A521A0146081D0A60FFF767
:10092000B2FC10BD10B500F031F800F028F810BD91
:100930007546FFF7D9FFAE46050069465346C00825
:10094000C000854618B020B5FFF75AFC60BC0027F0
:100950004908B6460026C0C5C0C5C0C5C0C5C0C58B
:10096000C0C5C0C5C0C5403D49008D46704710B5E3
:100970000446C046C0462046FFF7F2FB10BD10B546
:10098000002801D002F026FE10BD000010B501289D
:1009900005D0002103A000F021F8012010BD09A11D
:1009A000F8E7000053494752544D454D3A204F75E2
:1009B00074206F662068656170206D656D6F727957
:1009C000000000003A2048656170206D656D6F720F
:1009D0007920636F727275707465640070B5054636
:1009E0000C460A2000E06D1C02F004FE002D06D02B
:1009F00028780028F7D102E0641C02F0FBFD002CEF
:100A000002D020780028F7D10A2002F0F3FD70BD53
:100A100070B58C180578401C6B075B0F01D103780B
:100A2000401C2A1106D10278401C03E00678401CC5
:100A30000E70491C5B1EF9D12B0705D40023521EF2
:100A40000DD40B70491CFAE70378401CCB1A921C9A
:100A500003E01D780D70491C5B1C521EF9D5A142A4
:100A6000D8D3002070BD0000F8B505460E461446E8
:100A70000020009001211A4801751A480078884327
:100A8000184908700820887000208871084600788E
:100A9000012108431349087008460572002717E032
:100AA00010480078802108430E49087000BF0E48A6
:100AB000007D0028FBD000200B4908750948C0893B
:100AC0002080A41C0748C1890098081800907F1C4A
:100AD000B742E5D331460098FFF779FD80B2F8BD03
:100AE00040610040005004404060004010B50121CA
:100AF00018480175184800782021084316490870E5
:100B000000201649087016490875152002F0FAFCF5
:100B100014488078012108431249887010200F4939
:100B200008700020887008468078887008468078B1
:100B30000821084309498870002008718871FF2046
:100B4000C8720020887208460078012108430349D2
:100B5000087010BD40610040200402400050044075
:100B6000406000406000044010B5084800788021D3
:100B70008843064908700121054801750020054990
:100B80000875152002F0BEFC10BD000000500440A6
:100B9000406100404060004070B59EB0FFF7A6FF86
:100BA000002203210C2001F055FA00BF082119484A
:100BB000017700BF002500BF18E01AAA0821002015
:100BC000FFF752FF0446FFF7CFFF224612A101A80C
:100BD000FFF780FB0646314601A801F00BFC2046DA
:100BE00000F020FC00F056FC681C45B20A2DE4DB46
:100BF0000B480078002803D009480078012807D165
:100C000008A000681D9001211DA802F007FB00BF8D
:100C10001EB070BD0000044041443D25640A000040
:100C20006800002015000000704700001CB5044655
:100C3000082001F0C9FD002004492246E317009175
:100C40000190034801F08CF91CBD0000550C000018
:100C50000005002070B504460D46082001F0BCFDDB
:100C600070BD10B502460B460021002000BF02E017
:100C7000545C6040491C9942FADB10BD70B50346D4
:100C80000024002A01DA104670BD07E01D785B1CC5
:100C90000E78491CB54201D02046F5E72046641C79
:100CA0009042F3DB0020EFE710B57D21C90008205A
:100CB00001F04EFE082001F08FFD10BD00B5C022EE
:100CC0009178F8221140144A1278114313480A46C9
:100CD000E03A130002F008FC0E0A0E12161A1E1E4D
:100CE0001E080C1014181C1E0D4813E00D4811E0CE
:100CF0000D480FE00D480DE00D480BE00D4809E0F0
:100D00000D4807E00D4805E00D4803E00D4801E0FF
:100D10000D4800BF00BF00BD201C024040420F0034
:100D20000090D003006CDC020048E80100366E0140
:100D30000024F400001BB70000127A00808D5B00D5
:100D400000093D00C0C62D0080841E007FB5054609
:100D50000E4613A00068039012A00068029012488B
:100D60008078C108012088430446104800788442F6
:100D70000CD0002C04D1012103A802F04FFA03E0AB
:100D8000012102A802F04AFA08480470002008492C
:100D90000A22034600910190064801F0E1F87FBD68
:100DA0001300000014000000000004408800002030
:100DB0004D0D0000180500201CB501220321022062
:100DC00001F048F9002004490A22034600910190ED
:100DD000024801F0C5F81CBD4D0D000018050020AB
:100DE00010B5022000F0F8FC10BD00001CB501F0A9
:100DF00099FCE12149021F48006802F0C9F801216D
:100E00001D4802F069F900BF1C481D490860002018
:100E1000088188801420C88000BF0846007B4008F5
:100E2000400008730846007B022188431449087378
:100E30000846007B042188431149087300BF11480C
:100E4000086300210E48018781862021C18600BFEA
:100E500000200B49C865002109486030017300205B
:100E600009490A22034600910190084801F078F8E8
:100E70001CBD0000540200201C000020C8020020FD
:100E800058020020B8030020550F0000D8030020AE
:100E90001CB501F047FC4B21C9011F48006801F057
:100EA00031FF01211D4801F0CDFF00BF1C481D4945
:100EB00008600020088188800520C88000BF08469F
:100EC000007B4008400008730846007B02218843ED
:100ED000144908730846007B0421884311490873AC
:100EE00000BF1148086300210E4801878186202138
:100EF000C18600BF00200B49C86500210948603049
:100F0000C173002009490A22034600910190084854
:100F100001F026F81CBD000054020020480000200B
:100F20007804002008040020C30400201D110000E4
:100F3000E804002010B502F0B9F90221012000F008
:100F400021FB012000F01AFC10BD10B501F0DAFF02
:100F500010BD000070B59AB004460D461EE000BFFB
:100F60006548016B3422825E895CC26D3C308154DD
:100F700000BF3C38808E401C01B25F48818602462B
:100F80003621515E3420105EFFF72BFB5A488186D4
:100F900000BF00BFC06D401C5749C8655648C06DB2
:100FA000202806DA54483421415E3822825E91427C
:100FB000D5D15148007B4007C00F002808D14E4AC8
:100FC0005C32114620394D4800F0FCF902F09AF8E5
:100FD0004948007BC007C00F002815D14648007B58
:100FE0004007C00F002810D04348007B04218843ED
:100FF000414908730846007B40084000401C0873C4
:101000000846603001F010FA6BE03B48007B800737
:10101000C00F002848D038486030007B401C41B2E7
:10102000354860300173007B0F2804D032486030AF
:10103000007B1E2810D13048007B40084000401C37
:101040002D4908730B460A680421595E0C23594345
:10105000501801F0E9F944E0274860300C2141566E
:101060002D293EDB002101736038007B022188437B
:101070002149087322A101A8FFF72CF90646314641
:1010800001A801F0B7F900BF1B488088401C00B2DE
:10109000194988800A460621515E0420105EFFF738
:1010A000A0FA154881801CE013490420085E08223C
:1010B0008A5E904215D00846007B40084000401CE4
:1010C00008730846007B02218843801C0A49087384
:1010D0000B460A680421595E0C235943501801F04D
:1010E000A3F900200B4901220346009101900A4810
:1010F00000F036FF1AB070BD580200202D2200000B
:1011000054494D45204F555420332074696D657303
:101110000A000000550F0000D803002070B59AB0F7
:1011200004460D461EE000BF7F48016B3422825EFC
:10113000895CC26D3C30815400BF3C38808E401CBD
:1011400001B27948818602463621515E3420105E14
:10115000FFF747FA7448818600BF00BFC06D401C8E
:101160007149C8657048C06D202806DA6E48342180
:10117000415E3822825E9142D5D16B48007B4007A8
:10118000C00F002806D1684A5C32114620396748F2
:1011900000F018F96448007BC007C00F00287DD11B
:1011A0006148007B4007C00F002819D060A101A84A
:1011B000FFF790F80646314601A801F01BF95A489E
:1011C000007B04218843584908730846007B400887
:1011D0004000401C08730846603001F071F997E048
:1011E0005148007B8007C00F00285FD04E48603018
:1011F000C07B401C41B24C486030C1734EA101A875
:10120000FFF768F80646314601A801F0F3F84648B2
:101210006030C07B0A2804D043486030C07B14286B
:101220001AD14148007B40084000401C3E490873E9
:1012300044A101A8FFF74EF80646314601A801F087
:10124000D9F839490968384B04229A5E13019A1A71
:10125000881801F035F95BE033486030C07B1E2808
:1012600056D13AA101A8FFF735F80646314601A844
:1012700001F0C0F800212C486030C1736038007B59
:10128000022188432849087300BF08468088401C13
:1012900000B288800A460621515E00E02EE004205C
:1012A000105EFFF79EF92048818031E01E4904203E
:1012B000085E08228A5E90422AD00846007B4008D9
:1012C0004000401C08730846007B02218843801CB4
:1012D0001549087322A101A8FEF7FCFF0646314616
:1012E00001A801F087F8104909680F4B04229A5EA3
:1012F00013019A1A881801F0E3F809E01AA101A86D
:10130000FEF7E8FF0646314601A801F073F800BF7A
:10131000002018490A22034600910190164800F067
:101320001FFE1AB070BD000008040020E522000076
:101330005245504C590A00007761697420726570FB
:101340006C790A0072657472790A000074696D65BF
:10135000206F757420332074696D65730A00000076
:1013600073656E640A000000747820627573790AF0
:10137000000000001D110000E804002030B599B005
:101380000A48046805E06068002801D0606880476A
:101390002468002CF7D106A16846FEF79BFF05469E
:1013A0002946684601F026F819B030BD50020020E9
:1013B00054494D45204F5554205448454E20534CD8
:1013C00045455000F7B582B00E461546002700206F
:1013D000019000240BE02A68111B3019029A9047F3
:1013E00001900198002800DC04E001982418286886
:1013F000A042F0DC00BF002C0BDD2868001B286039
:10140000002703E03819305CF0557F1C2868B8428B
:10141000F8DC05B0F0BD0000014903C970470000C9
:10142000100000201A490968814215D2184909683C
:101430001431814205D2164909680A31144A1160F3
:1014400024E013490968491D81421FD210490968E7
:10145000891C0F4A116019E00D490968814215D9AC
:101460000B490A68014614318A4205D908490968BE
:101470000A39074A116009E005490A68411D8A4294
:1014800004D903490968891E014A116070470000A8
:101490006C00002010B59AB02C480068410140183B
:1014A000810040180003000E2949087008460278A0
:1014B00028A101A8FEF70EFF0446214601A800F06E
:1014C00099FF23480078372803DD0420234908705A
:1014D0001AE01F480078332803DD03201F490870F5
:1014E00012E01B4800782E2803DD02201B490870FB
:1014F0000AE0174800782B2803DB01201749087001
:1015000002E00020154908701448007800280DD129
:1015100013480078032805DA11480078401C104968
:10152000087010E001200F4908700CE00C480078AA
:10153000002805DD0A480078401E0949087002E0CD
:101540000020084908701AB010BD00006C0000208F
:1015500064000020563D25640A0000006800002059
:1015600065000020660000200548407C80218843FB
:101570000349487400BF00BF00BF00BF00BF7047F1
:10158000201A044008B5C207D20F002A32D000BF8B
:101590002422754B1A71754A127B02231A43734B2E
:1015A0001A73724A4032127B02239A436F4B4033C4
:1015B0001A7300BF01236E4A137100226D4B1A711A
:1015C0006D4A527E520852006B4B5A761A46127E72
:1015D000520852001A761A46527ECB07DB0F1A4386
:1015E000654B5A761A46127E02230B405B081A435B
:1015F000614B1A7602220240002A34D000BF292211
:10160000594B5A71594A527B40231A43574B5A73CC
:10161000564A4032527B40239A43544B40335A73CC
:1016200000BF0123524A13720022524B1A72524ACF
:10163000527E02239A43504B5A761A46127E022358
:101640009A434D4B1A761A46527ECB079B0F1A438C
:10165000494B5A761A46127E02230B405B085B0008
:101660001A43454B1A7604220240002A34D000BFA8
:1016700024223D4B9A713D4A127B02231A433B4B75
:101680001A733A4A4032127B02239A43374B403353
:101690001A7300BF0123364A13730022354B1A73A5
:1016A000354A527E04239A43334B5A761A46127EA9
:1016B00004239A43304B1A761A46527ECB075B0FAF
:1016C0001A432D4B5A761A46127E02230B405B08B2
:1016D0009B001A43284B1A7608220240002A34D075
:1016E00000BF0622204BDA71204A527808231A43A1
:1016F0001E4B5A701D4A4032527808239A431B4BA6
:1017000040335A7000BF0123194A13740022194B49
:101710001A74194A527E08239A43174B5A761A466E
:10172000127E08239A43144B1A761A46527ECB0730
:101730001B0F1A43104B5A761A46127E02230B4097
:101740005B08DB001A430C4B1A760022009205E07E
:1017500000BF6A461278521CD3B200936A461278D0
:10176000012AF5D908BD00006008044020000440AB
:101770000061004000600040205B0440C107C90FC9
:10178000002905D00021124A1171002211490A7165
:1017900002210140002905D000210D4A11720022CA
:1017A0000C490A7204210140002905D00021084A91
:1017B0001173002207490A7308210140002905D04E
:1017C0000021034A1174002202490A747047000084
:1017D0000060004000610040C107C90F002905D02A
:1017E000012212490A710021114A1171022101409E
:1017F000002905D001220D490A7200210C4A1172FC
:1018000004210140002905D0012208490A73002162
:10181000074A117308210140002905D0012203491C
:101820000A740021024A11747047000000610040F0
:101830000060004010B500200E4908770E4800886F
:1018400000280FD00D48006800780D4908720B4839
:101850000068401C0949086007480088401E064986
:10186000088003E001F0EAFD02F068FA0020014977
:10187000087710BD00600040A4010020A0010020F6
:10188000401704401CB500201E4908701E484088BF
:101890004107490F0091684600781B494881684616
:1018A0000078002803D06846007802F041FA174813
:1018B000807A01901648008816490988884218DD08
:1018C0006846007914490968087013480068401C8C
:1018D000114908600F480088401C0E4908800C48D8
:1018E00000880988884208D101F076FD02F025FAC7
:1018F00003E06846007902F022FA002001490870EE
:101900001CBD00002060004040150440401704400A
:10191000AE010020AC010020A801002000200E49EB
:1019200008710E480068401C0C4908600C4800888B
:10193000C007C00F002808D00A48008B401C0121B6
:10194000090440180849086004E00648008B401C60
:101950000549086070470000406000401802002000
:10196000A01D0440001F04400802002000200E4972
:1019700008720E480068401C0C4908600C484088FA
:10198000C007C00F002808D00A48408B401C012126
:10199000090440180849086004E00648408B401CD0
:1019A0000549086070470000406000401C020020AC
:1019B000A01D0440001F04400C02002000200E491E
:1019C00008730E480068401C0C4908600C48808869
:1019D000C007C00F002808D00A488088401C012199
:1019E000090440180849086004E006488088401C43
:1019F0000549086070470000406000402002002058
:101A0000A01D0440601F04401002002000200E4969
:101A100008740E480068401C0C4908600C48C088D7
:101A2000C007C00F002808D00A48C088401C012108
:101A3000090440180849086004E00648C088401CB2
:101A40000549086070470000406000402402002003
:101A5000A01D0440601F04401402002000200E4915
:101A600008730E480068401C0C4908600C48008848
:101A7000C007C00F002808D00A48008B401C012175
:101A8000090440180849086004E00648008B401C1F
:101A9000054908607047000060600040380200207F
:101AA000A0210440002304402802002000200E4909
:101AB00008740E480068401C0C4908600C484088B7
:101AC000C007C00F002808D00A48408B401C0121E5
:101AD000090440180849086004E00648408B401C8F
:101AE0000549086070470000606000403C0200202B
:101AF000A0210440002304402C02002000200E49B5
:101B000008750E480068401C0C4908600C48808825
:101B1000C007C00F002808D00A488088401C012157
:101B2000090440180849086004E006488088401C01
:101B300005490860704700006060004040020020D6
:101B4000A0210440602304403002002000200E4900
:101B500008760E480068401C0C4908600C48C08894
:101B6000C007C00F002808D00A48C088401C0121C7
:101B7000090440180849086004E00648C088401C71
:101B80000549086070470000606000404402002082
:101B9000A0210440602304403402002010B500243A
:101BA00000BF17E062000D4BD21851786200985CBC
:101BB000042200F04FFA00BF600008494018417845
:101BC00001208840C1B206486200044B9A5C8154EF
:101BD00000BF641C022CE5DB10BD0000543F000078
:101BE0007000044070B504460D460448044908607E
:101BF00029462046024A1268904770BDE12B00003A
:101C000098000020F8B506460C4617461D46207879
:101C1000002804D0012807D002281CD111E0002E92
:101C200001D00120207017E0002E07D00220207084
:101C3000002D05D000213846A84701E00020207083
:101C40000AE0002E06D100202070002D02D00121D4
:101C50003846A84700E000BF00BFF8BD1CB500240F
:101C600000BF0CE062000C4BD21851786200985C07
:101C7000012200F0EFF9002008490855641C022CED
:101C8000F0DB002006497D22D2000346009101903E
:101C9000044800F065F91CBD543F00009C00002082
:101CA000A91C000030050020FEB505460E460024A4
:101CB00000BF1DE0144A125D5200144B9A5C144B95
:101CC000D2181278104B1B5D5B00104FDB195F7848
:101CD0000123BB401A40002A01D1012200E000226A
:101CE00010460C4A11190C4B2246FFF78BFF641C5F
:101CF000022CDFDB002009490A22034600910190F3
:101D0000074800F02DF9FEBD583F0000543F000089
:101D1000000004409C000020E51B0000A91C0000FE
:101D20003005002010B5042211460C2000F092F975
:101D300000BF10210148017700BF10BD0000044022
:101D400000BF10210148017300BF704770000440BC
:101D500070B504460D460948844205D10221002091
:101D6000074A1268904707E00648844204D10221DE
:101D70000120034A1268904770BD0000480500200A
:101D8000980000206005002010B5002211467D203B
:101D9000C00100F029FD10BD70B59AB005460E4691
:101DA00056480078012842D155480068642825DA51
:101DB00053480068401C524908600846006864287F
:101DC00012DB50A101A8FEF785FA0446214601A8BE
:101DD00000F010FB49484E494E4A00230091019003
:101DE0004D4800F0BDF883E0444849490A220023E9
:101DF00000910190484800F0B3F879E047A101A8AC
:101E0000FEF768FA0446214601A800F0F3FA022022
:101E10003A49087000203A49086038483C493D4A30
:101E20000023009101903C4800F09AF860E03348AC
:101E30000078022818D13BA101A8FEF74BFA04460E
:101E4000214601A800F0D6FA03202C490870002092
:101E50002B49086029482E49002213460091019021
:101E60002D4800F07DF843E02448007803283FD156
:101E7000234800686321C943884227DD2048006861
:101E8000401E1F490860084600686321C943884214
:101E900012DC29A101A8FEF71DFA0446214601A87B
:101EA00000F0A8FA15481A491A4A00230091019037
:101EB000194800F055F81BE0104815490A22002384
:101EC00000910190144800F04BF811E01CA101A80A
:101ED000FEF700FA0446214601A800F08BFA002024
:101EE00006490870064908600021162001F096F99D
:101EF0000348006800F034FB1AB070BD40000020B9
:101F000044000020756E6C6F636B200A00000000B7
:101F1000991D0000B80B0000F0030020706175737C
:101F2000650A00006C6F636B20736F6674207374B6
:101F30006172740A000000006C6F636B0A0000009D
:101F400073746F700A0000000146034801600020AE
:101F5000024A1060704700004C0200204802002036
:101F6000F8B5044615461E46002C02D006980028F7
:101F700002D10020C043F8BD184F06E03868A042E7
:101F800002D12068386003E03F6838680028F5D146
:101F900000BF13480068804740197141E160A060AC
:101FA00006982061079860610C4F00BF38680028D0
:101FB00002D120603C600DE0E168A0683B689A684F
:101FC000DB68801A994103D2386820603C6001E0E8
:101FD0003F68EBE700BF0020CDE70000480200208B
:101FE0004C0200200246074906E00868904202D1F0
:101FF00013680B6003E0096808680028F5D100BF8A
:10200000002070474802002010B51048046818E00E
:102010000F4800688047A368E268C01A914105D262
:102020000B4800688047A168081A10BD074920685E
:1020300008602069002803D0204622696169904722
:102040002468002CE4D10020EFE7000048020020C3
:102050004C02002070B50C4615460123A340D9B2AE
:102060002A462B0001F040FA070527435F65788C6C
:10207000AA00534B1B5C8B43514E3354504B403B97
:102080001B5C0B434E4E403E33544D4B103B1B5C90
:102090008B434B4E103E3354494B303B1B5C8B43C0
:1020A000474E303E3354464B203B1B5C8B43444EE3
:1020B000203E335482E0424B1B5C8B43404E3354F2
:1020C0003F4B403B1E5C0E431E543D4B103B1E5C81
:1020D0008E431E543A4B303B1B5C0B43384E303E14
:1020E0003354374B203B1E5C8E431E5466E0344B0A
:1020F0001B5C8B43324E3354314B403B1E5C0E43D2
:102100001E542F4B103B1B5C8B432D4E103E335403
:102110002B4B303B1E5C8E431E54294B203B1E5CD8
:102120008E431E544AE0264B1B5C0B43244E335413
:1021300044E0234B1E5C8E431E54214B403B1B5CF2
:102140008B431F4E403E33541D4B103B1B5C8B4357
:102150001B4E103E335431E0194B1B5C8B43184E21
:102160003354174B403B1B5C8B43154E403E33545E
:10217000134B103B1B5C0B43114E103E33541DE0C0
:102180000F4B1B5C8B430E4E33540D4B403B1E5C80
:102190000E431E540A4B103B1B5C8B43084E103EF3
:1021A0003354074B303B1E5C8E431E54044B203B84
:1021B0001B5C0B43024E203E335400BF00BF70BD7A
:1021C00060000440F0B599B004460D4600260BE0CF
:1021D0002278641C0CA16846FEF77CF80746394655
:1021E000684600F007F900BF3046761CA842EFDBD6
:1021F00007A16846FEF76EF807463946684600F0C4
:10220000F9F819B0F0BD0000253032782000000048
:102210000A0000000146044800E000680268002A45
:10222000FBD101607047000050020020F0B599B06A
:1022300006460D46254806600068002801D0002D9E
:1022400002DC002019B0F0BD2148007800283AD106
:102250001E4800680078AA2801D00120F2E7022D6C
:1022600001DA0020EEE7194800684078142801DD03
:102270000120E7E7154800684478601D854201DACF
:102280000020DFE711480168201D085CBB280BD146
:10229000A11C0E480068401CFEF7E3FC0B490A68CD
:1022A000E11C515C884201D00120CBE701200849A4
:1022B000087008A16846FEF70DF8074639466846DB
:1022C00000F098F800BF601DBCE70000300000205F
:1022D0002C000020527848616E646C657220727523
:1022E0006E210A00F8B504460E462078AA2801D0CF
:1022F0000120F8BD022E01DA0020FAE760781428E8
:1023000001DD0120F5E76578681D864201DA0020CD
:10231000EFE7281D205CBB2807D1A91C601CFEF735
:10232000A0FCE91C615C884201D00120E1E7A078B3
:102330008021084000280DD12D48007B04218843CE
:10234000001D2B490873A1782948603001700021D5
:1023500041704AE02648007B8007C00F002844D027
:102360002348024601680420105E0201101A085C2E
:10237000A178884239D1A07850281BD11C4909681E
:102380001B4B0427DF5F3B01DB1BC9184A78184948
:102390000968174B0427DF5F3B01DB1BC918881C4A
:1023A000E11CFEF76BFC002804D00A2110486030C5
:1023B000C1731AE00E48007B022188430C49087360
:1023C00000210B486030C17300BF60388088401C1A
:1023D00000B2074988800A460621515E0420105E3B
:1023E000FEF7FFF80248818000BF681D81E700000A
:1023F0000804002070B505460C4600BF0948008857
:102400000028FBD1012001F043F9A1B2284600F0D9
:10241000E3FE00BF034800880028FBD1012001F043
:1024200037F970BDA401002030B599B00446637837
:1024300022781AA16846FDF74DFF054629466846F1
:10244000FFF7D8FF6178A01CFFF7BCFEAA201B494C
:1024500048736178194881732178C1736278A11C2F
:102460001030FEF773F86078811C14480E30FEF7C8
:10247000F8FB01466078C01C104A0D321154BB2293
:102480006078001D0D490D310A546078411D0B48DC
:102490000D3000F0A1FE19B030BD00004D41494E95
:1024A0002073656E6420636D643A253032782C6C3D
:1024B000656E3A25642C6275663A0A00580200205F
:1024C00030B599B00446637822781AA16846FDF7C2
:1024D00001FF054629466846FFF78CFF6178A01C7E
:1024E000FFF770FEAA201D49487361781B4881736D
:1024F0002178C1736278A11C1030FEF727F860784C
:10250000811C16480E30FEF7ACFB01466078C01CFB
:10251000124A0D321154BB226078001D0F490D3153
:102520000A546078411D0D480D3000F0A1FC19B02F
:1025300030BD000073656E6420746F206F74686531
:1025400072207379732C636D643A253032782C6C69
:10255000656E3A25642C6275663A00000804002016
:1025600070B50446002C05D11749488316496031DF
:10257000888028E000250026642C01DD642404E026
:102580006320C043844200DA0446002C03DBA02011
:102590002546454302E06642A0214E430A48408B4F
:1025A000A84204D1084860308088B0420AD0072091
:1025B00000F012F904494D83034960318E800720F1
:1025C00000F002F900BF70BD0023044010B51448AC
:1025D0000069042108431249086112481249088120
:1025E000124808810120887200BF0D48006904214B
:1025F00008430B49086130BF00BF0A480A490881F7
:102600000A4808810020887205480069042188432F
:1026100003490861FEF7B2FE05480649C86110BDCE
:1026200000ED00E02A190000000402404F3E0000C7
:10263000102700009005002010B59AB00CA101A849
:10264000FDF748FE0446214601A8FFF7D3FE01200E
:102650000C49087000200C4908600A480B49002208
:102660001346009101900A48FFF77AFC1AB010BD9A
:10267000756E6C6F636B20736F6674207374617218
:10268000740A00004000002044000020991D000052
:10269000F003002070B500F045F87D21C9000E4818
:1026A0000068FDF794FF05462C46601E0B498842E2
:1026B00000D90CE0601E0A4948610321081F00F0A0
:1026C00045FF0020064988610720086100BF0548D2
:1026D000FFF73AFC70BD000054020020FFFFFF002E
:1026E00000E000E0191400000348006940084000C1
:1026F000014908617047000000E000E007480068F9
:10270000401E064908600648026840680021521CC5
:10271000484103490A6048607047000018000020E3
:102720001000002000B5FEF7C9FA0149086000BD9D
:102730005402002000B580201B4948711A201A4914
:10274000203908732B2048733C2088734D20C873B0
:10275000002016494860FEF7B1FA154908600020CC
:10276000C0431449086014490860144814490860BB
:10277000114903221202891848600F49891888609C
:102780000D498918C8600C49891808610A498918D7
:10279000486109498918886107498918C861AC20CE
:1027A0000849487000BD00002004024000B001400C
:1027B0005402002080E200E000E100E0C0C0C0C0A0
:1027C00000E400E0001002400249498A0143014A46
:1027D00051827047A02104400249898A0143014A7D
:1027E00091827047A021044030B505460B4614463F
:1027F00050480078022108434E49087000204E4995
:10280000C8824E484C4920390882681E4C490883CA
:102810004948008B40084000474908830846408BE0
:10282000400840004883474843492039488244488B
:1028300043834148C08B022108433F49C88308466F
:10284000808B022188433C4988830846008B022103
:102850008843394908830846408B0221084336499A
:10286000488300BF02203849487238484078022126
:1028700088433649487035482030407802218843E3
:1028800032492031487031484030407C0221884331
:102890002E49403148742D486030407802218843E9
:1028A0002A496031487000BF264823492039888270
:1028B0002348603084802048C08B042108431E498F
:1028C000C8830846808B042188431B4988830846B7
:1028D000008B04218843184908830846408B042153
:1028E00008431549488300BF0320174988741748D7
:1028F00080780421884315498870144820308078F6
:102900000421884311492031887010484030807C70
:10291000042188430D49403188740C486030807828
:102920000421884309496031887000BF0720FFF700
:102930004BFF30BD20040240A02104400180000074
:102940000023044009840000000804400000044003
:1029500070B505460C469C480078022108439A4908
:10296000087003209949C8822846FFF735FF012DDA
:1029700006D0022D41D0042D7ED0082D7DD1D2E08D
:102980000020934908731B2000F0D4FD00208F49DC
:1029900020390882601E8F4908838C48008B4008CC
:1029A00040008A4908830846408B01210843874933
:1029B000488300BF01208849087388484078102167
:1029C00088438649487085482030407810218843E4
:1029D00082492031487081484030407C1021884332
:1029E0007E49403148747D486030407810218843EA
:1029F0007A496031487000BFE0E0002074490874F3
:102A00001C2000F097FD0020704920394882601E8C
:102A1000704948836D48C08B022188436B49C88345
:102A20000846808B02218843684988830846008BCA
:102A300002218843654908830846408B02210843E8
:102A40006249488300BF0220634948726348407866
:102A50000221884361494870604820304078022153
:102A600088435E49203148705C484030407C0221F8
:102A700088435A49403101E00BE09EE048745748D2
:102A8000603040780221884354496031487000BF6B
:102A900094E000204E4908751D2000F04BFD0020F9
:102AA0004A4920398882601E4A49603188804748F7
:102AB000C08B042188434549C8830846808B042184
:102AC0008843424988830846008B042188433F4954
:102AD00008830846408B042108433C49488300BFD3
:102AE00003203D4988743D488078042188433B4950
:102AF00088703A4820308078042188433749203153
:102B0000887036484030807C042188433349403106
:102B10008874324860308078042188432F496031BE
:102B2000887000BF4AE00020294908761E2000F086
:102B300001FD002025492039C882601E25496031E9
:102B4000C8802248C08B082188432049C883084692
:102B5000808B082188431D4988830846008B082103
:102B600088431A4908830846408B082108431749BF
:102B7000488300BF0420184988721848407804210F
:102B8000884316494870154820304078042188430E
:102B900012492031487011484030407C042188435C
:102BA0000E49403148740D48603040780421884314
:102BB0000A496031487000BF00E000BF00BF2846EE
:102BC000FFF702FE70BD000020040240A021044077
:102BD00060600040002304400008044000000440FE
:102BE0003EB504460D4627A000680290012D17D17E
:102BF000002C0BD124480069002807D02248FFF799
:102C0000F1F9012102A800F009FB3AE0012C38D1CA
:102C10001E480069002834D01C48FFF7E3F930E073
:102C2000002D17D1002C09D100201949194A03465B
:102C3000009101901448FFF793F922E0012C20D174
:102C400000201349134A0346009101900F48FFF7F3
:102C500087F916E0022D14D1002C08D100200A4972
:102C60000861012102A8013000F0D8FA09E0012C26
:102C700007D1012102A8023000F0D0FA0020034958
:102C800008613EBD0C1009004805002060050020C9
:102C9000511D0000B80B00000449087400BF04492E
:102CA0000988602211400029F9D1704700130440BF
:102CB00000110440F8B505460E466A4631462846DE
:102CC00000F016FB0446002C16D10C200B4988801E
:102CD00068460078C880684640784006000C08497D
:102CE0008880684640784006000CC88003484088C9
:102CF0000C210843014948802046F8BD20110440BA
:102D00004013044070B505460E4643480078042140
:102D1000084341490870414880880C2108433F49D5
:102D2000888001213E4801750176017700203D49E8
:102D300008750876087722203849203988823A4871
:102D4000888367204002394988803948007C042103
:102D5000084337490874072030492039C881FF20CB
:102D60002330C8823348C883672040022F49C88077
:102D70002A48008904210843284908810846808A96
:102D80002D49084025498882084640890421084386
:102D90002249488100BF0A20284908732848407802
:102DA00010210843264948702548203040781021DA
:102DB000884323492031487021484030407C10210D
:102DC00088431F49403148741D48603040781021C5
:102DD00088431B496031487000BF00BF0620174977
:102DE0006031C873164820304078082108431449E0
:102DF00020314870124860304078082188431049DB
:102E00006031487000BF31462846FFF753FF044643
:102E100000F050F8204670BD20040240201104400C
:102E20002061004020600040978000004013044073
:102E30006004044097400000FBFF000000080440CD
:102E40000000044010B502460020002901D1812075
:102E500006E00023034C2380034B1980034B1A60C8
:102E600010BD000054010020560100205001002038
:102E700010B502460020002901D1812012E00A4B42
:102E80001A600A4B1980084B1B681B78084C237189
:102E9000054B1B685B1C044C2360044B1B885B1EAA
:102EA000024C238010BD0000480100204C0100208E
:102EB0004013044010B510480089042108430E490E
:102EC000088108464089042108430B494881084687
:102ED00040880C21084308494880002007490875AC
:102EE00008760D2000F01AFB0E2000F017FB0021E1
:102EF00003480175017610BD201104402060004098
:102F00002061004001210A48017501760948808846
:102F10000C21084307498880084640890649084033
:102F2000044948810020054908750876704700006B
:102F30002061004020110440FBFF000020600040A1
:102F4000F8B505460E466A463146284600F0D0F9E7
:102F50000446002C16D103200B498880684600786F
:102F6000C880684640784006000C084908816846D9
:102F700040784006000C48810348408803210843FC
:102F8000014948802046F8BD6015044040170440C0
:102F900070B505460E464548007808210843434968
:102FA00008704348808803210843414988800121F3
:102FB000404801773F4820300170017100203E49B0
:102FC00008773D492031087008712220384920399E
:102FD00008823A4808836720400239490881394805
:102FE000007C1021084337490874072030492039F4
:102FF0004881FF20233048823348488367204002BD
:103000002F4948812A48008901210843284908811D
:103010000846808A2D49084025498882084640890B
:10302000012108432249488100BF062028498870B1
:103030002848007B0421084326490873254820308E
:10304000007B042188432349203108732148403004
:10305000007F042188431F49403108771D486030B4
:10306000007B042188431B496031087300BF00BF07
:10307000242017492031C87216482030007B0221D5
:10308000084314492031087312486030007B022144
:10309000884310496031087300BF31462846FFF766
:1030A0004FFF044600F0D6F8204670BD20040240D1
:1030B00060150440006100400060004097800000FF
:1030C000401704406004044097400000FEFF0000E9
:1030D000400804400000044010B5024600200029CA
:1030E00001D1812006E00023034C2380034B19808B
:1030F000034B1A6010BD0000AC010020AE0100209F
:10310000A801002010B59AB025480078012844D1C4
:1031100024480068437823480068827822A101A8E7
:10312000FDF7D8F80446214601A8FFF763F91D48CA
:10313000006841781B480068C01CFFF743F8194835
:103140000068807817280BD11FA101A8FDF7C2F8ED
:103150000446214601A8FFF74DF9FFF76DFA19E083
:10316000104800688078182803D1C820FDF75EFD5C
:1031700010E00C48006880781A2803D10020154917
:10318000087007E0074800688078192802D10120FC
:10319000104908700020024908701AB010BD0000E4
:1031A0002C000020300000204D41494E2072656304
:1031B0007620636D643A253032782C6C656E3A2542
:1031C000642C6275663A0A00554E4C4F434B210AF7
:1031D00000000000B800002010B5024600200029C1
:1031E00001D1812012E00A4B1A600A4B1980084B6A
:1031F0001B681B78084C2372054B1B685B1C044C36
:103200002360044B1B885B1E024C238010BD000012
:10321000A0010020A40100204017044070B505461D
:103220000E460024002D01D0002E00DC70BD0C20C5
:10323000FCF7F8FF0446002C00D1F7E76670287809
:1032400020702046FFF7F0F82046FDF71CF800BF7D
:10325000ECE7000010B5124800890121084310492D
:10326000088108464089012108430D4948810846E4
:103270004088032108430A4948800020094908770B
:10328000084920310870072000F048F9082000F0B4
:1032900045F900210448017703482030017010BD32
:1032A00060150440006000400061004001210C48AE
:1032B00001770B48203001700A48808803210843B9
:1032C00008498880084640890749084005494881DF
:1032D0000020064908770549203108707047000032
:1032E0000061004060150440FEFF000000600040E7
:1032F000F7B584B016468020039000242BE06000D0
:10330000174A115A0498FDF762F9019002251EE050
:10331000691C0198FDF75BF941080291114A029975
:10332000514308460599FDF752F90E49471A381ED0
:1033300001DB014600E04142142906DA3470757061
:1033400000200390039807B0F0BD681CC5B2802D23
:10335000DEDB601CC4B2102CD1DB0398F3E7000065
:103360005A3F00001027000010B5144A3621515E64
:103370003823D35E581CFDF734F910483422825E9E
:10338000914216D000BF0E4801780C483822825E68
:10339000008F401C03B209480387006B8154074A21
:1033A0003621515E3820105EFDF71BF90348018776
:1033B00000BF01210248FFF745FD10BD08040020B1
:1033C000480000200348007B400840000149087382
:1033D000704700000804002010B5164A3621515EDF
:1033E0003823D35E581CFDF7FCF812483422825E65
:1033F000914216D000BF104801780E483822825EF4
:10340000008F401C03B20B480387006B8154094AAC
:103410003621515E3820105EFDF7E3F8054801873C
:1034200000BF01210448FFF757FE01210248FFF7C2
:10343000D3FE10BD580200201C0000200348007B72
:1034400040084000014908737047000058020020FE
:103450007CB504460D4611480078002811D00220A2
:10346000FEF78CF90E48006800280DD000200C49AA
:1034700008600CA000680190012101A8FFF7CEFEB2
:1034800002E00220FEF7A8F9002007490A220346BD
:10349000009101900548FEF763FD7CBDB800002057
:1034A000E40000200A0000005134000078050020EC
:1034B0001CB503210220FEF765F8002004490A220A
:1034C0000346009101900348FEF74AFD1CBD000031
:1034D000513400007805002070470000AC200149FD
:1034E000487070470010024030B47446641E25785E
:1034F000641CAB4204D3635D5B00E31830BC184727
:103500001D46F8E7002805DBC206D20E01219140D6
:10351000014A11607047000080E200E0002805DBEE
:10352000C206D20E01219140014A1160704700008D
:1035300080E200E0002805DBC206D20E01219140A6
:10354000014A11607047000080E200E010B50028D9
:1035500019DB1A4A03231B02D21883089B00D25896
:103560008307DC0EFF23A3409A438B071B0E8407BF
:10357000E40EA3401A43114B032424021B198408B0
:10358000A4001A5118E00E4A03071B0F083B9B08C2
:103590009B00D2588307DC0EFF23A3409A438B077E
:1035A0001B0E8407E40EA3401A43054B0407240FA7
:1035B000083CA408A4001A5110BD000000E100E07E
:1035C0001CED00E030380A2801D2012070470020AD
:1035D00070470000002803D00449054A116202E048
:1035E0000121034A116200BFFEE70000AD0B00009D
:1035F0000080024010B50446E0B2FFF74DFB10BD5D
:1036000070B50446084B0C229A5E08269E5F911BFB
:103610009A89121B12B23C235A431046FCF7E1FF71
:10362000193005B2284670BD6006500010B5002064
:10363000114908751148C07B114909680870104884
:103640000068401C0E4908600C48C0890D49096893
:1036500008800C480068801C0A4908600A48006815
:10366000401C094908600549C98908B2FFF7C8FF2D
:103670000649088010BD0000406000400050044032
:10368000BC000020C0000020C4000020C8000020B2
:103690000349086000BF024909680029FBD170474F
:1036A00018000020704700000848007C01210843F2
:1036B0000649087400BF0648407CC007C00F0028B8
:1036C000F9D001200349087070470000201A044017
:1036D000401B0440DF0000200848007C0121084313
:1036E0000649087400BF0648407CC007C00F002888
:1036F000F9D001200349087070470000201A0440E7
:10370000401B0440DE0000200349097C20221143B5
:10371000014A117470470000201A04400120014939
:1037200008707047DF0000200120014908707047D1
:10373000DE00002010B5002007490870FDF714FFD7
:103740000648407C80210840802802D100F008F81B
:1037500001E000F0D3F810BD40600040401B044081
:1037600010B55E48807C40210840002807D15C48A5
:103770000088002803D00120FFF794FFACE05948EF
:10378000007880210840002844D15448407C04211E
:10379000084000283AD05348007880210843514916
:1037A00008704E48407C0821084000281BD04E4835
:1037B000007C08434C4908744948008800280FD011
:1037C0004A48006800784549087448480068401C29
:1037D0004649086042480088401E414908807BE015
:1037E000FFF77AFF78E04048007C042108433E4917
:1037F00008740846007C082188433B490874084641
:10380000007C202108433849087465E00220FFF756
:1038100049FF61E03148407C08210840002824D05D
:103820002E48407C04210840002807D12C480088FD
:10383000002803D00220FFF735FF4DE0284800881C
:1038400000280FD0294800680078244908742748C8
:103850000068401C2549086021480088401E204916
:10386000088039E0FFF738FF36E021480088214919
:10387000098888422EDA1948007C1F4909680870B7
:103880001D480068401C1C49086019480088401CFD
:10389000174908800846008816490988884212D1CD
:1038A0001148007C042188430F4908740846007CB5
:1038B000202108430C4908740846007C082108436D
:1038C0000949087408E00848007C2021084306499B
:1038D000087401E0FFF7E8FE10BD0000401B044043
:1038E000DC000020CC000020201A0440D80000207A
:1038F000D6000020D4000020D000002010B577486A
:10390000407CC007C00F00281FD07548007C1021E4
:103910008843734908747348007880210840002860
:103920000FD07048007804210840002801D0FFF72C
:10393000FBFE6C48007802210840002801D0FFF708
:10394000EDFE012067490870C6E0664800788021D6
:10395000084000284CD16148407C102108400028D4
:1039600042D05F48007C08435D49087480205D496F
:1039700008705A48407C08210840002821D0584847
:10398000007C0843564908745748008800280FD027
:103990005648006800785149087454480068401C33
:1039A0005249086050480088401E4F49088093E003
:1039B000FFF7BAFE4A48007C2021084348490874B2
:1039C0008AE04748007C04210843454908740846BA
:1039D000007C08218843424908740846007C202165
:1039E00008433F49087477E08020FFF78DFE73E0BD
:1039F0003A48407C08210840002830D039480078F7
:103A000004210843374908703448407C04210840A9
:103A1000002807D134480088002803D00220FFF78F
:103A200073FE59E03048008800280FD02F48006806
:103A300000782A4908742D480068401C2B4908600A
:103A400029480088401E2849088045E0FFF76CFEA1
:103A50002348007C20210843214908743CE0214888
:103A60000078022108431F49087021480088214935
:103A7000098888422ADA1948007C1F4909680870B9
:103A80001D480068401C1C49086019480088401CFB
:103A900017490880084600881649098888420ED1CF
:103AA0000F48007C082108430D4908740846007C33
:103AB000202108430A490874FFF730FE0CE008484B
:103AC000007C202108430649087405E00448007C76
:103AD000202108430249087410BD0000401B044027
:103AE000201A0440CD000020DC000020D800002077
:103AF000D6000020D4000020D0000020024800683A
:103B0000401C014908607047E0000020024800683E
:103B1000401C014908607047E4000020024800682A
:103B2000401C014908607047E80000200248006816
:103B3000401C014908607047EC00002010B50020CF
:103B400002490871FFF7DAFF10BD00000060004075
:103B500010B5002002490872FFF7D8FF10BD000021
:103B60000060004010B5002002490873FFF7D6FF3F
:103B700010BD00000060004010B50020024908742C
:103B8000FFF7D4FF10BD0000006000400020014995
:103B900008767047006000409AB01948FEF73AFB7B
:103BA0001848FEF737FB1848FEF734FB1748FEF7B6
:103BB00031FB1748FEF72EFB1648FEF72BFB164885
:103BC000FEF728FB1548FEF725FB1548FEF722FBFC
:103BD0001448FEF71FFB1448144988611448C86153
:103BE000FDF7CCFB13A101A8FCF774FB04462146AA
:103BF00001A8FEF7FFFB01E0FEF706FAFCE7000074
:103C00000000002034000020200000204C00002094
:103C1000AC000020A00000207C0000208C000020D0
:103C20007000002058000020CD25000090050020E5
:103C30001027000064657669636520696E697420E9
:103C400066696E6973680A00704710B5FFF78CFBF0
:103C500010BD7047704700001CB500201B49087656
:103C60001B48C0884107490F0091684600781849F1
:103C7000C88168460078002803D068460078FFF7BE
:103C8000E3FF14488079019013480088134909889C
:103C9000884216DD684600791149096808701048A5
:103CA0000068401C0E4908600C480088401C0B4905
:103CB0000880094800880988884206D1FFF7C5FFB7
:103CC00003E068460079FFF7C5FF1CBD2060004097
:103CD000001104404013044056010020540100200C
:103CE0005001002010B500200D4908750D480088CE
:103CF00000280FD00C48006800780C4908710A4869
:103D00000068401C0849086006480088401E0549B4
:103D1000088003E0FFF79DFFFFF754FB10BD000094
:103D2000206000404C010020480100204013044066
:103D300010B50446FDF75AF810BD7047704770473C
:103D400010B5FFF7CBFB03480068401C0149086031
:103D500010BD00000402002001460820334AD06054
:103D6000F120106255205060AA2090600020C043CE
:103D7000086000BF2D480068C007C00F0028F9D0B8
:103D80002A48006801221043284A10600020D060B1
:103D9000704701461020254AD060F120106255205E
:103DA0005060AA2090600020C043086000BF1F48F8
:103DB0000068C007C00F0028F9D01C480068012225
:103DC00010431A4A10600020D0601062104600684C
:103DD00004221040002801D0012070470020FCE799
:103DE00070B503461D46F120104E3062002416E0E7
:103DF000AA200E4E70605520B06010782870521CBA
:103E00006D1C00BF09480068C007C00F0028F9D02A
:103E10000648006801263043044E3060641C8C4222
:103E2000E6D30020014E306270BD00000000024069
:103E30000020474908777047F7B5FFB089B00646BC
:103E40000F4600208790012005904002874205D947
:103E50008020879087987FB00CB0F0BD0396002437
:103E60000CE00398007886900398401C0390869895
:103E7000FF2801D000200590601C84B2BC42F0D322
:103E80000598002805D0394630468A9AFFF7A8FFE2
:103E90005BE0750AF119681C4002814202D90120D9
:103EA000049001E000200490700A40020290F005A6
:103EB000C00D0190049800280FD0002408E002985B
:103EC000007806A908550298401C0290601C84B234
:103ED000012080028442F2DB0EE0002408E0029818
:103EE000007806A908550298401C0290601C84B214
:103EF000012040028442F2DB00240AE08A98017823
:103F00000198001906AA11548A98401C8A90601CD6
:103F100084B2BC42F2D3049800280DD06802FFF7A7
:103F200038FF691C4802FFF734FF680206AA012126
:103F30008902FFF755FF08E06802FFF72AFF6802D1
:103F400006AA01214902FFF74BFF879883E700008B
:103F50006060004001000201000101000200040055
:103F60000800100020004000800000010002000452
:103F7000000800100020004000803031323334351A
:103F80003637383941424344454640305800303195
:103F900032333435363738396162636465664030B0
:103FA000780004000008000000000000000200018A
:103FB00000001000D43F0000000000205802000064
:103FC000100A00002040000058020020B80800003D
:103FD00008010000412395261AE904011823ED0D7C
:103FE000E3350F0316891D23910E5A4B2C23990B91
:103FF000A3290C6378059AA9141AB95C1AE1047212
:1040000001235D1CE39D1B1A256C5A417023B134BA
:104010001AD904011002FF1901309AFF010154005E
:04000005000000C532
:00000001FF
