:020000040000FA
:100000002808002095010000352000009F01000015
:1000100000000000000000000000000000000000E0
:10002000000000000000000000000000A701000028
:100030000000000000000000AB010000C11400003F
:10004000AF010000291F00003D1F0000511F0000EC
:10005000651F0000B9010000791F0000810D00003C
:10006000D10D0000C1010000E51F0000C501000026
:10007000C7010000C9010000CB010000CD01000054
:10008000211B0000D1010000D3010000D5010000B8
:10009000D70100002D1A0000DB010000DD01000087
:1000A000DF010000E1010000E3010000E5010000C4
:1000B000E7010000E9010000EB010000252100003C
:1000C000EFFFEAFF00F002F800F038F80CA030C8AB
:1000D000083824182D18A246671EAB4654465D46C4
:1000E000AC4201D100F02AF87E460F3E0FCCB64656
:1000F0000126334200D0FB1AA246AB4633431847D1
:100100008C210000AC2100000023002400250026E3
:10011000103A01D378C1FBD8520700D330C100D5C3
:100120000B60704710B5642902D100F089F810BD4A
:10013000002010BD1FB51FBD10B510BD00F0B7FAEF
:100140001146FFF7F7FF01F01DFF00F0CFFA03B4EF
:10015000FFF7F2FF03BC01F043FC000070B5054659
:100160000C46164602E00FCC0FC5103E102EFAD2F8
:10017000082E02D303CC03C5083E042E07D301CCBE
:1001800001C5361F03E021782970641C6D1C761EA2
:10019000F9D270BD1948804719480047FEE7FEE7CD
:1001A000FEE7FEE7FEE7FEE7FEE7FEE7FEE7FEE727
:1001B000FEE7FEE7FEE7FEE7FEE7FEE7FEE7FEE717
:1001C000FEE7FEE7FEE7FEE7FEE7FEE7FEE7FEE707
:1001D000FEE7FEE7FEE7FEE7FEE7FEE7FEE7FEE7F7
:1001E000FEE7FEE7FEE7FEE7FEE7FEE7FEE70000CC
:1001F00004480549054A064B70470000F914000001
:10020000C500000028030020280800202804002042
:10021000280400200FB41CB5084B06AA7B4469468D
:100220000090059800F017FA04460020694600F097
:1002300025FA20461CBC08BC04B018475D04000029
:10024000F7B5002575291068009914A611D0C0468D
:10025000C046002802DA404211A608E00099096869
:100260008A0701D50FA602E0490704D50EA601258D
:1002700001E0C046C046009F0024243704E000F09F
:1002800002FA30313955641C0028F8D12B46324629
:100290002146009800F082F9FEBD00000000000039
:1002A0002D0000002B00000020000000F3B50446E4
:1002B000002081B020622046E168884700287AD07B
:1002C000252802D06268A16871E0E1682046002517
:1002D000884706460020E0610746A0612A2E0AD022
:1002E000304601F075FB002827D0B8000019303ED9
:1002F0000090866119E00298BA00121902C8916153
:1003000002902046E1688847012F064617D1E06930
:1003100000281FDA202085431CE000980A2180690C
:10032000484300998019303888612046E168884741
:10033000064601F04DFB0028EFD1012F0AD02E2EEA
:1003400008D12046E16888470646202005437F1CE7
:10035000022FC3DBA069002803DA4042A06101201C
:100360000543E80701D010208543002E23D03046F6
:100370004138192803D80120C00205432036204601
:1003800025603146029A1546FFF7CCFE00280BD0B7
:10039000012806D0ED1DE808C000083002908AE769
:1003A00009E02D1D029586E762683046A1689047F6
:1003B000206A401C7EE7206AFEBDF8B5042A2CD3D3
:1003C000830712D00B78491C0370401C521E830710
:1003D0000BD00B78491C0370401C521E830704D0BD
:1003E0000B78491C0370401C521E8B079B0F05D0D5
:1003F000C91ADF002023DE1B08C90AE0FFF7AEFEA2
:10040000F8BD1D4608C9FD401C46B4402C4310C031
:10041000121F042AF5D2F308C91A521EF0D40B7821
:10042000491C0370401C521EEAD40B78491C03700F
:10043000401C012AE4D409780170F8BD00220309A8
:100440008B422CD3030A8B4211D300239C464EE0EF
:1004500003460B433CD4002243088B4231D30309AB
:100460008B421CD3030A8B4201D394463FE0C3095D
:100470008B4201D3CB01C01A524183098B4201D375
:100480008B01C01A524143098B4201D34B01C01A60
:10049000524103098B4201D30B01C01A5241C308D8
:1004A0008B4201D3CB00C01A524183088B4201D347
:1004B0008B00C01A524143088B4201D34B00C01A33
:1004C0005241411A00D201465241104670475DE048
:1004D000CA0F00D04942031000D3404253400022CB
:1004E0009C4603098B422DD3030A8B4212D3FC2274
:1004F000890112BA030A8B420CD3890192118B42F3
:1005000008D3890192118B4204D389013AD0921108
:1005100000E08909C3098B4201D3CB01C01A5241C3
:1005200083098B4201D38B01C01A524143098B428C
:1005300001D34B01C01A524103098B4201D30B0175
:10054000C01A5241C3088B4201D3CB00C01A52419A
:1005500083088B4201D38B00C01A5241D9D2430881
:100560008B4201D34B00C01A5241411A00D20146BE
:10057000634652415B10104601D34042002B00D528
:100580004942704763465B1000D3404201B50020EA
:10059000C046C04602BD704770477047FFB504466D
:1005A0000D4681B0243000902168880604D51022C1
:1005B000E0699143216000E00120A84201DD471B72
:1005C00000E000270498A1697A191018081AA061A0
:1005D0002078C00602D42046C046C046002608E067
:1005E00003986268A168805D9047206A401C761C71
:1005F000206204988642F3DB2078C0060AD52046A4
:10060000C046C04606E06268A16830209047206A74
:10061000401C206238467F1E0028F4DC07E000986A
:100620006268A168405D9047206A401C20622846AD
:100630006D1E0028F3DC2046C046C0462078000628
:1006400002D5022005B0F0BD0120FBE701694A1C7C
:1006500002610878704700B58FB0029100210591C2
:100660000549019379440391114604906846FFF7C8
:100670001DFE0FB000BD0000E5FFFFFF0A6810700F
:10068000521C0A60704701468008081A02091018B7
:10069000020A1018020C1018C0088200121852002A
:1006A000891A01E0401C0A390A29FBD270477546B5
:1006B00000F024F8AE46050069465346C008C00065
:1006C000854618B020B5FFF793FD60BC00274908A8
:1006D000B6460026C0C5C0C5C0C5C0C5C0C5C0C5DA
:1006E000C0C5C0C5403D49008D46704710B50446A1
:1006F000C046C0462046FFF72AFD10BD004870479F
:10070000C802002070B58C180578401C6B075B0F81
:1007100001D10378401C2A1106D10278401C03E065
:100720000678401C0E70491C5B1EF9D12B0705D4BE
:100730000023521E0DD40B70491CFAE70378401CAD
:10074000CB1A921C03E01D780D70491C5B1C521ED5
:10075000F9D5A142D8D3002070BD10B502460B4692
:100760000021002000BF02E0545C6040491C994217
:10077000FADB10BD00B5C0229178F8221140144A6E
:100780001278114313480A46E03A130001F0CAF800
:100790000E0A0E12161A1E1E1E080C1014181C1E0D
:1007A0000D4813E00D4811E00D480FE00D480DE035
:1007B0000D480BE00D4809E00D4807E00D4805E045
:1007C0000D4803E00D4801E00D4800BF00BF00BD2B
:1007D000201C024040420F000090D003006CDC025D
:1007E0000048E80100366E010024F400001BB70049
:1007F00000127A00808D5B0000093D00C0C62D000C
:1008000080841E001CB500F06FFE4B21C9011F48FB
:10081000006800F0E3FE01211D4800F083FF00BFE7
:100820001C481D4908600020088188800520C88078
:1008300000BF0846007B4008400008730846007B64
:1008400002218843144908730846007B0421884329
:100850001149087300BF1148086300210E48018741
:1008600081862021C18600BF00200B49C865002178
:10087000094860300173002009490A2203460091AB
:100880000190084800F0E0FB1CBD00009001002032
:100890001C000020080200209801002044020020D3
:1008A000B10800006802002010B500F09FFF10BDE5
:1008B0007CB504460D4627E000BF6E48016B34222C
:1008C000825E895CC26D3C30815400BF3C38808EB2
:1008D000401C01B26748818602463621515E3420B1
:1008E000105EFFF7B5FD6348818600BF00BFC06D95
:1008F000401C6049C86500205F49604A034600917A
:1009000001905F4800F0A0FB5A48C06D202806DA2D
:1009100058483421415E3822825E9142CCD15548FC
:10092000007B4007C00F002806D1524A5C321146B6
:100930002039544800F0BCF84E48007BC007C00F77
:10094000002815D14B48007B4007C00F002810D06D
:100950004848007B04218843464908730846007BC9
:1009600040084000401C08730846603000F014FD49
:1009700076E04048007B8007C00F002853D03D48F8
:100980006030007B401C41B23A4860300173007B0C
:100990000A2809D037486030007B142804D0354835
:1009A0006030007B1E285BD13248007B400840004D
:1009B000401C304908730B460A680421595E0C2319
:1009C0005943501800F0E8FC2A4860300C21415689
:1009D0001E2945DB002101736038007B022188431A
:1009E0002449087300BF08468088401C00B28880F4
:1009F0000A460621515E0420105EFFF729FD1D48BE
:100A0000818000BF01460420085E08228A5E904271
:100A100026D100201849194A034600910190184830
:100A200000F012FB1CE013490420085E08228A5ED5
:100A3000904215D00846007B40084000401C0873D7
:100A40000846007B02218843801C0A4908730B4634
:100A50000A680421595E0C235943501800F09CFC8D
:100A6000002009490A22034600910190074800F03E
:100A7000EBFA7CBD980100204D1400001027000007
:100A8000A80200205D130000B108000068020020E9
:100A900010B50648046805E06068002801D0606869
:100AA00080472468002CF7D110BD00008C01002085
:100AB000F7B582B00E4615460027002001900024AD
:100AC0000BE02A68111B3019029A90470190019897
:100AD000002800DC04E0019824182868A042F0DC1B
:100AE00000BF002C0BDD2868001B2860002703E0F6
:100AF0003819305CF0557F1C2868B842F8DC05B026
:100B0000F0BD0000014903C970470000100000203B
:100B10000548407C802188430349487400BF00BFDA
:100B200000BF00BF00BF7047201A044008B5C207CD
:100B3000D20F002A32D000BF0422754B1A71754AB9
:100B4000527802231A43734B5A70724A40325278D9
:100B500002239A436F4B40335A7000BF01236E4A01
:100B6000137100226D4B1A716D4A527E5208520069
:100B70006B4B5A761A46127E520852001A761A4663
:100B8000527ECB07DB0F1A43654B5A761A46127E0C
:100B900002230B405B081A43614B1A760222024083
:100BA000002A34D000BF0522594B5A71594A527855
:100BB00004231A43574B5A70564A40325278042342
:100BC0009A43544B40335A7000BF0123524A137268
:100BD0000022524B1A72524A527E02239A43504BC1
:100BE0005A761A46127E02239A434D4B1A761A46BB
:100BF000527ECB079B0F1A43494B5A761A46127EF8
:100C000002230B405B085B001A43454B1A76042213
:100C10000240002A34D000BF18223D4B9A713D4A51
:100C2000527902231A433B4B5A713A4A4032527965
:100C300002239A43374B40335A7100BF0123364A8F
:100C400013730022354B1A73354A527E04239A439C
:100C5000334B5A761A46127E04239A43304B1A7647
:100C60001A46527ECB075B0F1A432D4B5A761A4613
:100C7000127E02230B405B089B001A43284B1A7616
:100C800008220240002A34D000BF1322204BDA7120
:100C9000204AD27801231A431E4BDA701D4A403293
:100CA000D278520852001B4B4033DA7000BF012348
:100CB000194A13740022194B1A74194A527E0823D8
:100CC0009A43174B5A761A46127E08239A43144BBE
:100CD0001A761A46527ECB071B0F1A43104B5A76D0
:100CE0001A46127E02230B405B08DB001A430C4BB2
:100CF0001A760022009205E000BF6A461278521C64
:100D0000D3B200936A461278012AF5D908BD0000D3
:100D10006008044020000440006100400060004082
:100D2000205B0440C107C90F002905D00021124AE9
:100D30001171002211490A7102210140002905D0D8
:100D400000210D4A117200220C490A72042101404F
:100D5000002905D00021084A1173002207490A73AF
:100D600008210140002905D00021034A1174002206
:100D700002490A74704700000060004000610040B2
:100D800010B500200E4908770E48008800280FD0C3
:100D90000D48006800780D4908720B480068401C37
:100DA0000949086007480088401E0649088003E09A
:100DB00000F0A8FD01F03CF900200149087710BDC2
:100DC00000600040200100201C010020401704406A
:100DD0001CB500201E4908701E4840884107490F75
:100DE0000091684600781B494881684600780028D1
:100DF00003D06846007801F019F91748807A01900D
:100E00001648008816490988884218DD6846007926
:100E100014490968087013480068401C11490860AB
:100E20000F480088401C0E4908800C48008809883B
:100E3000884208D100F038FD01F0F9F803E0684677
:100E4000007901F0F6F80020014908701CBD00008F
:100E50002060004040150440401704402A01002053
:100E6000280100202401002010B5002400BF17E055
:100E70006200144BD21851786200985C042200F092
:100E80004BF900BF60000F494018417801208840AD
:100E9000C1B20D4862000B4B9A5C815400BF641CC8
:100EA0000C2CE5DB01210846FFF740FE0120FFF78F
:100EB00039FF01210220FFF739FE0220FFF732FF40
:100EC00010BD000048220000700004407CB50446BC
:100ED0000D462946204600F009FA00200449054A3B
:100EE000034600910190044800F0AEF87CBD00007C
:100EF0004D14000010270000A8020020F8B5064697
:100F00000C4617461D462078002804D0012807D03B
:100F100002281CD111E0002E01D00120207017E022
:100F2000002E07D002202070002D05D00021384669
:100F3000A84701E0002020700AE0002E06D1002022
:100F40002070002D02D001213846A84700E000BFE4
:100F500000BFF8BD1CB5002400BF0CE06200104BC0
:100F6000D21851786200985C012200F0D5F8002078
:100F70000C490855641C0C2CF0DB00200A49024681
:100F8000034600910190094800F05EF800200849EE
:100F9000084A034600910190074800F055F81CBD2F
:100FA0004822000098020020BD0F000080020020AF
:100FB0004D14000010270000A8020020FEB50546D1
:100FC0000E46002400BF1DE0144A125D5200144B6F
:100FD0009A5C144BD2181278104B1B5D5B00104FBB
:100FE000DB195F780123BB401A40002A01D101229E
:100FF00000E0002210460C4A11190C4B2246FFF764
:101000007DFF641C0C2CDFDB002009490A2203460B
:1010100000910190074800F017F8FEBD6022000023
:10102000482200000000044098020020CD0E00007D
:10103000BD0F000080020020014602480160002030
:101040007047000088010020F8B5044615461E468A
:10105000002C02D00698002802D10020C043F8BD21
:10106000184F06E03868A04202D12068386003E0DB
:101070003F6838680028F5D100BF134800688047F2
:1010800040197141E160A060069820610798606195
:101090000C4F00BF3868002802D120603C600DE092
:1010A000E168A0683B689A68DB68801A994103D2BE
:1010B000386820603C6001E03F68EBE700BF00203B
:1010C000CDE70000840100208801002010B5104801
:1010D000046818E00F4800688047A368E268C01AF7
:1010E000914105D20B4800688047A168081A10BDDD
:1010F0000749206808602069002803D0204622693B
:10110000616990472468002CE4D10020EFE70000DB
:10111000840100208801002070B50C46154601238B
:10112000A340D9B22A462B0000F0FCFB0705274359
:101130005F65788CAA00534B1B5C8B43514E335434
:10114000504B403B1B5C0B434E4E403E33544D4B8B
:10115000103B1B5C8B434B4E103E3354494B303B92
:101160001B5C8B43474E303E3354464B203B1B5C4D
:101170008B43444E203E335482E0424B1B5C8B43F6
:10118000404E33543F4B403B1E5C0E431E543D4B80
:10119000103B1E5C8E431E543A4B303B1B5C0B4392
:1011A000384E303E3354374B203B1E5C8E431E542A
:1011B00066E0344B1B5C8B43324E3354314B403B27
:1011C0001E5C0E431E542F4B103B1B5C8B432D4E5D
:1011D000103E33542B4B303B1E5C8E431E54294B28
:1011E000203B1E5C8E431E544AE0264B1B5C0B4387
:1011F000244E335444E0234B1E5C8E431E54214B3B
:10120000403B1B5C8B431F4E403E33541D4B103BF9
:101210001B5C8B431B4E103E335431E0194B1B5C5F
:101220008B43184E3354174B403B1B5C8B43154E7E
:10123000403E3354134B103B1B5C0B43114E103E8E
:1012400033541DE00F4B1B5C8B430E4E33540D4B40
:10125000403B1E5C0E431E540A4B103B1B5C8B43F1
:10126000084E103E3354074B303B1E5C8E431E54D9
:10127000044B203B1B5C0B43024E203E335400BF0B
:1012800000BF70BD60000440F0B599B004460D4643
:1012900000260BE02278641C0CA16846FEF7BAFF1A
:1012A00007463946684600F063F800BF3046761CB2
:1012B000A842EFDB06A16846FEF7ACFF07463946B9
:1012C000684600F055F819B0F0BD00002564200014
:1012D0000A0000000146044800E000680268002A95
:1012E000FBD10160704700008C0100203EB5044630
:1012F0000D46902168460170022141708470C570CE
:10130000154A0621515E134608229A5E501CFFF7CB
:101310009FF811480422825E91421BD000BF024612
:101320000821515E1289521C12B203461A810C2206
:1013300051430246126888180C226946FFF73DF8AF
:10134000054A0621515E0820105EFFF781F8024829
:10135000018100BF3EBD00009801002070B5054628
:101360000C4621462846FFF78FFF204670BD00003F
:1013700070B505460C4600BF064800880028FBD122
:10138000A1B2284600F0E4F900BF02480088002816
:10139000FBD170BD2001002010B50446AA201249DF
:1013A00048736178104881732178C1736278A11CF9
:1013B0001030FFF702F86078811C0B480E30FFF701
:1013C000CCF96178C91C084A0D325054BB226078B0
:1013D000001D05490D310A546078411D02480D3049
:1013E00000F0B6F910BD00009801002010B51348B8
:1013F0000069042108431149086111481149088115
:10140000114808810120887200BF0C48006904213E
:1014100008430A49086130BF00BF094809490881EB
:101420000948088100208872044800690421884323
:1014300002490861FFF72CFB10BD000000ED00E041
:101440002A190000000402404F3E00000246014BF2
:10145000186870478C01002070B500F045F87D21B8
:10146000C9000E480068FEF7E9FF05462C46601EDD
:101470000B49884200D90CE0601E0A4948610321EB
:10148000081F00F069FA00200649886107200861FA
:1014900000BF0548FFF7D0FD70BD0000900100209F
:1014A000FFFFFF0000E000E0050B000003480069BB
:1014B00040084000014908617047000000E000E07A
:1014C00007480068401E06490860064802684068F0
:1014D0000021521C484103490A60486070470000DF
:1014E000180000201000002000B5FFF743F9014963
:1014F000086000BD9001002000B580201B494871A4
:101500001A201A49203908732B2048733C2088730D
:101510004D20C873002016494860FFF72BF9154984
:1015200008600020C043144908601449086014484A
:1015300014490860114903221202891848600F49B2
:10154000891888600D498918C8600C498918086194
:101550000A49891848610949891888610749891821
:10156000C861AC200849487000BD0000200402405A
:1015700000B001409001002080E200E000E100E0C6
:10158000C0C0C0C000E400E000100240F8B505464D
:101590000E466A463146284600F04AF90446002CB9
:1015A00016D103200B49888068460078C8806846B9
:1015B00040784006000C084908816846407840069B
:1015C000000C4881034840880321084301494880B2
:1015D0002046F8BD601504404017044070B505462C
:1015E0000E4645480078082108434349087043489F
:1015F00080880321084341498880012140480177C0
:101600003F4820300170017100203E4908773D4974
:1016100020310870087122203849203908823A4860
:10162000088367204002394908813948007C10212D
:101630000843374908740720304920394881FF2082
:101640002330488233484883672040022F4948812D
:101650002A48008901210843284908810846808AD0
:101660002D490840254988820846408901210843C0
:101670002249488100BF0620284988702848007BFD
:10168000042108432649087325482030007B0421A3
:10169000884323492031087321484030007F0421CA
:1016A00088431F49403108771D486030007B042182
:1016B00088431B496031087300BF00BF24201749CD
:1016C0002031C87216482030007B0221084314499B
:1016D0002031087312486030007B02218843104992
:1016E0006031087300BF31462846FFF74FFF0446BC
:1016F00000F050F8204670BD200402406015044000
:1017000000610040006000409780000040170440E6
:101710006004044097400000FEFF000040080440C1
:101720000000044010B502460020002901D18120AC
:1017300006E00023034C2380034B1980034B1A60FF
:1017400010BD0000280100202A01002024010020F3
:1017500010B502460020002901D1812012E00A4B79
:101760001A600A4B1980084B1B681B78084C2372BF
:10177000054B1B685B1C044C2360044B1B885B1EE1
:10178000024C238010BD00001C010020200100201D
:101790004017044010B51248008901210843104940
:1017A000088108464089012108430D4948810846BF
:1017B0004088032108430A494880002009490877E6
:1017C000084920310870072000F0BAF8082000F01E
:1017D000B7F800210448017703482030017010BD9C
:1017E00060150440006000400061004001210C4889
:1017F00001770B48203001700A4880880321084394
:1018000008498880084640890749084005494881B9
:10181000002006490877054920310870704700000C
:101820000061004060150440FEFF000000600040C1
:10183000F7B584B016468020039000242BE06000AA
:10184000174A115A0498FEF7F9FD019002251EE08F
:10185000691C0198FEF7F2FD41080291114A0299B4
:10186000514308460599FEF7E9FD0E49471A381E0F
:1018700001DB014600E04142142906DA347075703C
:1018800000200390039807B0F0BD681CC5B2802DFE
:10189000DEDB601CC4B2102CD1DB0398F3E7000040
:1018A0006C2200001027000010B5144A3621515E4A
:1018B0003823D35E581CFEF7CBFD10483422825EDD
:1018C000914216D000BF0E4801780C483822825E43
:1018D000008F401C03B209480387006B8154074AFC
:1018E0003621515E3820105EFEF7B2FD03480187B5
:1018F00000BF01210248FFF715FF10BD980100202D
:101900001C0000200348007B400840000149087388
:101910007047000098010020AC20014948707047D2
:101920000010024030B47446641E2578641CAB423B
:1019300004D3635D5B00E31830BC18471D46F8E72D
:10194000002805DBC206D20E01219140014A116038
:101950007047000080E200E010B5002819DB1A4A49
:1019600003231B02D21883089B00D2588307DC0E86
:10197000FF23A3409A438B071B0E8407E40EA3406A
:101980001A43114B032424021B198408A4001A5182
:1019900018E00E4A03071B0F083B9B089B00D25818
:1019A0008307DC0EFF23A3409A438B071B0E84079B
:1019B000E40EA3401A43054B0407240F083CA40877
:1019C000A4001A5110BD000000E100E01CED00E091
:1019D00030380A2801D201207047002070470000EB
:1019E000002803D00449054A116202E00121034A9C
:1019F000116200BFFEE70000AD0B00000080024056
:101A000070B50446084B0C229A5E08269E5F911B17
:101A10009A89121B12B23C235A431046FEF718FD56
:101A2000193005B2284670BD6006500010B5002080
:101A3000114908751148C07B1149096808701048A0
:101A40000068401C0E4908600C48C0890D490968AF
:101A500008800C480068801C0A4908600A48006831
:101A6000401C094908600549C98908B2FFF7C8FF49
:101A70000649088010BD000040600040005004404E
:101A8000380000203C0000204000002044000020DE
:101A9000704700000848007C01210843064908748B
:101AA00000BF0648407CC007C00F0028F9D00120C5
:101AB0000349087070470000201A0440401B04408E
:101AC0005B0000200848007C012108430649087497
:101AD00000BF0648407CC007C00F0028F9D0012095
:101AE0000349087070470000201A0440401B04405E
:101AF0005A0000200349097C20221143014A117435
:101B000070470000201A0440012001490870704706
:101B10005B00002001200149087070475A00002036
:101B200010B5002007490870FEF7F2FF0648407C18
:101B300080210840802802D100F008F801E000F080
:101B4000D3F810BD40600040401B044010B55E4813
:101B5000807C40210840002807D15C48008800288C
:101B600003D00120FFF794FFACE0594800788021B2
:101B70000840002844D15448407C042108400028F3
:101B80003AD05348007880210843514908704E48A4
:101B9000407C0821084000281BD04E48007C0843A8
:101BA0004C4908744948008800280FD04A4800680A
:101BB00000784549087448480068401C4649086058
:101BC00042480088401E414908807BE0FFF77AFFC9
:101BD00078E04048007C042108433E4908740846E8
:101BE000007C082188433B4908740846007C20217A
:101BF00008433849087465E00220FFF749FF61E0B7
:101C00003148407C08210840002824D02E48407CE0
:101C100004210840002807D12C480088002803D060
:101C20000220FFF735FF4DE02848008800280FD03C
:101C30002948006800782449087427480068401C37
:101C40002549086021480088401E2049088039E065
:101C5000FFF738FF36E0214800882149098888428B
:101C60002EDA1948007C1F49096808701D48006871
:101C7000401C1C49086019480088401C174908800E
:101C80000846008816490988884212D11148007C0C
:101C9000042188430F4908740846007C202108432A
:101CA0000C4908740846007C082108430949087457
:101CB00008E00848007C202108430649087401E038
:101CC000FFF7E8FE10BD0000401B04405800002054
:101CD00048000020201A0440540000205200002038
:101CE000500000204C00002010B57748407CC00711
:101CF000C00F00281FD07548007C1021884373490D
:101D00000874734800788021084000280FD070487C
:101D1000007804210840002801D0FFF7FBFE6C4842
:101D2000007802210840002801D0FFF7EDFE0120D5
:101D300067490870C6E0664800788021084000289E
:101D40004CD16148407C10210840002842D05F48B7
:101D5000007C08435D49087480205D4908705A483A
:101D6000407C08210840002821D05848007C0843C6
:101D7000564908745748008800280FD05648006814
:101D800000785149087454480068401C5249086062
:101D900050480088401E4F49088093E0FFF7BAFE84
:101DA0004A48007C20210843484908748AE0474893
:101DB000007C04210843454908740846007C08213A
:101DC0008843424908740846007C202108433F4963
:101DD000087477E08020FFF78DFE73E03A48407C7E
:101DE00008210840002830D03948007804210843F1
:101DF000374908703448407C04210840002807D146
:101E000034480088002803D00220FFF773FE59E011
:101E10003048008800280FD02F48006800782A49F1
:101E200008742D480068401C2B4908602948008828
:101E3000401E2849088045E0FFF76CFE2348007CDF
:101E400020210843214908743CE021480078022100
:101E500008431F49087021480088214909888842A1
:101E60002ADA1948007C1F49096808701D48006873
:101E7000401C1C49086019480088401C174908800C
:101E8000084600881649098888420ED10F48007C10
:101E9000082108430D4908740846007C20210843A6
:101EA0000A490874FFF730FE0CE00848007C202146
:101EB00008430649087405E00448007C20210843D3
:101EC0000249087410BD0000401B0440201A044061
:101ED000490000205800002054000020520000203B
:101EE000500000204C00002002480068401C0149BE
:101EF000086070475C00002002480068401C0149EF
:101F0000086070476000002002480068401C0149DA
:101F1000086070476400002002480068401C0149C6
:101F2000086070476800002010B500200249087161
:101F3000FFF7DAFF10BD00000060004010B5002080
:101F400002490872FFF7D8FF10BD00000060004092
:101F500010B5002002490873FFF7D6FF10BD00003E
:101F60000060004010B5002002490874FFF7D4FF5C
:101F700010BD000000600040002001490876704755
:101F8000006000409AB00D48FFF7A4F90C48FFF735
:101F9000A1F90C48FFF79EF90B480C498861FEF740
:101FA00077FD0BA101A8FEF735F90446214601A8EB
:101FB000FFF7DEF901E0FFF789F8FCE700000020F9
:101FC0002C00002020000020ED130000A8020020BB
:101FD000494E49542046494E4953480A00000000E2
:101FE0007047000010B500200C4908720C480088AA
:101FF00000280FD00B48006800780B490874094886
:102000000068401C0749086005480088401E0449D4
:10201000088001E0FFF7E4FF10BD000020600040F1
:10202000700000206C0000200013044070477047CF
:102030007047704710B5FFF76FFC03480068401CFD
:102040000149086010BD0000800100200146082001
:10205000334AD060F120106255205060AA20906071
:102060000020C043086000BF2D480068C007C00FB3
:102070000028F9D02A48006801221043284A10603D
:102080000020D060704701461020254AD060F12022
:10209000106255205060AA2090600020C043086064
:1020A00000BF1F480068C007C00F0028F9D01C48B7
:1020B0000068012210431A4A10600020D0601062AC
:1020C0001046006804221040002801D0012070470B
:1020D0000020FCE770B503461D46F120104E30622B
:1020E000002416E0AA200E4E70605520B0601078D3
:1020F0002870521C6D1C00BF09480068C007C00F43
:102100000028F9D00648006801263043044E3060AC
:10211000641C8C42E6D30020014E306270BD00008A
:10212000000002400020474908777047F7B5FFB02C
:1021300089B006460F460020879001200590400296
:10214000874205D98020879087987FB00CB0F0BD7A
:10215000039600240CE00398007886900398401CB6
:1021600003908698FF2801D000200590601C84B25F
:10217000BC42F0D30598002805D0394630468A9AEB
:10218000FFF7A8FF5BE0750AF119681C4002814265
:1021900002D90120049001E000200490700A40025E
:1021A0000290F005C00D0190049800280FD0002483
:1021B00008E00298007806A908550298401C029091
:1021C000601C84B2012080028442F2DB0EE0002415
:1021D00008E00298007806A908550298401C029071
:1021E000601C84B2012040028442F2DB00240AE039
:1021F0008A9801780198001906AA11548A98401CFF
:102200008A90601C84B2BC42F2D3049800280DD09E
:102210006802FFF738FF691C4802FFF734FF6802C5
:1022200006AA01218902FFF755FF08E06802FFF7BF
:102230002AFF680206AA01214902FFF74BFF87988F
:1022400083E70000606000400D060C030C040104ED
:102250000103010201010100020302020201020066
:1022600004080009010A020B030706050100020029
:10227000040008001000200040008000000100025F
:10228000000400080010002000400080AC22000084
:10229000000000209401000004070000CC22000090
:1022A0009401002094060000080100004123591405
:1022B0001AAD0401182305081AA9044123550FE398
:0C22C000690E02FF1901309AFF010114A1
:04000005000000C532
:00000001FF
