:020000040000FA
:10000000200700204D010000CD180000570100001E
:1000100000000000000000000000000000000000E0
:100020000000000000000000000000005F01000070
:1000300000000000000000006301000065010000F6
:1000400067010000AD120000C1120000D5120000CF
:10005000E91200007101000021130000A505000055
:100060002907000079010000B113000015150000F8
:100070007F010000D91700007916000085010000FB
:10008000A50E0000AD080000FD0800004D090000AD
:100090009D090000590D0000451300000D130000DC
:1000A00097010000990100009B010000ED0900008C
:1000B0003D0A00008D0A0000DD0A0000BD190000A5
:1000C000EFFFEAFF00F002F800F030F80CA030C8B3
:1000D000083824182D18A246671EAB4654465D46C4
:1000E000AC4201D100F022F87E460F3E0FCCB6465E
:1000F0000126334200D0FB1AA246AB4633431847D1
:10010000E0190000001A000000230024002500264A
:10011000103A01D378C1FBD8520700D330C100D5C3
:100120000B6070471FB51FBD10B510BD00F0FEF885
:100130001146FFF7F7FF01F0F9F800F016F903B4E4
:10014000FFF7F2FF03BC00F0E1FD00001948804713
:1001500019480047FEE7FEE7FEE7FEE7FEE7FEE799
:10016000FEE7FEE7FEE7FEE7FEE7FEE7FEE7FEE767
:10017000FEE7FEE7FEE7FEE7FEE7FEE7FEE7FEE757
:10018000FEE7FEE7FEE7FEE7FEE7FEE7FEE7FEE747
:10019000FEE7FEE7FEE7FEE7FEE7FEE7FEE7FEE737
:1001A000FEE7FEE7FEE7000004480549054A064B66
:1001B00070470000210C0000C50000002002002054
:1001C0002007002020030020200300200022030934
:1001D0008B422CD3030A8B4211D300239C464EE062
:1001E00003460B433CD4002243088B4231D303091E
:1001F0008B421CD3030A8B4201D394463FE0C309D0
:100200008B4201D3CB01C01A524183098B4201D3E7
:100210008B01C01A524143098B4201D34B01C01AD2
:10022000524103098B4201D30B01C01A5241C3084A
:100230008B4201D3CB00C01A524183088B4201D3B9
:100240008B00C01A524143088B4201D34B00C01AA5
:100250005241411A00D201465241104670475DE0BA
:10026000CA0F00D04942031000D34042534000223D
:100270009C4603098B422DD3030A8B4212D3FC22E6
:10028000890112BA030A8B420CD3890192118B4265
:1002900008D3890192118B4204D389013AD092117B
:1002A00000E08909C3098B4201D3CB01C01A524136
:1002B00083098B4201D38B01C01A524143098B42FF
:1002C00001D34B01C01A524103098B4201D30B01E8
:1002D000C01A5241C3088B4201D3CB00C01A52410D
:1002E00083088B4201D38B00C01A5241D9D24308F4
:1002F0008B4201D34B00C01A5241411A00D2014631
:10030000634652415B10104601D34042002B00D59A
:100310004942704763465B1000D3404201B500205C
:10032000C046C04602BD704770477047754600F032
:1003300025F8AE46050069465346C008C00085460C
:1003400018B020B5FFF730FF60BC00274908B6465B
:100350000026C0C5C0C5C0C5C0C5C0C5C0C5C0C5D4
:10036000C0C5403D49008D46704710B50446C046A3
:10037000C0462046FFF7E3FE10BD0000004870476E
:10038000BC01002070B58C180578401C6B075B0F12
:1003900001D10378401C2A1106D10278401C03E0E9
:1003A0000678401C0E70491C5B1EF9D12B0705D442
:1003B0000023521E0DD40B70491CFAE70378401C31
:1003C000CB1A921C03E01D780D70491C5B1C521E59
:1003D000F9D5A142D8D3002070BD000000B5C022DD
:1003E0009178F8221140144A1278114313480A46B2
:1003F000E03A130000F064FC0E0A0E12161A1E1EDC
:100400001E080C1014181C1E0D4813E00D4811E0B6
:100410000D480FE00D480DE00D480BE00D4809E0D8
:100420000D4807E00D4805E00D4803E00D4801E0E8
:100430000D4800BF00BF00BD201C024040420F001D
:100440000090D003006CDC020048E80100366E0129
:100450000024F400001BB70000127A00808D5B00BE
:1004600000093D00C0C62D0080841E000121054802
:1004700001770548808808430349888000200349A4
:10048000087770470061004060150440006000403C
:1004900008B50020164908701648808801210843D5
:1004A0001449888008464089134908401149488109
:1004B00008460089104908400E490881084600890D
:1004C000891508430B4908810020009005E000BF12
:1004D00068460078401CC1B20091684600780E283A
:1004E000F5D904480089012108430249088108BD63
:1004F0002401002060150440FEFF00000121064891
:100500000170064880880221084304498880002041
:1005100003490870704700002061004060150440E6
:100520002060004008B5164880880221084314491D
:100530008880084640891349084011494881084687
:100540000089104908400E4908810846008949156C
:1005500008430B4908810020009005E000BF684671
:100560000078401CC1B20091684600780E28F5D989
:1005700003480089022108430149088108BD0000A1
:1005800060150440FDFF00000548407C8021884341
:100590000349487400BF00BF00BF00BF00BF7047E1
:1005A000201A044010B5564800880221084002284D
:1005B00007D154480088002803D0022000F0FEFB39
:1005C0009AE04F480088C007C00F002807D04D4868
:1005D0000088002803D0052000F0F0FB8CE04A489A
:1005E0000078C007C00F002818D0464800880028AF
:1005F0000FD04648006800784549087243480068B3
:10060000401C424908603F480088401E3D49088020
:1006100072E0FFF73DFF00F0DDFB6DE03A48007847
:1006200004210840002832D135482030808801213B
:1006300008433349203188803148008B8004800C86
:100640002F4908830846008B0121890308432C4960
:1006500008832B4820304088012108432849203155
:100660004880294800780421084327490870294810
:100670000088012807D122482030408926490840B7
:100680001F4920314881FF202149087234E0234866
:1006900000882049098888422EDA1D48007A2049BE
:1006A000096808701E480068401C1D4908601B4806
:1006B0000088401C1949088016480088401E098897
:1006C00088420BD10E4820304089134908400C491C
:1006D00020314881FF200E4908720DE00F48008844
:1006E0000C490988884204D1FFF7D2FE00F068FB6C
:1006F00002E0FF200649087200200A49087710BD71
:10070000401504402C010020240100202801002075
:100710004017044036010020FEFF00003401002095
:10072000300100200060004010B55648408802218A
:100730000840022807D154480088002803D002202E
:1007400000F052FB9AE04F484088C007C00F0028D5
:1007500007D04D480088002803D0052000F044FB56
:100760008CE04A480078C007C00F002818D04648DF
:10077000008800280FD046480068007845498872F4
:1007800043480068401C424908603F480088401EBA
:100790003D49088072E0FFF7C5FE00F031FB6DE0D7
:1007A0003A48007804210840002832D135482030EA
:1007B0008088022108433349203188803148408BAA
:1007C0008004800C2F4948830846408B012189030F
:1007D00008432C4948832B48203040880221084395
:1007E00028492031488029480078042108432749B6
:1007F000087029480088012807D122482030408904
:10080000264908401F4920314881FF20214988722C
:1008100034E0234800882049098888422EDA1D48A0
:10082000807A2049096808701E480068401C1D49EC
:1008300008601B480088401C194908801648008839
:10084000401E098888420BD10E4820304089134948
:1008500008400C4920314881FF200E4988720DE084
:100860000F4800880C490988884204D1FFF75AFED6
:1008700000F0BCFA02E0FF200649887200200A4915
:10088000087010BD401504404001002038010020D0
:100890003C010020401704404A010020FDFF0000F9
:1008A00048010020440100202060004000200E4943
:1008B00008710E480068401C0C4908600C4800880C
:1008C000C007C00F002808D00A48008B401C012137
:1008D000090440180849086004E00648008B401CE1
:1008E0000549086070470000406000408401002016
:1008F000A01D0440001F04407401002000200E4988
:1009000008720E480068401C0C4908600C4840887A
:10091000C007C00F002808D00A48408B401C0121A6
:10092000090440180849086004E00648408B401C50
:1009300005490860704700004060004088010020C1
:10094000A01D0440001F04407801002000200E4933
:1009500008730E480068401C0C4908600C488088E9
:10096000C007C00F002808D00A488088401C012119
:10097000090440180849086004E006488088401CC3
:100980000549086070470000406000408C0100206D
:10099000A01D0440601F04407C01002000200E497F
:1009A00008740E480068401C0C4908600C48C08858
:1009B000C007C00F002808D00A48C088401C012189
:1009C000090440180849086004E00648C088401C33
:1009D0000549086070470000406000409001002019
:1009E000A01D0440601F04408001002000200E492B
:1009F00008730E480068401C0C4908600C480088C9
:100A0000C007C00F002808D00A48008B401C0121F5
:100A1000090440180849086004E00648008B401C9F
:100A2000054908607047000060600040A401002094
:100A3000A0210440002304409401002000200E491E
:100A400008740E480068401C0C4908600C48408837
:100A5000C007C00F002808D00A48408B401C012165
:100A6000090440180849086004E00648408B401C0F
:100A7000054908607047000060600040A801002040
:100A8000A0210440002304409801002000200E49CA
:100A900008750E480068401C0C4908600C488088A6
:100AA000C007C00F002808D00A488088401C0121D8
:100AB000090440180849086004E006488088401C82
:100AC000054908607047000060600040AC010020EC
:100AD000A0210440602304409C01002000200E4916
:100AE00008760E480068401C0C4908600C48C08815
:100AF000C007C00F002808D00A48C088401C012148
:100B0000090440180849086004E00648C088401CF1
:100B1000054908607047000060600040B001002097
:100B2000A021044060230440A001002010B5012151
:100B30000C4801730C488088082108430A498880C2
:100B4000084640890949084007494881002008496A
:100B500008730B2000F0C2F800BF04200549887517
:100B600000BF10BD2061004020110440F7FF0000CD
:100B7000206000400000044010B501210C480176BF
:100B80000C488088082108430A4988800846408923
:100B900009490840074948810020084908760E2085
:100BA00000F09CF800BF04200549887500BF10BD07
:100BB0002061004020110440F7FF00002060004049
:100BC0000000044010B500BF08201049887500BF20
:100BD0000F480068802188430D49086001210D48B5
:100BE00001750D20002808DBC206D20E91400A4A8A
:100BF0001160BFF34F8FBFF36F8F00BF0020074915
:100C000008750D2000F076F810BD000000000440CB
:100C1000002404402061004080E100E020600040AA
:100C200000B580201B4948711A201A4920390873E1
:100C30002B2048733C2088734D20C8730020164930
:100C40004860FFF7CBFB154908600020C0431449FA
:100C500008601449086014481449086011490322C7
:100C60001202891848600F49891888600D4989184F
:100C7000C8600C49891808610A49891848610949FE
:100C80008918886107498918C861AC2008494870EB
:100C900000BD00002004024000B00140B801002067
:100CA00080E200E000E100E0C0C0C0C000E400E07D
:100CB00000100240AC20014948707047001002400B
:100CC00030B47446641E2578641CAB4204D3635D63
:100CD0005B00E31830BC18471D46F8E7002805DB29
:100CE000C206D20E01219140014A116070470000F6
:100CF00080E200E0002805DBC206D20E012191400F
:100D0000014A11607047000080E200E0002803D033
:100D10000449054A116202E00121034A116200BF41
:100D2000FEE70000AD0B00000080024070B50446F5
:100D3000084B0C229A5E08269E5F911B9A89121B13
:100D400012B23C235A431046FFF74AFA193005B253
:100D5000284670BD6006500010B500201149087586
:100D60001148C07B11490968087010480068401C90
:100D70000E4908600C48C0890D49096808800C4874
:100D80000068801C0A4908600A480068401C09493C
:100D900008600549C98908B2FFF7C8FF06490880FD
:100DA00010BD0000406000400050044000000020E2
:100DB00004000020080000200C0000207047000004
:100DC00010B5012002490870FFF750FB10BD00006C
:100DD0006101002010B5012002490870FFF746FBB1
:100DE00010BD0000600100207047000010B5012018
:100DF00002490870FFF782FB10BD0000630100206C
:100E000010B5012002490870FFF778FB10BD000003
:100E100062010020704700000848007C012108435F
:100E20000649087400BF0648407CC007C00F002870
:100E3000F9D001200349087070470000201A0440CF
:100E4000401B0440230000200848007C0121084387
:100E50000649087400BF0648407CC007C00F002840
:100E6000F9D001200349087070470000201A04409F
:100E7000401B0440220000200349097C202211432A
:100E8000014A117470470000201A044001200149F2
:100E90000870704723000020012001490870704746
:100EA0002200002010B5002007490870FFF76CFBF6
:100EB0000648407C80210840802802D100F008F8D4
:100EC00001E000F0D3F810BD40600040401B04403A
:100ED00010B55E48807C40210840002807D15C485E
:100EE0000088002803D00120FFF794FFACE05948A8
:100EF000007880210840002844D15448407C0421D7
:100F0000084000283AD053480078802108435149CE
:100F100008704E48407C0821084000281BD04E48ED
:100F2000007C08434C4908744948008800280FD0C9
:100F30004A48006800784549087448480068401CE1
:100F40004649086042480088401E414908807BE0CD
:100F5000FFF77AFF78E04048007C042108433E49CF
:100F600008740846007C082188433B4908740846F9
:100F7000007C202108433849087465E00220FFF70F
:100F800049FF61E03148407C08210840002824D016
:100F90002E48407C04210840002807D12C480088B6
:100FA000002803D00220FFF735FF4DE028480088D5
:100FB00000280FD029480068007824490874274881
:100FC0000068401C2549086021480088401E2049CF
:100FD000088039E0FFF738FF36E0214800882149D2
:100FE000098888422EDA1948007C1F490968087070
:100FF0001D480068401C1C49086019480088401CB6
:10100000174908800846008816490988884212D185
:101010001148007C042188430F4908740846007C6D
:10102000202108430C4908740846007C0821084325
:101030000949087408E00848007C20210843064953
:10104000087401E0FFF7E8FE10BD0000401B0440FB
:101050002000002010000020201A04401C00002066
:101060001A000020180000201400002010B5774856
:10107000407CC007C00F00281FD07548007C10219D
:101080008843734908747348007880210840002819
:101090000FD07048007804210840002801D0FFF7E5
:1010A000FBFE6C48007802210840002801D0FFF7C1
:1010B000EDFE012067490870C6E06648007880218F
:1010C000084000284CD16148407C1021084000288D
:1010D00042D05F48007C08435D49087480205D4928
:1010E00008705A48407C08210840002821D0584800
:1010F000007C0843564908745748008800280FD0E0
:101100005648006800785149087454480068401CEB
:101110005249086050480088401E4F49088093E0BB
:10112000FFF7BAFE4A48007C20210843484908746A
:101130008AE04748007C0421084345490874084672
:10114000007C08218843424908740846007C20211D
:1011500008433F49087477E08020FFF78DFE73E075
:101160003A48407C08210840002830D039480078AF
:1011700004210843374908703448407C0421084062
:10118000002807D134480088002803D00220FFF748
:1011900073FE59E03048008800280FD02F480068BF
:1011A00000782A4908742D480068401C2B490860C3
:1011B00029480088401E2849088045E0FFF76CFE5A
:1011C0002348007C20210843214908743CE0214841
:1011D0000078022108431F490870214800882149EE
:1011E000098888422ADA1948007C1F490968087072
:1011F0001D480068401C1C49086019480088401CB4
:1012000017490880084600881649098888420ED187
:101210000F48007C082108430D4908740846007CEB
:10122000202108430A490874FFF730FE0CE0084803
:10123000007C202108430649087405E00448007C2E
:10124000202108430249087410BD0000401B0440DF
:10125000201A044011000020200000201C00002063
:101260001A00002018000020140000200248006826
:10127000401C0149086070472400002002480068B3
:10128000401C01490860704728000020024800689F
:10129000401C0149086070472C000020024800688B
:1012A000401C0149086070473000002010B5002044
:1012B00002490871FFF7DAFF10BD0000006000402E
:1012C00010B5002002490872FFF7D8FF10BD0000DA
:1012D0000060004010B5002002490873FFF7D6FFF8
:1012E00010BD00000060004010B5002002490874E5
:1012F000FFF7D4FF10BD0000006000400248006806
:10130000401C0149086070474000002010B50020D3
:1013100002490877FFF7F2FF10BD0000406000406F
:1013200000200149087670470060004000207047A7
:101330007047000002480068401C0149086070477F
:101340003C00002010B51148807F10210840002883
:101350000AD00E48807FEF2108400C498877002092
:101360000B490876FFF7E4FF0848807F0821084012
:1013700000280AD00548807FF72108400349887774
:10138000002003490876FFF7D5FF10BD404F044009
:10139000406000407047000000200149086070472D
:1013A0005400002000200149086070475C000020C4
:1013B0001CB500204549087245480088C107C90F7F
:1013C0000191684600794249088168460079012800
:1013D00004D168460079FFF7DDFF75E03D480088DD
:1013E000002803D13C480088012835D93B480068D3
:1013F00000280FD03A48007C3849096808703748FF
:101400000068401C3549086033480088401E324956
:10141000088002E03248007C0090324800680028D2
:101420000FD03048006800782D4908742D480068B6
:10143000401C2C49086027480088401E2549088028
:1014400042E02348008A01218903084000283BD15B
:10145000FF202349087437E01F48008801281AD16B
:1014600000BF1B480088202108400028F9D01B48F5
:10147000006800280AD01A48007C184909680870DA
:1014800015480088401E1449088002E01448007C7A
:101490000090FFF781FF13480068002814D00C4823
:1014A000008A012189030840002804D00848008BE5
:1014B0000840002806D100BF0548008840210840A8
:1014C0000028F9D1FFF76EFF1CBD0000206000402E
:1014D00000110440620000205A0000205400002047
:1014E000001304405C0000207047000010B5FFF7B7
:1014F0001DFB00200149086010BD000064000020B1
:1015000010B5FFF713FB00200149086010BD000073
:101510006C0000201CB546484088C107C90F0191E6
:10152000684600794249488168460079012804D11B
:1015300068460079FFF7D8FF75E03E48008800282C
:1015400003D13D480088012835D93C48006800286F
:101550000FD03B48807C39490968087037480068DB
:10156000401C3649086034480088401E32490880D3
:1015700002E03348807C00903248006800280FD099
:101580003048006800782E4988742E480068401C56
:101590002C49086027480088401E2649088042E000
:1015A0002348408A01218903084000283BD1FF20BD
:1015B0002349887437E02048008801281AD100BFE9
:1015C0001B484088202108400028F9D01B480068AB
:1015D00000280AD01A48807C184909680870164803
:1015E0000088401E1449088002E01548807C009065
:1015F000FFF77CFF13480068002814D00C48408A8D
:10160000012189030840002804D00948408B084084
:10161000002806D100BF0648408840210840002825
:10162000F9D1FFF76DFF0020074908731CBD0000CA
:1016300000110440720000206A00002064000020B5
:10164000001304406C000020206000407047000040
:1016500010B5FFF791FA00200149086010BD0000A5
:10166000BC00002010B5FFF787FA00200149086090
:1016700010BD0000C40000201CB54648C088C1074A
:10168000C90F0191684600794249C88168460079CE
:10169000012804D168460079FFF7D8FF75E03E487D
:1016A0000088002803D13D480088012835D93C48EE
:1016B000006800280FD03B488079394909680870D4
:1016C00037480068401C3649086034480088401E8E
:1016D0003249088002E0334880790090324800683F
:1016E00000280FD03048006800782E4988712E48B5
:1016F0000068401C2C49086027480088401E264985
:10170000088042E02348C08A01218903084000285C
:101710003BD1FF202349887137E020480088012809
:101720001AD100BF1B48C088202108400028F9D0EA
:101730001B48006800280AD01A48807918490968AF
:10174000087016480088401E1449088002E01548B9
:1017500080790090FFF77CFF13480068002814D0C0
:101760000C48C08A012189030840002804D0094898
:10177000C08B0840002806D100BF0648C088402121
:1017800008400028F9D1FFF76DFF002007490876CF
:101790001CBD000000110440CA000020C20000204F
:1017A000BC00002040130440C40000202060004022
:1017B00010B5FFF707FA00200149086010BD0000CE
:1017C0006401002010B5FFF7FDF900200149086011
:1017D00010BD00006C01002008B5364800880028C4
:1017E00003D13548008801282FD9344800680028E3
:1017F0000FD03348C0683149096808702F48006825
:10180000401C2E4908602C480088401E2A49088048
:1018100003E02B48C068C0B200902A480068002846
:101820000FD028480068007825498860254800685E
:10183000401C244908601F480088401E1D4908803C
:1018400033E0FF201E4988602FE01B4800880128F4
:1018500018D11B480068802188431949086017483F
:10186000006800280AD00846C06814490968087052
:1018700011480088401E1049088003E01048C068E5
:10188000C0B200900D480068002801D0FFF790FF1B
:101890000C480068002808D000BF09480068C0074D
:1018A000C00F0028F9D1FFF78DFF00200649087509
:1018B00008BD0000720100206A01002064010020C0
:1018C000002404406C0100202060004010B5FFF7A8
:1018D000F1F903480068401C0149086010BD000090
:1018E000B401002001460820334AD060F120106284
:1018F00055205060AA2090600020C043086000BFBF
:101900002D480068C007C00F0028F9D02A48006899
:1019100001221043284A10600020D0607047014621
:101920001020254AD060F120106255205060AA2076
:1019300090600020C043086000BF1F480068C007D7
:10194000C00F0028F9D01C480068012210431A4A31
:1019500010600020D0601062104600680422104021
:10196000002801D0012070470020FCE770B5034635
:101970001D46F120104E3062002416E0AA200E4EC3
:1019800070605520B06010782870521C6D1C00BF2C
:1019900009480068C007C00F0028F9D00648006851
:1019A00001263043044E3060641C8C42E6D3002094
:1019B000014E306270BD0000000002400020474927
:1019C00008777047F7B5FFB089B006460F4600208C
:1019D0008790012005904002874205D9802087909A
:1019E00087987FB00CB0F0BD039600240CE00398FC
:1019F000007886900398401C03908698FF2801D0B9
:101A000000200590601C84B2BC42F0D305980028E9
:101A100005D0394630468A9AFFF7A8FF5BE0750A81
:101A2000F119681C4002814202D90120049001E0B2
:101A300000200490700A40020290F005C00D019051
:101A4000049800280FD0002408E00298007806A926
:101A500008550298401C0290601C84B2012080024C
:101A60008442F2DB0EE0002408E00298007806A928
:101A700008550298401C0290601C84B2012040026C
:101A80008442F2DB00240AE08A9801780198001968
:101A900006AA11548A98401C8A90601C84B2BC42E9
:101AA000F2D3049800280DD06802FFF738FF691CB4
:101AB0004802FFF734FF680206AA01218902FFF7F6
:101AC00055FF08E06802FFF72AFF680206AA012115
:101AD0004902FFF74BFF879883E7000060600040F2
:101AE000001B000000000020BC0100008403000077
:101AF0000C1B0000BC010020640500000801000070
:0C1B0000C102FF1901409AFF01016400BE
:04000005000000C532
:00000001FF
