:020000040000FA
:10000000E80B002091CD0000E59D00009BCD000095
:1000100000000000000000000000000000000000E0
:10002000000000000000000000000000A3CD000060
:100030000000000000000000A7CD0000CD0200007D
:10004000ABCD0000415400005B540000755400002B
:100050008F540000B5CD0000B15400008B97000014
:100060000B970000BDCD0000858D0000C1CD0000C4
:10007000C3CD0000E993000069930000C9CD0000E2
:100080004551000021C800005BC8000095C8000071
:10009000D3C8000041480000D7CD0000D9CD0000F2
:1000A000DBCD0000DDCD0000DFCD000017C9000072
:1000B00053C900008FC90000CFC9000051D900000A
:1000C000EFFFE1FF00F002F800F046F80CA030C8A6
:1000D000083824182D18A246671EAB4654465D46C4
:1000E000AC4201D100F038F87E460F3E0FCCB64648
:1000F0000126334200D0FB1AA246AB4633431847D1
:1001000000DA000020DA0000002300240025002689
:10011000103A01D378C1FBD8520700D330C100D5C3
:100120000B60704710B5642902D10CF0C7FF10BDF9
:10013000782902D10CF0F8FF10BD732902D10DF01F
:100140008FFA10BD002010BD1FB5009801990DF069
:10015000CAF91FBD10B510BD0DF0DEFA1146FFF74C
:10016000F3FF00F0C2F80DF0F6FA03B4FFF7F2FF68
:1001700003BC05F0CCF9000070B505460C461646E8
:1001800002E00FCC0FC5103E102EFAD2082E02D37B
:1001900003CC03C5083E042E07D301CC01C5361F8E
:1001A00003E021782970641C6D1C761EF9D270BDA5
:1001B000854903C9704770B50CF058FE7D21C90010
:1001C000824800680DF0C2F805462C46601E804942
:1001D000884200D90CE0601E7E4948610321081F57
:1001E00000F0B9F800207B4988610720086100BF52
:1001F00079480CF0E9FC70BD7849086000BF774988
:1002000009680029FBD1704770B505460C4600BF50
:10021000734800880028FBD10120FFF7EDFFA1B251
:10022000284607F010FE00BF6D4800880028FBD16B
:100230000120FFF7E1FF70BD10B59AB069A101A8D8
:100240000CF0D6FE0446214601A8FFF7DDFF1AB0E8
:1002500010BD10B59AB05F480069400840005D4984
:1002600008616448006904210843624908616248E2
:1002700062490881624808810120887200BF5D4898
:100280000069042108435B49086130BF00BF5A4838
:100290005A4908815A4808810020887255480069E7
:1002A00004218843534908610CF03BFD55A101A886
:1002B0000CF09EFE0446214601A8FFF7A5FF00BFF3
:1002C00010215348017700BF1AB010BD43480068A1
:1002D000401E424908603C48026840680021521CA8
:1002E000484139490A60486070479AB049480CF063
:1002F0000FFD49480CF00CFD48480CF009FD48483A
:100300000CF006FD47480CF003FD4748474988615B
:100310004748C8610CF005FD46A101A80CF068FE35
:100320000446214601A8FFF76FFF42A101A80CF087
:100330005FFE0446214601A8FFF766FF40A101A821
:100340000CF056FE0446214601A8FFF75DFF01E0D0
:100350000CF08CFCFCE710B5002819DB3D4A0323A8
:100360001B02D21883089B00D2588307DC0EFF23A0
:10037000A3409A438B071B0E8407E40EA3401A4345
:10038000344B032424021B198408A4001A511AE0D8
:10039000184A1C3203071B0F083B9B089B00D258CE
:1003A0008307DC0EFF23A3409A438B071B0E8407B1
:1003B000E40EA3401A430F4B1C330407240F083CE0
:1003C000A408A4001A5110BD1000002064020020EF
:1003D000FFFFFF0000E000E0B10100001800002076
:1003E000A80100207379737469636B20736C656571
:1003F000700A000000ED00E02A190000000402402D
:100400004F3E00006177616B6521210A000000000A
:100410000000044000000020800000205C0000205C
:10042000480000206C0000205302000068060020F5
:10043000102700007768696C6520310A0000000011
:1004400064657669636520696E69742066696E69A2
:1004500073680A0000E100E030B599B00446FE4838
:10046000005D01280DD00120FB4908552246FBA163
:1004700068460CF0BDFD054629466846FFF7C4FEF8
:1004800000BF19B030BD30B599B00446F248005DE8
:1004900000280DD00020F04908552246F2A16846F8
:1004A0000CF0A6FD054629466846FFF7ADFE00BFE5
:1004B00019B030BD70B59AB005460E46EDA101A841
:1004C0000CF096FD0446214601A8FFF79DFE04F0BE
:1004D0007DF91AB070BD3EB504460D46EAA000682D
:1004E0000290012102A802F051FD0020E749FF22FD
:1004F000F532034600910190E5480CF06AFB3EBDE1
:1005000070B59AB004460D46002D09D1E1A101A8AD
:100510000CF06EFD0646314601A8FFF775FE17E0A8
:10052000012D09D1DDA101A80CF062FD064631467E
:1005300001A8FFF769FE0BE0022D09D1DAA101A89D
:100540000CF056FD0646314601A8FFF75DFE00BFE0
:100550000A2C0ADA2246D7A101A80CF049FD06466A
:10056000314601A8FFF750FE0EE020460A38800011
:10057000D1490A58D1A101A80CF03AFD06463146EE
:1005800001A8FFF741FE00BF1AB070BD70B59AB068
:1005900004460D4629462046FFF7B2FF002D0FD135
:1005A00001F01FFD0A2C13DAC5484157102908DA5B
:1005B00042570078401C40B2C14B1870C148845467
:1005C000A8E01021BF480CF089FABE49CC73A1E025
:1005D0000B2C6ED1BCA168460CF00AFD06463146D4
:1005E0006846FFF711FE00201990B54800780028F2
:1005F0000BD1B9A168460CF0FBFC064631466846B3
:10060000FFF702FE01F02AFD64E0B7A168460CF096
:10061000EFFC064631466846FFF7F6FDA848002184
:100620004156A8480CF0A8FAA548002141560629D1
:100630000DDA19A9042000F066FDAFA168460CF0A0
:10064000D7FC064631466846FFF7DEFD3FE0AF487F
:10065000007800282ED0AEA168460CF0C9FC0646F2
:1006600031466846FFF7D0FDA84800214156AD4805
:100670000CF082FA924800214156924801F07DFB2D
:10068000002808D00021042002F08AF919A90320CB
:1006900000F039FD1BE0A4A168460CF0A9FC064659
:1006A00031466846FFF7B0FD19A9042000F02BFD84
:1006B0000DE010E0A2A168460CF09AFC0646314617
:1006C0006846FFF7A1FD19A9042000F01CFD0020D9
:1006D0007B4908701EE00A2C1CD17948007800285C
:1006E00015D19CA00068199001209B490870012138
:1006F00019A802F04BFC99A168460CF079FC06465B
:1007000031466846FFF780FD01F09FFC02E00020C3
:100710006B4908705E480069002808D000205B49DA
:10072000944A03460091019059480CF052FA9248BD
:100730000078012808D100209049914A0346009191
:10074000019090480CF045FA1AB070BD10B59AB0FF
:100750000320FFF781FE0120FFF795FE8AA101A883
:100760000CF046FC0446214601A8FFF74DFD01218F
:10077000042002F015F901207F4908708C488D494A
:10078000086001F083FA00204D4908708AA101A891
:100790000CF02EFC0446214601A8FFF735FD5B480E
:1007A000002282568EA101A80CF022FC04462146AC
:1007B00001A8FFF729FD00208E4908616F49704AA2
:1007C0000346009101906F480CF003FA1AB010BD77
:1007D00070B504460D4600210E2000F094FC70BD5B
:1007E0007CB504460D4629462046FFF789FE0020C9
:1007F0008149634A03460091019080480CF0E9F971
:10080000002D07D101F0EDFB0A2C03D100210E20B1
:1008100000F079FC1E480069002808D000201B4920
:10082000544A03460091019019480CF0D2F97CBD5E
:1008300070B59AB004460D4600206F49504A0346F1
:10084000009101906D480CF0C4F929462046FFF74D
:1008500057FE002DD4E00000680000206C65645B4A
:1008600025645D3D310A00006C65645B25645D3D77
:10087000300A0000456E7465722073616665736CA2
:10088000656570210D0A000018000000D704000003
:100890008802002050524553533A000072656C653F
:1008A0006173653A000000004C4F4E47205052459E
:1008B00053533A0025640A003000002025730A00D3
:1008C00021000020680200206964656E7469667901
:1008D0002E2E2E0A00000000696E707574206C6563
:1008E0006E203D2030210A0070617373776F72644F
:1008F00020696E7075743A00494E50555420544F1B
:100900004F2053484F5254210A000000400000205D
:1009100070617373776F726420726573746F726540
:100920003A0000005803002070617373776F72649F
:10093000206E6F7420636F7272656374210A000009
:100940006E6F2070617373776F7264207573657258
:10095000210A000019000000250000206F70656E5C
:1009600020766962726174696F6E20746573740AAF
:100970000000000060EA00001C000020B504000038
:1009800010270000100300205374617274496465DD
:100990006E74696679204C45445F554E4C4F434B0D
:1009A0005F4E554D20436C6F7365210A00000000B7
:1009B0008D050000280000206B65794576656E7412
:1009C00048616E646C6572203D204964656E74698F
:1009D00066794B657948616E646C65723B0A00000C
:1009E00070617373776F7264206C656E3D25640A65
:1009F00000000000E8020020D107000028030020CA
:100A000014D101F0EEFA0A2C20DAF94841571029E6
:100A10000DDAF84800780001F74A8218F448435785
:100A20000078401C40B2F24E3070D45497E0F14947
:100A300009780901F04A881810210CF04FF8ED49A7
:100A400009780901EC4A8918CC7388E00B2C77D11E
:100A5000E7480021415606290BDA01F0D1FAE7A157
:100A600001A80CF0C5FA0646314601A8FFF7CCFBF9
:100A700061E0E0480078401CDE49087008460078D4
:100A800002284CDBDA4800228256DB491031DA4872
:100A90000BF0E8FF002832D1D54800214156D64856
:100AA00001F041F901F0F2F8DBA101A80CF0A0FA85
:100AB0000646314601A8FFF7A7FB01F0AAFA01217B
:100AC000042001F06DFF0220E14908700020E14997
:100AD000E14A034600910190E0480CF07AF80120C9
:100AE000DF490870DF48E0490860E0A101A80CF088
:100AF0007FFA0646314601A8FFF786FB1BE001F0AE
:100B00009BFA0021042001F04BFFE2A101A80CF0A8
:100B10006FFA0646314601A8FFF776FB0BE001F0BD
:100B200066FAE0A101A80CF063FA0646314601A876
:100B3000FFF76AFB00BF0020AD4908700FE0FFE738
:100B40000A2C0CD1AA4800214156002903DD0020BF
:100B5000A749087003E000210E2000F0D4FAD7481E
:100B60000069002808D00020D549D64A03460091E4
:100B70000190D2480CF02DF81AB070BD70B59AB043
:100B800004460D46D0A101A80CF032FA06463146C3
:100B900001A8FFF739FB0121042001F001FF00202B
:100BA000AC49AD4A034600910190AC480CF011F8F5
:100BB00029462046FFF7A4FC002D3CD101F011FA94
:100BC0000A2C2BDA0120A2490870C248A649086005
:100BD000C1A101A80CF00CFA0646314601A8FFF7A6
:100BE00013FB002083490870C6A101A80CF000FA8D
:100BF0000646314601A8FFF707FBFF2210217E4879
:100C00000CF09BFBFF2210217B4810300CF095FB71
:100C100079490C700120764908700CE00B2C02D148
:100C200001F0E5F907E00A2C05D101F0E0F9002117
:100C30000E2000F068FAA1480069002808D00020C2
:100C40009F49A04A0346009101909C480BF0C1FFC8
:100C50001AB070BD70B59CB005460121042001F0AA
:100C60009FFE0024002D0BD009222046611CCCB22F
:100C70001AA90A540A222046611CCCB21AA90A54A5
:100C8000A9480078002814D0A8480021415614290A
:100C90000FDB29222046611CCCB21AA90A54A4A158
:100CA00001A80CF0A5F90646314601A8FFF7ACFAF9
:100CB00054E19D48007800283CD00320A0490870EA
:100CC00002206349087000206249634A034600918C
:100CD000019062480BF07DFF012061490870614876
:100CE0006149086061A101A80CF082F9064631460D
:100CF00001A8FFF789FA06222046611CCCB21AA986
:100D00000A5429222046611CCCB21AA90A54032293
:100D10002046611CCCB21AA90A5404222046611C48
:100D2000CCB21AA90A5405222046611CCCB21AA9D9
:100D30000A5413E17D4800214156142930DB052275
:100D40002046611CCCB21AA90A5429222046611CF3
:100D5000CCB21AA90A5403222046611CCCB21AA9AB
:100D60000A5404222046611CCCB21AA90A54062255
:100D70002046611CCCB21AA90A540320704908709D
:100D800001203349087053483749086052A101A82F
:100D90000CF02EF90646314601A8FFF735FADDE0E2
:100DA00003222046611CCCB21AA90A540422204610
:100DB000611CCCB21AA90A5406222046611CCCB28E
:100DC0001AA90A5407222046611CCCB21AA90A5457
:100DD00005222046611CCCB21AA90A5403205849A6
:100DE000087000201A49087056481F490860ABE097
:100DF000210000201E000020680200207061737333
:100E0000776F7264206C656E20697320746F6F2039
:100E100073686F7274210A00526573746F72655043
:100E2000617373776F72642C72656769737465722E
:100E30005374617465203D2046494E4745525052D7
:100E4000494E545F52454749535445523B0A0000AE
:100E50001D000020D10700001027000028030020FB
:100E60002D000020E1070000280000206B65794577
:100E700076656E7448616E646C6572203D205265C3
:100E80006746706D4B657948616E646C65723B0AAC
:100E90000000000052656769737465724661696C91
:100EA0000A000000696E70757420317374207469D3
:100EB0006D652066696E6973680A0000880200200B
:100EC000D704000060EA0000726567697374657298
:100ED0000A000000310800006B65794576656E7484
:100EE00048616E646C6572203D2052656750617385
:100EF00073776F72644B657948616E646C65723BA1
:100F00000A000000726567697374657253746174D6
:100F100065203D2050415353574F52445F5245473F
:100F200049535445523B0A00400000204100002034
:100F3000555345522049532046554C4C210A000038
:100F40001C0000207D0B0000F0A101A80CF050F85F
:100F50000646314601A8FFF757F900BF21461AA8F7
:100F600000F0F8FF1CB070BD10B59AB00220F14936
:100F700008700020F0490860F0A101A80CF038F8D2
:100F80000446214601A8FFF73FF9F9480BF05EFE41
:100F90000020F849F84A034600910190F7480BF009
:100FA00018FE0120FFF758FA0320FFF76CFAF4A1AE
:100FB00001A80CF01DF80446214601A8FFF724F90A
:100FC0001AB010BD70B504460D460021122000F085
:100FD0009AF870BD70B59AB005460E46F3A101A807
:100FE0000CF006F80446214601A8FFF70DF9D14898
:100FF0000278F3A101A80BF0FBFF0446214601A8EB
:10100000FFF702F900210B2000F07DF81AB070BD47
:1010100070B59AB004460420C6490870EC480470C4
:10102000ECA168460BF0E4FF064631466846FFF740
:10103000EBF8E7480078002801D0352000E03420A4
:101040000546E9A00068199018A80571022119A8A1
:1010500000F080FFE548E649C861B6480278D8A1AB
:1010600068460BF0C5FF064631466846FFF7CCF8E8
:101070000020E049C04A034600910190DE480BF091
:10108000A8FD1AB070BD70B59AB005460E46DBA13A
:1010900001A80BF0ADFF0446214601A8FFF7B4F804
:1010A000FFF754FB1AB070BD10B59CB0B0480BF000
:1010B000CDFDD7A000681B90D6A168460BF098FF25
:1010C000044621466846FFF79FF802211BA800F05E
:1010D00041FFD4A000681A9001211AA801F056FF20
:1010E000D1A0006819900020D0490870012119A8EA
:1010F00001F04CFF0020CE490870CE490870CE495F
:1011000008701CB010BD70B59AB004460D46234659
:1011100088480278C9A101A80BF06AFF064631464B
:1011200001A8FFF771F8152C1CD1CAA0006819900E
:10113000032119A800F00EFFC7A168460BF058FF65
:10114000064631466846FFF75FF80220FFF784F94C
:10115000C7A168460BF04CFF064631466846FFF7CC
:1011600053F800BF7348007803000CF070FB0604CE
:1011700007CCCBCAC9C8FFF7E9FAAFE3032C60D1AB
:10118000C2480078002802D1FFF78EFFD4E1C0A149
:1011900001A80BF02DFF0646314601A8FFF734F8F1
:1011A000A5480078002817D12878002805D102200A
:1011B000A149087000F037FFBEE101209E49087088
:1011C000BDA101A80BF014FF0646314601A8FFF7A8
:1011D0001BF800F043FFAFE197480078012823D1C6
:1011E000BCA101A80BF004FF0646314601A8FFF799
:1011F0000BF8287800280BD186A101A80BF0F8FE87
:101200000646314601A8FEF7FFFFFFF74DFF93E1C9
:10121000BBA101A80BF0ECFE0646314601A8FEF783
:10122000F3FF00F01BFF87E183480078022804D118
:101230002878002802D100F0F6FE7DE1FFF734FFA8
:101240007AE1042C46D14A480BF000FDB3480078FF
:10125000002806D1B2480078002802D1FFF724FF09
:101260006AE1B0A000681990022119A800F072FE8E
:10127000287801280ED16E480078401C6C4908700F
:101280000846007805281ADB002008700120FFF7C7
:10129000BFFE14E02878002811D166480078401C71
:1012A0006449087008460078032808DB00200870AD
:1012B0000021042001F074FB0120FFF7A9FE0020AB
:1012C00099497D22D20003460091019097480BF086
:1012D00080FC31E155480078002808D00A2C06D15E
:1012E0000020FFF795FE22480BF0B0FC24E1132C00
:1012F0000AD11F480BF0AAFCFFF736FE1CE1ECE216
:10130000EAE2B6E2CDE118E112E100006B65794551
:1013100076656E7448616E646C6572203D2057611D
:1013200069745265674B657948616E646C65723BA0
:101330000A0000001C00002028000020446F6F728B
:10134000206F70656E65642C6B65794576656E748B
:1013500048616E646C6572203D20446F6F724F70FF
:10136000656E4B657948616E646C65720A000000B9
:1013700010030020D704000060EA0000880200206B
:10138000476F746F446F6F724F70656E656453740E
:10139000617465204C45445F4C4F434B5F4E554D47
:1013A00020436C6F7365210A00000000414C4152DC
:1013B0004D5F54494D455F454E4F554748210A0002
:1013C0007379735374617465203D2025640A0000AD
:1013D000240000206670204552524F5220616C61FB
:1013E000726D210A0000000000F2000010270000CA
:1013F00068060020D50F0000A0020020526573741B
:101400006172744964656E74696679210A0000002E
:101410000D0E00004964656E7469667950617373DE
:101420000A000000170000001A000000250000203C
:101430002300002022000020200000207379735335
:10144000746174653D25642C6576656E743D256414
:101450000A0000000F031000626174746572792045
:10146000766F6C74616765206C6F772121210A00AB
:101470004C45445F424154544552595F4E554D20AE
:101480006F70656E2121210A000000001F000020FE
:101490006964656E746966795374617465203D3D55
:1014A00020574149545F424F54485F494E44455488
:1014B0004946590A00000000574149545F504153C2
:1014C00053574F52445F494E44454E544946590A7A
:1014D000000000006964656E746966795374617414
:1014E00065203D3D20574149545F50415353574F6C
:1014F00052445F494E44454E544946590A00000043
:10150000506C6179506C65617365496E707574508B
:10151000617373776F72640A00000000400000205E
:10152000410000200D0B0000871000004003002048
:10153000162C01D1FFF70AF9D0E1092C1ED1FE4883
:101540000078C043FC490870FCA168460BF050FDD0
:10155000064631466846FEF757FEFC48006819907B
:10156000F54A1278D207D20F511CF34A1278D207EB
:10157000920F19ABD01800F0EDFC91E00C2C12D1B9
:101580000120FEF780FF0020FEF766FFF0A101A812
:101590000BF02EFD0646314601A8FEF735FE002071
:1015A000FFF758FB7CE0102C1FD1F1A000681990C8
:1015B000012119A800F0CEFC0420FEF74DFF002009
:1015C000EC490860ECA168460BF012FD0646314676
:1015D0006846FEF719FE0020EC49ED4A03460091EB
:1015E0000190EC480BF0F5FA5AE0EA480069E74947
:1015F000884214D10020E849087000F0B1FBFFF7E1
:10160000B3FC0020E349086108460BF01FFBE3A090
:1016100000681990022119A800F09CFC40E0122CEF
:1016200009D1DFA000681990022119A800F092FCEE
:10163000FFF79AFC34E0142C32D10320FEF70CFFA4
:101640000120FEF720FF0021042001F0A9F9D5A117
:1016500001A80BF0CDFC0646314601A8FEF7D4FDEB
:101660000420FEF710FFDCA101A80BF0C1FC064628
:10167000314601A8FEF7C8FDE548E649C861FFF715
:1016800065F8E5A101A80BF0B3FC0646314601A8B8
:10169000FEF7BAFD0020E349086108460BF0D6FAD0
:1016A0001CE10E2C2DD10020FEF7EDFE00210420C0
:1016B00001F076F9DCA168460BF09AFC064631464B
:1016C0006846FEF7A1FDFFF74FFCE4A00068199003
:1016D000012119A800F03EFCE1A168460BF088FC4E
:1016E000064631466846FEF78FFDE1480278E1493B
:1016F00068460BF07DFC064631466846FEF784FDE1
:10170000B6E0142C3AD10020FEF7BDFEDAA16846FF
:101710000BF06EFC064631466846FEF775FD032069
:10172000FEF79AFE0120FEF7AEFE0021042001F034
:1017300037F9DDA168460BF05BFC0646314668468A
:10174000FEF762FDC5A000681990012119A800F0FC
:1017500001FCAF48AF49C861FEF7F8FFAEA168468B
:101760000BF046FC064631466846FEF74DFD00206C
:10177000AC49086108460BF069FA79E0D74800786F
:1017800000281CD1052C1AD1D549A14A0346009145
:101790000190D4480BF01DFA0220D04908700120B6
:1017A000D1490870D14873490860D14901A80BF0AC
:1017B0001FFC0646314601A8FEF726FD58E0C74843
:1017C0000078002811D1062C0FD1C549904A034654
:1017D00000910190C3480BF0FCF9C6A00068199075
:1017E000022119A800F0B6FB42E0BC4800780228AC
:1017F0003ED1052C19D10020B949854A03460091F4
:101800000190B8480BF0E5F9B7480078401CB6499C
:1018100008700846007805282ADCB7A000681990EF
:10182000032119A800F096FB22E0062C00D014D169
:101830000020AB49764A034600910190A9480BF07D
:10184000C8F90120A8490870ACA103C919911890E2
:10185000052118A800F07EFB0AE0072C08D14E48AD
:101860000078401C40B24C4908700120FFF7F2F9A3
:1018700034E0032C16D1A3A101A80BF0B9FB064656
:10188000314601A8FEF7C0FCFEF760FF00F07AFBCE
:10189000A6A101A80BF0ACFB0646314601A8FEF755
:1018A000B3FC18E00B2C16D1A4A101A80BF0A0FBEF
:1018B0000646314601A8FEF7A7FC00F063FBFEF7E1
:1018C00045FFA8A101A80BF093FB0646314601A8ED
:1018D000FEF79AFC00BF01E000E000BF00BF1AB0B5
:1018E00070BD70B504460D46A249A3480078FFF7C5
:1018F0000AFC70BD7047704710B59AB000205C4973
:1019000008701C4908609DA101A80BF071FB0446FA
:10191000214601A8FEF778FC9EA101A80BF068FB08
:101920000446214601A8FEF76FFC00F0AFF9002045
:101930003C4908611AB010BD1F0000206D6F64653E
:10194000207377697463680A0000000074DA00008D
:1019500052454749535445525F434D44204C4544FA
:101960005F5345545F4E554D204F50454E210A0060
:101970000C00000028000020726573746F726520EF
:10198000666163746F72790A00000000C50F000081
:10199000B80B0000E8020020410000200C0A000003
:1019A0000C0B0000444F4F525F4F50454E5F535455
:1019B00041544520444F4F525F434C4F5345204CB8
:1019C00045445F554E4C4F434B5F4E554D20436C45
:1019D0006F7365210A000000444F4F525F4F50451E
:1019E0004E5F535441544520444F4F525F434C4F38
:1019F0005345204C45445F544F5543485F424F4147
:101A000052445F4E554D20436C6F7365210A0000B0
:101A10001027000068060020444F4F5220434C4FCF
:101A200053450A0088020020524547495354455205
:101A30005F535441544520455849545F52454749E6
:101A400053544552204C45445F5345545F4E554DC9
:101A500020436C6F7365210A000000002D00000018
:101A6000455849542072656769737465720A0000AD
:101A70001C000020C01300005245474953544552F2
:101A80005F535441544520444F4F525F434C4F5392
:101A900045204C45445F5345545F4E554D20436CA3
:101AA0006F7365210A00000052454749535445525F
:101AB0005F535441544520444F4F525F434C4F5362
:101AC00045204C45445F554E4C4F434B5F4E554D62
:101AD00020436C6F7365210A000000001D00002088
:101AE000D1070000280300202D000020E10700009E
:101AF0006C0E0000090B000003080400090B03131F
:101B000004000000456E74657220414C41524D5FE7
:101B10005354415445204944454E544946595F5316
:101B2000554343455353210A0000000072656D6F11
:101B3000766520616C61726D0A000000456E746507
:101B40007220414C41524D5F535441544520414C09
:101B500041524D5F54494D455F454E4F55474821D1
:101B60000A00000074696D6520656E6F7567680A0C
:101B700000000000000300202C0000206B65794568
:101B800076656E7448616E646C65723D4E554C4C62
:101B90003B0A00007374617465203D20494E49542E
:101BA0005F53544154453B0A0000000070B50446A1
:101BB0000D463148844205D102210C202F4A12687B
:101BC000904707E02E48844204D102210D202B4A81
:101BD0001268904770BD7CB504460D4629462046E4
:101BE000FEF78EFC012D17D10C2C0BD12248006979
:101BF000002807D020480BF029F800210C20FFF71F
:101C000082FA38E00D2C36D11D480069002832D008
:101C10001B480BF01BF82EE0002D17D10C2C09D11E
:101C200000201849184A03460091019012480AF012
:101C3000D0FF20E00D2C1ED100201249124A03468D
:101C4000009101900E480AF0C4FF14E0022D12D159
:101C50000C2C07D100200849086100211020FFF753
:101C600052FA08E00D2C06D100210920FFF74BFAAB
:101C70000020034908617CBDB80200202800002034
:101C8000D0020020AD1B0000B80B0000F0B59FB0E3
:101C900047A102A80BF0ACF9019002A80199FEF748
:101CA000B3FA1BAD05263605002700BF02E001CEC2
:101CB00001C57F1C042FFADB41A102A80BF098F9A3
:101CC000019002A80199FEF79FFA10211BA80AF0C3
:101CD00053FF18A8447B007B5A281AD121461BA821
:101CE00002300AF006FF1BAAA11C515C884210D1E9
:101CF0001BA9E01C085CA5280BD118A8407B40B2AA
:101D00003249087022461BA9023131480BF0D4FA3F
:101D100007E0FF220C212E480BF00FFB00202B497F
:101D200008701FB0F0BD7FB505460C465A216846C5
:101D30000170447022462946801C0BF0BDFA2146F2
:101D400028460AF0D6FEC1B26A46A01C1154A5214D
:101D5000E01C11541021052000050BF0FDFD7FBD96
:101D600010B5FF220C211A480BF0E7FA05200005F8
:101D70000BF09FFDFFF78AFF10BD70B505460E46BC
:101D8000002400BF0BE02819104900228A56104990
:101D90000AF068FE002801D1012070BD641C0B48C8
:101DA00000214156701AA042EDDA0020F5E700004C
:101DB00052454144207061737320776F72640A004A
:101DC0007265616420666C6173683A0040000020AF
:101DD0005803002010B504220221012002F0AAFDC0
:101DE00001220321022002F0A5FDE121082008F0D4
:101DF00011F80020F9498870087010BD10B59AB02C
:101E0000082008F001F8F6A101A80BF0F1F804464B
:101E1000214601A8FEF7F8F91AB010BDEF49087184
:101E20000021EE4A51700022EC4960310A72012211
:101E30004A720121E94A11700022E84940314A857D
:101E400020310A7370477047704730B50246002052
:101E500010E0135CFA2B00D110E0F3244500DF4BB7
:101E60001B1D5C55155C43005B1CDC4C241DE554BC
:101E7000431CD8B2312801DA8842EADB00BF0023D4
:101E8000D64C63700024D54B60331C7243061C0E85
:101E9000D24B60335C720123D04C23700024CF4BB3
:101EA00040335C8520331C7330BD10B501460020E3
:101EB00014E00A5CFA2A00D112E0F3234400C74A76
:101EC000121D13550A5CCB4B1B78D218D4B24200BA
:101ED000521CC24B1B1D9C54421CD0B23128E8DB63
:101EE00000BF0022BD4B5A700023BC4A60321372FF
:101EF0004206130EB94A603253720122B74B1A7070
:101F00000023B64A403253852032137310BD18B5F2
:101F1000044668460470FA214170FFF7C6FF18BDF9
:101F200018B5044621786846017061784170FA213D
:101F30008170FFF7BAFF18BD18B5044621786846CE
:101F4000017061784170A1788170FA21C170FFF74A
:101F5000ACFF18BDF8B506460C46671C38460AF0BB
:101F6000EFFF0546002002E0315C2954401CA042EE
:101F7000FADBFA2028552846FFF797FF28460BF092
:101F800010F8F8BD0020FE2243009449091DCA54F0
:101F90000021924A51700022904960310A7241003A
:101FA0008E4A603251720121603A117000228B49D1
:101FB00040314A8520310A73704700B50346184600
:101FC000FFF72CFF00BD00B5FE20FFF727FF00BD87
:101FD00000B503461946E031C8B2FFF71FFF00BD48
:101FE000704710B532242046FFF791FF10BD08B5A9
:101FF00081A00068009003216846FFF7ABFF08BD91
:1020000008B57EA00068009003216846FFF7A2FF94
:1020100008BD1CB57AA103C901910090062168464C
:10202000FFF798FF1CBD08B577A00068009003215A
:102030006846FFF78FFF08BD08B574A000680090E0
:1020400002216846FFF786FF08BD08B570A000684A
:10205000009002216846FFF77DFF08BD08B56DA01E
:102060000068009003216846FFF774FF08BD00B5C3
:102070005A488078002804DD58488078401E574927
:10208000887056488078002871D154480078030041
:102090000BF0DDFB05052B45809C040000BF00BF55
:1020A00004215D48417400BF807808210840002861
:1020B00014D04A484030408D5849884208DA474891
:1020C0004030408D401C81B24448403041850BE097
:1020D0000021C94341486030017305E000213F48B9
:1020E000403041852030017376E04B484078042130
:1020F0000840002808D000BF47487030417000BF3A
:1021000011203649887009E00220344908700846D9
:102110006030017A5C38405C3049C8705CE03E4811
:10212000407804210840002811D100BF3A4841748A
:1021300000BF2A48C078C007C00F002803D0032082
:102140002649887025E001202449887021E000BFDD
:10215000042131487030417000BF2048C078C0076A
:10216000C00F002804D001201C49887003E034E02F
:1021700003201A4988701948C07840101749C87060
:1021800008464078401CC0B24870082801DB032094
:10219000087021E000BF04211F48417400BF0F48B0
:1021A0006030007A401CC1B20C4860300172017A84
:1021B000407A814203DA04200849087002E00020D6
:1021C0000649087001200549887005E0012003498F
:1021D00008700020487000BF00BF00BD68030020E9
:1021E000766F69636520706C6179657220736C65C8
:1021F00065700A0044000020030804000313040073
:1022000006090A030405000003040500090B000089
:10221000000100000304060000000440DC0500008B
:10222000F8B506460C4615466846047045701423FA
:1022300002226946304602F0DBFC00BFFE4800780F
:102240000028FBD0F8BD10B53A22AF212A20FFF7B5
:10225000E7FF00221F212A20FFF7E2FF41221F2172
:102260002A20FFF7DDFF0220F449087010BD10B5E9
:10227000FFF7E9FF0121084602F08EFF012003F07D
:102280007CF80020EE49086010BD70B59AB0044695
:102290000D46EC480068002804D029462046E94A4B
:1022A000126890472B462246E7A101A80AF0A0FE3B
:1022B0000646314601A8FDF7A7FF1AB070BD7FB5ED
:1022C000064614461D461423012201A9304602F099
:1022D0008FFC00BFD84800780028FBD014232A4682
:1022E0002146304602F0B9FC00BFDE4800780028E5
:1022F000FBD07FBDF0B585B00746002400200290DA
:1023000003900025052302AA21212A20FFF7D7FFE9
:102310006846807A01026846407A01430D46684665
:10232000017A407A09186846807A09186846007B65
:102330000818C530C6B2002E10D100BF0CE0CA4A42
:102340001119CA4A135D01229A402A401046C84B0F
:1023500022460AF0B1FC641C0C2CF0DB0020C549BD
:102360002822034600910190C3480AF032FC05B0D0
:10237000F0BD30B599B00024C0A168460AF038FE1F
:10238000054629466846FDF73FFF02F09DFB012008
:10239000A9490870B349087004220221084602F0D6
:1023A000C9FA00BF0421B848817000BF0A20FDF7B8
:1023B00023FF00BF0421B4487038817400BFC820D7
:1023C000FDF71AFF3A22AF212A20FFF729FF01204B
:1023D000FDF712FF00221F212A20FFF721FF012015
:1023E000FDF70AFF182212212A20FFF719FF01200A
:1023F000FDF702FF032213212A20FFF711FF01201E
:10240000FDF7FAFEFF2214212A20FFF709FF012021
:10241000FDF7F2FE0F2215212A20FFF701FF012010
:10242000FDF7EAFEFF221E212A20FFF7F9FE012018
:10243000FDF7E2FE00222B212A20FFF7F1FE01200A
:10244000FDF7DAFE01222C212A20FFF7E9FE012008
:10245000FDF7D2FE062230212A20FFF7E1FE0120FF
:10246000FDF7CAFE012231212A20FFF7D9FE012003
:10247000FDF7C2FEFF2232212A20FFF7D1FE012004
:10248000FDF7BAFEFF22B0212A20FFF7C9FE012086
:10249000FDF7B2FE0F22B1212A20FFF7C1FE012075
:1024A000FDF7AAFEC822E0212A20FFF7B9FE01208D
:1024B000FDF7A2FEC822E1212A20FFF7B1FE01208C
:1024C000FDF79AFEC822E2212A20FFF7A9FE01208B
:1024D000FDF792FEC822E3212A20FFF7A1FE01208A
:1024E000FDF78AFE9622E4212A20FFF799FE0120BB
:1024F000FDF782FEC822E5212A20FFF791FE012088
:10250000FDF77AFEC822E6212A20FFF789FE012086
:10251000FDF772FEC822E7212A20FFF781FE012085
:10252000FDF76AFEC822E8212A20FFF779FE012084
:10253000FDF762FEC822E9212A20FFF771FE012083
:10254000FDF75AFE6422EA212A20FFF769FE0120E6
:10255000FDF752FEC822EB212A20FFF761FE012081
:10256000FDF74AFE01221F212A20FFF759FE012014
:10257000FDF742FE03203149087000BF03E0002050
:1025800039490855641C0C2CF9DB40A168460AF057
:102590002FFD054629466846FDF736FE00203549E1
:1025A0004B22D20003460091019033480AF011FB00
:1025B00019B030BD10B5FFF7DCFE10BD37B50546CC
:1025C00014461423012201A9284602F011FB00BF82
:1025D000194800780028FBD00120FDF70DFE1423D8
:1025E00001222146284602F038FB00BF1D48007832
:1025F0000028FBD03EBD10B53A22AF212A20FFF7BC
:102600000FFE0120FDF7F8FD00221F212A20FFF711
:1026100007FE0120FDF7F0FDC822E0212A20FFF788
:10262000FFFD0120FDF7E8FDC822E1212A20FFF788
:10263000F7FD012034E00000E200002058000020F7
:10264000E4000020280000204B657956616C756518
:10265000203D2025642C6576656E74203D20256420
:102660000A000000E30000200804002078DA0000DF
:102670008B220000F5220000F003002043534B3171
:10268000345F496E69740A007000044043534B2064
:10269000494E49542046494E4953480A000000001B
:1026A000FDF7AAFDC822E2212A20FFF7B9FD01208B
:1026B000FDF7A2FDC822E3212A20FFF7B1FD01208A
:1026C000FDF79AFD9622E4212A20FFF7A9FD0120BB
:1026D000FDF792FDC822E5212A20FFF7A1FD012088
:1026E000FDF78AFDC822E6212A20FFF799FD012087
:1026F000FDF782FDC822E7212A20FFF791FD012086
:10270000FDF77AFDC822E8212A20FFF789FD012084
:10271000FDF772FDC822E9212A20FFF781FD012083
:10272000FDF76AFD6422EA212A20FFF779FD0120E6
:10273000FDF762FDC822EB212A20FFF771FD012081
:10274000FDF75AFD01221F212A20FFF769FD032012
:102750002C49087010BD10B53A22AF212A20FFF78E
:102760005FFD00221F212A20FFF75AFD10BD10B582
:102770003A22AF212A20FFF753FD01221F212A20F0
:10278000FFF74EFD10BD10B53A22AF212A20FFF70A
:1027900047FD0120FDF730FD00221F212A20FFF711
:1027A0003FFD0120FDF728FD80221F212A20FFF791
:1027B00037FD0120FDF720FD04201249087010BDEF
:1027C000FFB581B00E4617461C46601C009000986D
:1027D0000AF0B6FB05462E7022463946681C0AF000
:1027E0006BFD1423621C2946019802F001FA00BF18
:1027F000054800780028FBD028460AF0D2FB05B037
:10280000F0BD000058000020E20000207CB5044626
:102810000D46002207210D2002F08CF800221146FF
:10282000022002F087F800221146042002F082F80C
:102830008548864900228A56805C002864D00A4672
:102840000023D3565A00824BD21852785200814B43
:10285000D21851787D4A0023D3565A007C4BD218A7
:10286000527852007B4B985C042202F063F8774A5E
:102870000023D3565A00764B9A5C5200754BD218FF
:102880005178724A0023D3565A00714B9A5C520019
:10289000704B985C042202F04DF800BF6B48002199
:1028A000415648006A49401840784000694940183C
:1028B000417801208840C1B26748644A0023D3565A
:1028C0005A00634BD21852785200624B9A5C815482
:1028D00000BF00BF5D480021415648005C49085CCC
:1028E000400019464018417801208840C1B25A483A
:1028F0006038564A0023D3565A00554B9A5C520012
:10290000544B9A5C815400BF50480078401C40B240
:102910004E490870084600214156042902DB002078
:102920004A49087000204D49052203460091019054
:102930004B480AF04EF97CBD30B599B00024042212
:1029400011460C2001F0F6FF002207210D2001F0B6
:10295000F1FF00221146022001F0ECFF0022114697
:10296000042001F0E7FF3FA168460AF041FB05465D
:1029700029466846FDF748FC00BF03E000203249C5
:102980000855641C042CF9DB002034497D22D20058
:1029900003460091019032480AF01BF919B030BD8E
:1029A00070B59AB004460D46042C20DB002D0FD0E4
:1029B00000BF102128487038017700BF2DA101A861
:1029C0000AF016FB0646314601A8FDF71DFC0EE095
:1029D00000BF10212048017300BF2AA101A80AF0FE
:1029E00007FB0646314601A8FDF70EFC00BF1AB0F2
:1029F00070BD10B59AB027A101A80AF0F9FA0446F3
:102A0000214601A8FDF700FC002207210D2001F05E
:102A100091FF00221146022001F08CFF0022114696
:102A2000042001F087FF00BF10210B48017300BF95
:102A30001DA101A80AF0DCFA0446214601A8FDF711
:102A4000E3FB1AB010BD00006800002078000020F1
:102A50008ADA000084DA0000700004400D280000CB
:102A600018040020434C4F53455F414C4C5F4C458C
:102A7000440A00006B6579426F617264206F706573
:102A80006E2100006B6579426F61726420636C6F28
:102A900073652100454E544552204C6564536C6566
:102AA0006570210D0A0000006C656420736C65651B
:102AB000700A0000FE48007B40084000FC49087393
:102AC000704710B5FA4A3621515E3823D35E581C40
:102AD0000AF046FCF6483422825E914216D000BFCE
:102AE000F4480178F2483822825E008F401C03B21D
:102AF000EF480387006B8154ED4A3621515E382040
:102B0000105E0AF02DFCEA48018700BF0121E94868
:102B100005F08AF910BD30B599B004466378227883
:102B2000E5A168460AF064FA054629466846FDF7BD
:102B30006BFB6178A01C0AF01FF8AA20DC494873DF
:102B40006178DB4881732178C1736278A11C1030F1
:102B50000AF0B2FB6078811CD5480E3009F0D6FF30
:102B600001466078C01CD24A0D321154BB226078F5
:102B7000001DCF490D310A546078411DCC480D30FD
:102B800005F061F919B030BD10B59AB0D34800789E
:102B900001281FD1D24800684378D1480068827864
:102BA000D0A101A80AF024FA0446214601A8FDF7A5
:102BB0002BFBCB4800684178C9480068C01C09F06D
:102BC000DBFFC749096888780021FEF79CFA0020DE
:102BD000C24908701AB010BDF0B599B006460D464E
:102BE000BF4806600068002801D0002D02DC0020EC
:102BF00019B0F0BDB948007800286BD1B84800681A
:102C00000078AA2801D00120F2E7022D01DA002085
:102C1000EEE7B34800684078142801DD0120E7E7BB
:102C2000AF4800684478601D854201DA0020DFE784
:102C3000AB480168201D085CBB280BD1A11CA8482B
:102C40000068401C09F062FFA5490A68E11C515C5C
:102C5000884201D00120CBE70120A0490870AAA139
:102C600068460AF0C5F9074639466846FDF7CCFACA
:102C70009B480068807880282CDB8D48007B80078B
:102C8000C00F002826D08A48024601680420105E42
:102C90000C225043085C924909688978884219D10E
:102CA0008348007B022188438149087300BF08469E
:102CB0008088401C00B288800A460621515E0420AC
:102CC000105E0AF04DFB7A48818000BF0021603021
:102CD000017300BF601D8BE77CB504460D461EE006
:102CE00000BF7348016B3422825E895CC26D3C3048
:102CF000815400BF3C38808E401C01B26C488186F4
:102D000002463621515E3420105E0AF029FB6848E5
:102D1000818600BF00BFC06D401C6549C86564481E
:102D2000C06D202806DA62483421415E3822825E76
:102D30009142D5D15E48007B4007C00F002808D1E2
:102D40005B4A5C3211462039734809F0ECFEFFF70C
:102D50001BFF5748007BC007C00F002879D154489B
:102D6000007B4007C00F002810D05148007B042191
:102D700088434F4908730846007B40084000401CC8
:102D8000087308466030FFF7C6FE62E04848007BE3
:102D90008007C00F00283FD045486030007B401CB2
:102DA00041B2434860300173007B0A2804D0404898
:102DB0006030007B142810D13D48007B4008400063
:102DC000401C3B4908730B460A680421595E0C23DA
:102DD00059435018FFF79FFE3BE0354860300C2107
:102DE00041561E2935DB002101736038007B02212A
:102DF00088432F49087300BF08468088401C00B2F2
:102E000088800A460621515E0420105E0AF0A8FA66
:102E10002748818000BF1CE025490420085E082265
:102E20008A5E904215D00846007B40084000401C56
:102E300008730846007B02218843801C1C490873E4
:102E40000B460A680421595E0C2359435018FFF7BA
:102E500062FE002031490122034600910190304872
:102E600009F0B7FE7CBD10B59AB009F0FFFFE12173
:102E700049022C48006804F02EFF01210D4804F09F
:102E8000D3FF29A101A80AF0B3F80446214601A8FE
:102E9000FDF7BAF900BF27480549086000200881FE
:102EA00088800520C88000BF0846007B400843E0BA
:102EB000300400207C000020544F554348207365A7
:102EC0006E6420636D643A253032782C6C656E3AFE
:102ED00025642C6275660A3A000000008C00002010
:102EE00090000020544F554348207265637620635C
:102EF0006D643A253032782C6C656E3A25642C620C
:102F000075663A0D0A000000527848616E646C657F
:102F1000722072756E210A00D92B0000D92C000096
:102F20000005002064020020756172743220696E11
:102F300069740A00A0040020400008730846007B62
:102F400002218843BF4908730846007B0421884357
:102F5000BC49087300BFBC4808630021B948018719
:102F600081862021C18600BF0020B649C8650021A6
:102F7000B448603001730020B4490A22034600912E
:102F80000190B34809F025FE1AB010BD70B5054692
:102F90000E460024002D01D0002E00DC70BD0C2058
:102FA00009F0CEFF0446002C00D1F7E766702878C0
:102FB00020702046FFF7AFFD204609F0F2FF00BF6A
:102FC000ECE73EB505460C46002C31D19021684611
:102FD0000170022141708570C4709A4A0621515EC9
:102FE000134608229A5E501C0AF0BAF9954804224A
:102FF000825E91421BD000BF02460821515E1289B9
:10300000521C12B203461A810C2251430246126826
:1030100088180C2269460AF04FF98A4A0621515E47
:103020000820105E0AF09CF98648018100BF00BFAD
:103030003EBD30B59DB00446A02118A80172012103
:10304000417284727F4A0621515E134608229A5EBD
:10305000501C0AF085F97B480422825E91421BD005
:1030600000BF02460821515E1289521C12B203466B
:103070001A810C2251430246126888180C221AA9A0
:103080000AF01AF96F4A0621515E0820105E0AF014
:1030900067F96C48018109E06EA101A809F0A8FF59
:1030A0000546294601A8FDF7AFF800BF1DB030BDA9
:1030B00030B59DB00446A12118A8017201214172CA
:1030C0008472604A0621515E134608229A5E501CA3
:1030D0000AF046F95B480422825E91421BD000BF91
:1030E00002460821515E1289521C12B203461A810F
:1030F0000C2251430246126888180C221AA90AF0C1
:10310000DBF8504A0621515E0820105E0AF028F9CB
:103110004C48018109E04FA101A809F069FF05466B
:10312000294601A8FDF770F800BF1DB030BD30B5CD
:103130009DB00446A22118A8017201214172847237
:10314000404A0621515E134608229A5E501C0AF03E
:1031500007F93C480422825E91421BD000BF024620
:103160000821515E1289521C12B203461A810C22A8
:1031700051430246126888180C221AA90AF09CF8DA
:10318000304A0621515E0820105E0AF0E9F82D4809
:10319000018109E02FA101A809F02AFF054629466F
:1031A00001A8FDF731F800BF1DB030BD30B59DB0AE
:1031B0000446A32118A80172012141728472214A98
:1031C0000621515E134608229A5E501C0AF0C8F888
:1031D0001C480422825E91421BD000BF0246082197
:1031E000515E1289521C12B203461A810C225143BD
:1031F0000246126888180C221AA90AF05DF8114AD2
:103200000621515E0820105E0AF0AAF80D480181DF
:1032100009E010A101A809F0EBFE0546294601A826
:10322000FCF7F2FF00BF1DB030BD10B59AB00EA183
:1032300001A809F0DDFE0446214601A8FCF7E4FFE1
:103240001AB010BD30040020DC040020D92C00008E
:10325000000500205458205155455545204953201C
:1032600046554C4C0A000000636F6D5F6D61696EDE
:1032700020736C6565700A000020FE49087548756A
:1032800070470021FB4860308176C1767047F8B501
:10329000F8486030C07E022800D0F8BDF548407F75
:1032A0000102F448807F0818093085B2642D05DBDF
:1032B0000021F04860308176C176EEE7002406E018
:1032C000EC481630015DEC480155601C84B2AC42FC
:1032D000F6DB0021E74860308176C17600260624BF
:1032E00005E0E548005D801986B2601C84B2A81E26
:1032F000A042F6DCE049085C0202681E085C101877
:1033000080B200900098864206D00121DA485C30F5
:103310000172FA218172C0E7D748001F807A07281E
:103320001CD10121D4485C3001726038417B60308F
:1033300081726038807B0102CF48001FC07B081873
:10334000CD49091F08800846007C0102CA48001FB9
:10335000407C0818C849091F488004E00121C6487C
:103360005C3001728172C5480769002F04D009F0F2
:103370006DFC0021C148B84700BF8EE770B5054617
:103380000C46BF480078002810D1002D01D0002C39
:1033900001D1002070BD22462946BA4809F08CFFB1
:1033A0002146B84803F09FFB0120F3E70020F1E736
:1033B0000EB5B5A207CA6B4607C30C216846FFF7D6
:1033C000DDFFFFF75EFF0EBD0EB5B2A207CA6B466A
:1033D00007C30C216846FFF7D1FFFFF752FF0EBD70
:1033E0007FB50646AEA30FCB6C460FC46846867207
:1033F0000025062405E06846005D401985B2601C82
:10340000C4B20B2CF7DB29126846C17205730D217B
:10341000FFF7B4FFFFF735FF7FBD0EB5A4A207CAC3
:103420006B4607C30C216846FFF7A8FFFFF729FF8B
:103430000EBDF0B585B007460C46A0A001460EC9EA
:10344000C0686D460EC50390684687722112C1722E
:1034500004730026062505E06846405D801986B2A3
:10346000681CC5B20D2DF7DB3112684641738673B7
:103470000F21FFF783FFFFF704FF05B0F0BDF7B59D
:1034800086B00C461546142290A101A8FCF774FEE4
:1034900069460698887321126846C173047429121C
:1034A000417485740027062605E001A8805DC019D7
:1034B00087B2701CC6B20F2EF7DB39126846C17492
:1034C0000775112101A8FFF759FFFFF7DAFE09B0D0
:1034D000F0BDF0B585B004460D4681A001460EC989
:1034E000C0686E460EC60390211268468172C4728F
:1034F0002912017345730027062605E06846805DA2
:10350000C01987B2701CC6B20E2EF7DB391268469E
:103510008173C7731021FFF731FFFFF7B2FE05B0CB
:10352000F0BD0EB572A207CA6B4607C30C216846F0
:10353000FFF724FFFFF7A5FE0EBD1FB56FA30FCB4E
:103540006C460FC40D216846FFF718FFFFF799FE80
:103550001FBD0EB56DA207CA6B4607C30C21684696
:10356000FFF70CFFFFF78DFE0EBD7FB56AA30FCBF3
:103570006C460FC40024062505E06846405D00192E
:1035800084B2681CC5B20B2DF7DB21126846C172EC
:1035900004730D21FFF7F2FEFFF773FE7FBD70B5D8
:1035A00086B00446142260A101A8FCF7E5FD2112B3
:1035B00068468173C4730025062605E001A8805D76
:1035C000401985B2701CC6B20F2EF7DB291268466F
:1035D000C1740575112101A8FFF7D0FEFFF751FE58
:1035E00006B070BDFFB585B006460F4653A0014634
:1035F0000EC9C06801AC0EC4049068468673C773D8
:10360000079901746946089848740025062405E066
:1036100001A8005D401985B2601CC4B20E2CF7DB16
:10362000291268468174C574102101A8FFF7A6FE0F
:10363000FFF727FE09B0F0BD7FB5064643A30FCBC9
:103640006C460FC46846C6720025062405E068462D
:10365000005D401985B2601CC4B20C2CF7DB291246
:103660006846017345730E21FFF788FEFFF709FED8
:103670007FBD000018050020CC050020B00500200B
:10368000BB00002034060020EF01FFFFFFFF010018
:1036900003010005EF01FFFFFFFF01000329002DDB
:1036A000EF01FFFFFFFF0100040200000500000022
:1036B000EF01FFFFFFFF010003050009EF01FFFF1E
:1036C000FFFF01000606000000000000EF01FFFF01
:1036D000FFFF0100080400000000000000000000DF
:1036E000EF01FFFFFFFF0100070C000000000000DA
:1036F000EF01FFFFFFFF0100030D0011EF01FFFFCE
:10370000FFFF01000434000039000000EF01FFFF5B
:10371000FFFF0100031D0021EF01FFFFFFFF01007C
:10372000041F000039000000EF01FFFFFFFF010050
:10373000083100010200CF0039000000EF01FFFF57
:10374000FFFF0100073C000000000039EF01FFFF10
:10375000FFFF0100050E0500003900007FB5F8A34A
:103760000FCB6C460FC405206946C872002406259D
:1037700005E06846405D001984B2681CC5B20C2D96
:10378000F7DB21126846017344730E21FFF7F6FD43
:10379000FFF777FD7FBD0EB5EDA207CA6B4607C3E5
:1037A0000C216846FFF7EAFDFFF76BFD0EBD1FB564
:1037B000EA4B0FCB6C460FC40D216846FFF7DEFDC8
:1037C000FFF75FFD1FBD10B5FFF761FD10BD1CB514
:1037D0000446E34804700021E2480172FF232246B8
:1037E00021460120FFF7FEFE0020DF49FF222D3297
:1037F000034600910190DD4809F0EBF91CBD70B55E
:103800009AB005460E46D748007A01280FD1D8480D
:10381000007880218843D6490870D6A101A809F014
:10382000E7FB0446214601A8FCF7EEFC33E0D6A1F5
:1038300001A809F0DDFB0446214601A8FCF7E4FCE1
:10384000D7480078401CD6490870084600780228FE
:103850000FDB00200870D3A101A809F0C9FB0446C2
:10386000214601A8FCF7D0FCBD480078FFF7AFFF68
:1038700011E0D3A101A809F0BBFB0446214601A831
:10388000FCF7C2FC0020B849C82203460091019011
:10389000B64809F09EF91AB070BDF8B50746002089
:1038A000CC490870AF48007A01282CD1AD48807A05
:1038B000002828D1002500241FE000261AE0204619
:1038C0000A30A8495C39085CC007C00F002806D040
:1038D000142D04DABF480078401CBE490870204609
:1038E0000A30A0495C39085C421020460A300A546C
:1038F0006D1C761C082EE2DB641C202CDDDBB54839
:103900000078FFF796FBF8BD70B59AB004460D46F7
:103910009448007A012829D10020A14908709149D2
:10392000887AFFF743FC8F48807A002809D1AAA142
:1039300001A809F05DFB0646314601A8FCF764FCCE
:103940003EE0AAA101A809F053FB0646314601A8B2
:10395000FCF75AFC8348827AA9A101A809F048FB28
:103960000646314601A8FCF74FFC29E08C48007858
:10397000401C8B4908700846007802280EDB0020A6
:103980000870A3A101A809F033FB0646314601A83F
:10399000FCF73AFCFF20FFF709FC11E0A2A101A807
:1039A00009F026FB0646314601A8FCF72DFC002055
:1039B000A34964220346009101906C4809F009F97B
:1039C0001AB070BD1CB504469E48047000216548BD
:1039D00001729C4801780120FFF72BFD00209849D7
:1039E000C822034600910190604809F0F2F81CBD1E
:1039F00070B59AB004460D465A48007A01282DD178
:103A00000020674908705749887AFFF7CFFB55486F
:103A1000807A00280DD18CA101A809F0E9FA0646A8
:103A2000314601A8FCF7F0FB86480078FFF7CAFF93
:103A30003EE08AA101A809F0DBFA0646314601A85A
:103A4000FCF7E2FB4748827A6DA101A809F0D0FAA1
:103A50000646314601A8FCF7D7FB29E0504800781C
:103A6000401C4F4908700846007802280EDB0020F1
:103A7000087067A101A809F0BBFA0646314601A803
:103A8000FCF7C2FBFF20FFF791FB11E078A101A832
:103A900009F0AEFA0646314601A8FCF7B5FB002056
:103AA00079496422034600910190304809F091F869
:103AB0001AB070BD1CB50446624804700021294844
:103AC0000172FFF7AAFC00206F49C822034600914B
:103AD0000190264809F07DF81CBD70B59AB00546E6
:103AE0000E462048007A012809D168A101A809F0F2
:103AF0007FFA0446214601A8FCF786FBF6E067A1A1
:103B000001A809F075FA0446214601A8FCF77CFBE0
:103B100023480078401C2249087008460078022893
:103B20000DDB0020087061A101A809F061FA0446CC
:103B3000214601A8FCF768FB00F0DAF8D6E0C3E004
:103B4000EF01FFFFFFFF0100050E08000039000034
:103B5000EF01FFFFFFFF010003330037FC360000D9
:103B6000AA00002028060020FF370000B005002032
:103B7000A600002053455420434F4C4F52207375EC
:103B80006363657373210A0053455420434F4C4FC0
:103B9000522054494D45204F5554210A0000000041
:103BA0009400002074696D656F7574436E742033E2
:103BB00020524553455420636F6C6F720A00000019
:103BC00067657420696D6167652074696D656F75DF
:103BD000740A0000A50000207374726F652063688A
:103BE000617220737563636573730A007374726F17
:103BF000652063686172204641494C450A00000017
:103C00004552524F5220434F4445203D25640A00FF
:103C100074696D656F7574436E742033205245531B
:103C2000544152540A00000053746F726546705537
:103C30007365722074696D656F75740A0000000009
:103C400009390000BC000020726567206D6F646553
:103C50006C20737563636573730A00007265672077
:103C60006D6F64656C204641494C450A00000000B8
:103C700053656E645265674D6F64656C4362207472
:103C8000696D656F75740A00F1390000636C72200C
:103C900073756363657373210A000000636C72209F
:103CA00054494D45204F5554210A000074696D65F3
:103CB0006F7574436E74203320524574727920649A
:103CC000656C200A00000000FB4901A809F090F98A
:103CD0000446214601A8FCF797FA0020F749642220
:103CE000034600910190F64808F073FF1AB070BDCA
:103CF0001CB50020F34908700021F3480172FFF75A
:103D000010FC0020ED49C822034600910190EC48C8
:103D100008F05FFF1CBD70B59AB004460D46EA4836
:103D2000007A01281DD10020E6490870E748007894
:103D300002218843E5490870E349887AFFF7F7F9DB
:103D4000E148807A00282DD0DF48827ADA49403174
:103D500001A809F04DF90646314601A8FCF754FACE
:103D600020E0D8480078401CD64908700846007802
:103D7000022805DB00200870FF20FFF7D8F911E0CA
:103D8000D3A101A809F034F90646314601A8FCF791
:103D90003BFA0020D4496422034600910190C848B0
:103DA00008F017FF1AB070BD1CB50021C64801729B
:103DB000CE490879FFF714FB0020CB49C8220346FF
:103DC00000910190BE4808F004FF1CBD70B59AB088
:103DD00004460D46BC48007A012843D10020B94969
:103DE0000870BA48007802218843B8490870B6487C
:103DF000807A00280BD1BEA101A809F0F9F8064687
:103E0000314601A8FCF700FAFFF7CEFF56E0AE48B6
:103E1000807A032807D0AC48807A022803D0AA48C9
:103E2000807AF9280DD1B149087900F049F8B5A197
:103E300001A809F0DDF80646314601A8FCF7E4F9CF
:103E40003CE0A149887AFFF772F99F48827A9A4943
:103E5000403101A809F0CCF80646314601A8FCF72C
:103E6000D3F92BE097480078401C96490870084623
:103E70000078022810DB002008708F49503101A81B
:103E800009F0B6F80646314601A8FCF7BDF9974996
:103E9000087900F015F811E0874901A809F0A8F8A1
:103EA0000646314601A8FCF7AFF900209A49642282
:103EB000034600910190824808F08BFE1AB070BD55
:103EC0001CB504468948047100217F480172FFF740
:103ED0007BFA00209049C82203460091019078485F
:103EE00008F077FE1CBD70B59AB004460D467648C2
:103EF000007A012824D10020724908707248807A23
:103F000002280FD185A101A809F072F806463146B2
:103F100001A8FCF779F975490979491CC8B2FFF77E
:103F2000CFFF39E085A101A809F062F806463146C5
:103F300001A8FCF769F96D49087900F02FF82BE02A
:103F400060480078401C5F490870084600780228E5
:103F500010DB002008705849503101A809F048F8DA
:103F60000646314601A8FCF74FF96049087900F090
:103F700015F811E0504901A809F03AF80646314613
:103F800001A8FCF741F9002073496422034600911F
:103F900001904B4808F01DFE1AB070BD1CB50446D8
:103FA00052480471002148480172FFF70DFA0020C1
:103FB0006949C822034600910190414808F009FE72
:103FC0001CBD10B53E4808F041FE00203D49087078
:103FD00010BD70B59AB004460D463B48007A0128E2
:103FE00023D13949887AFFF763F8384800784008C8
:103FF0004000364908703448807A002809D157A11A
:1040000001A808F0F5FF0646314601A8FCF7FCF8C8
:104010001DE02D48827A53A101A808F0E9FF064669
:10402000314601A8FCF7F0F811E054A101A808F00E
:10403000DFFF0646314601A8FCF7E6F8FF20FFF750
:1040400037F82248007840084000204908701AB02C
:1040500070BD70B59AB005460E461B48007A01281F
:1040600029D11948807A002812D114220021012078
:10407000FFF705FA00211448017200204449FF228D
:104080002D320346009101900D4808F0A2FDBDE0DD
:104090000E480078400840000C4908700620FFF7E1
:1040A00007F83CA101A808F0A3FF0446214601A897
:1040B000FCF7AAF8AAE079E0C03B0000DB3A000078
:1040C000B00500209400002028060020A600002053
:1040D00067656E20676F742061636B2074696D651E
:1040E0006F75740A00000000173D0000B200002048
:1040F00067656E2072656720667020636861720A6A
:10410000000000006E6F20696D61676520524553A5
:10411000544152540A000000CD3D000066696E67AC
:104120006572206D6F76656420737461727420729D
:10413000656769737465720A000000004465746500
:1041400063742066696E676572206D6F7665206F97
:1041500072206E6F740A0000E73E00005041535316
:10416000210A000046706D41636B4D67722E4572E7
:10417000726F72436F64653D25640A005365617216
:1041800063682074696D656F7574210A0000000012
:10419000D33F00004572726F725F47656E4368617E
:1041A00072206661696C210A00000000FE480078F8
:1041B000401CFD49087008460078022814DB0020E6
:1041C0000870FF20FEF774FFF848007840084000B0
:1041D000F6490870F64901A808F00AFF044621468E
:1041E00001A8FCF711F811E0F2A101A808F000FF06
:1041F0000446214601A8FCF707F80020F249642292
:10420000034600910190F14808F0E3FC1AB070BD3C
:104210007CB504460D46EE48007A012814D1EC48DE
:10422000807A002810D10120FFF7DAF80021E84851
:1042300001720020E449FF222D32034600910190D3
:10424000E24808F0C6FC0DE0FFF7B2F80021E048B4
:1042500001720020DF49C822034600910190DB482B
:1042600008F0B7FC7CBD1CB5FFF7A2F80021D848C8
:1042700001720020D749C822034600910190D3481B
:1042800008F0A7FC1CBDF0B599B0FFF79CFAC74831
:1042900000788006C00F002861D00120CE49087048
:1042A0000025002600274DE07F1C0021C848017230
:1042B000FFF771FA0020C5490861084608F0C6FCFE
:1042C000002428E03220FBF797FFFFF77CFAC04874
:1042D000007A012815D1BE48807A002808D1BF484D
:1042E000407B40210840002802D1BB49087014E0FF
:1042F0006D1CFF205F30854202DD0020B64908704A
:104300000BE0172C06DD761C022E03DD0020B249DF
:10431000087002E0641C192CD4DB00BFAE480078A2
:1043200000280FD102F0BBFB00BF0821AB48703062
:10433000017300BF0221084600F02EFF022001F0A9
:104340001CF800E0B0E700BF0020A5490246034684
:1043500000910190A34808F03CFC19B0F0BD9348CF
:1043600000788007C00F002802D001219848017210
:104370009748007A012811D18C480078C00900289C
:104380000DD099A1684608F033FE044621466846E0
:10439000FBF73AFF85494878FFF719FAA8E0834808
:1043A0000078C007C00F002811D08048007840086E
:1043B00040007E490870FFF756FF8EA1684608F05E
:1043C00017FE044621466846FBF71EFF90E077483B
:1043D00000788007C00F002811D0744800780221AF
:1043E000884372490870FFF7ECFD86A1684608F023
:1043F000FFFD044621466846FBF706FF78E06B4860
:1044000000784007C00F002812D0684800780421C7
:104410008843664908700120FFF752FD7DA1684678
:1044200008F0E6FD044621466846FBF7EDFE5FE036
:104430005E4800780007C00F002812D05B48007863
:104440000821884359490870C878FFF7A7FD74A16F
:10445000684608F0CDFD044621466846FBF7D4FEC9
:1044600046E0524800784006C00F002811D04F485F
:104470000078402188434D490870FFF739FC6CA152
:10448000684608F0B5FD044621466846FBF7BCFEC9
:104490002EE046480078C006C00F002812D04348DE
:1044A000007810218843414908708878FFF702FBA3
:1044B00062A1684608F09CFD044621466846FBF769
:1044C000A3FE15E0394800788006C00F00280FD001
:1044D00036480078202188433449087059A168463D
:1044E00008F086FD044621466846FBF78DFE00BFB6
:1044F000002057491022034600910190554808F0CA
:1045000068FB00BF29E77CB508F0B0FCE121090297
:104510005148006802F00FFA0121504802F0D4FA25
:10452000042203210C2000F005FA002206210D20B0
:1045300000F000FA00BF08212848017700BF64207E
:10454000FBF75AFE002122480172FFF70EF800BF68
:104550004348C07E0228FBD1FEF799FE0020414966
:1045600008701B48007A01287ED11948807A0028FB
:104570007AD10025002481E000267CE020460A3024
:1045800013495C39085CC007C00F002806D0142D01
:1045900004DA34480078401C3249087020460A305A
:1045A0000B495C39085C60E094000020A600002004
:1045B000103C000067656E20636861722074696D4D
:1045C000656F75740A00000053400000B0050020BC
:1045D0002806002011420000BA000020000004401C
:1045E0003DCD00006806002073657420636F6C6F1A
:1045F000720A00007374617274206964656E746974
:1046000066790A0073746F70206964656E746966F8
:10461000790A00007374617274207265670A000081
:10462000636F6E74696E7565207265670A000000BD
:1046300044454C20414C4C0A0000000073746F72DA
:10464000650A000073746F70207265670A000000CD
:10465000874200009805002064020020A40000208A
:1046600078050020A50000200FE0421020460A3007
:104670000A546D1C761C082E80DB641C202C00DA8A
:104680007AE74A480078FEF7D4FC00204849102217
:10469000034600910190474808F09BFA464800788D
:1046A00040084000444908700846007802218843C9
:1046B0004149087008460078042188433E49087043
:1046C00008460078082188433B490870084600786E
:1046D0001021884338490870084600782021884313
:1046E00035490870084600784021884332490870EF
:1046F00008460078802188432F4908707CBD7047A8
:1047000000202E490870704710B52D48C07E022841
:1047100041D02B48C07E002812D12A480078EF28CB
:104720000ED1284801782648827E4A3881544A3082
:10473000807E401CC1B2224881760121C1762AE0E8
:104740001F48C07E012826D11E4801781C48827E61
:104750004A3881544A30807E401CC1B21848817664
:104760006038807DEF280ED11548817E6038807FCB
:104770000930814207D11248807E092803DD0221D9
:104780000F48C17607E00E48807E632803DD0021D4
:104790000B488176C17601210A4802F095F910BDD7
:1047A00010B5094808F052FA10BD0000A50000201D
:1047B0008742000098050020A6000020BB000020D2
:1047C00078050020A4000020B005002010B59AB0A4
:1047D00009A101A808F00CFC0446214601A8FBF73A
:1047E00013FD00200A490246034600910190094842
:1047F00008F0EFF91AB010BD456E74657220536C65
:10480000656570546F756368426F6172640D0A006C
:104810003DCD00006806002070B504461B4B0C22FD
:104820009A5E08269E5F911B9A89121B12B23C2346
:104830005A43104608F094FD193005B2284670BD61
:1048400010B50020124908751248C07B124909684A
:10485000087011480068401C0F4908600D48C08965
:104860000E49096808800D480068801C0B490860E3
:104870000B480068401C0A4908600649C98908B20B
:10488000FFF7CAFF0749088010BD0000600650000E
:104890004060004000500440C0000020C4000020E0
:1048A000C8000020CC0000206022125C8A436023F4
:1048B0001A542022125C8A4320231A547047602223
:1048C000125C8A4360231A542022125C0A4320237C
:1048D0001A5470476022125C8A4360231A543022B3
:1048E000125C0A4330231A5470473022125C8A4308
:1048F00030231A5470476022125C8A4360231A5492
:104900004022125C0A4340231A5470474022125C32
:104910008A4340231A5470475022125C0A435023A2
:104920001A5470470170704701460120644AD076DE
:104930000878704770B50C4615460123A340D9B2DC
:104940002A462B0008F083FF070527435F65788C14
:10495000AA005C4B1B5C8B435A4E3354594B403B73
:104960001B5C0B43574E403E3354564B103B1B5C75
:104970008B43544E103E3354524B303B1B5C8B43A5
:10498000504E303E33544F4B203B1B5C8B434D4EBF
:10499000203E335482E04B4B1B5C8B43494E3354D7
:1049A000484B403B1E5C0E431E54464B103B1E5C66
:1049B0008E431E54434B303B1B5C0B43414E303EF9
:1049C0003354404B203B1E5C8E431E5466E03D4BEF
:1049D0001B5C8B433B4E33543A4B403B1E5C0E43B7
:1049E0001E54384B103B1B5C8B43364E103E3354E9
:1049F000344B303B1E5C8E431E54324B203B1E5CBE
:104A00008E431E544AE02F4B1B5C0B432D4E3354F8
:104A100044E02C4B1E5C8E431E542A4B403B1B5CD7
:104A20008B43284E403E3354264B103B1B5C8B433C
:104A3000244E103E335431E0224B1B5C8B43214EFD
:104A40003354204B403B1B5C8B431E4E403E335443
:104A50001C4B103B1B5C0B431A4E103E33541DE0A5
:104A6000184B1B5C8B43174E3354164B403B1E5C5C
:104A70000E431E54134B103B1B5C8B43114E103ED8
:104A80003354104B303B1E5C8E431E540D4B203B69
:104A90001B5C0B430B4E203E335400BF00BF70BD68
:104AA000084A603AD314D21811547047054A603A44
:104AB00043235B01D218115470470149887770472E
:104AC00060080440600004409E48007810210843BC
:104AD0009C49087000209C49087401219B48017082
:104AE00000209B4908700820974948740846407C7C
:104AF0000421084394494874142088741220C8740F
:104B00000846407C012108438F4948749820087565
:104B10009048807C022108438E4988740846807C36
:104B2000012108438B4988748748007C0821084389
:104B3000854908740846007C0421084382490874AA
:104B40000846007C802108437F4908740846007CA1
:104B5000402108437C49087400217C48017000BF53
:104B600004207D4988737D484078022188437B4931
:104B700048707A48203040780221884377492031B4
:104B8000487076486030407802218843734960312C
:104B9000487000BF00BF03206F4948736F484078DA
:104BA000400840006D4948706C482030407840080B
:104BB00040006A49203148706848603040784008B9
:104BC000400066496031487000BF032063492031CE
:104BD000487470475C48007C802188435A490874B7
:104BE00070475948007C01210843574908747047B1
:104BF00070B5044600200126544D2E70554DAD7CF5
:104C000040263540002D04D00026504D2E708220C5
:104C100022E04D4D2D7C022635434B4E3574002647
:104C20004A4D2E7000BF1D465E1EF3B2002DFAD114
:104C3000484D6D7C02263540002D00D18320484D23
:104C40002A80484D29600025474E3570474E357003
:104C5000FE252C403F4D2C7470BD70B504460020DD
:104C600001263A4D2E703B4DAD7C40263540002D3F
:104C700004D00026354D2E70822025E0324D2D7C4B
:104C800002263543304E35740026304D2E7000BF5D
:104C90001D465E1EF3B2002DFAD12E4D6D7C02260C
:104CA0003540002D00D18320314D2A800025314E22
:104CB0003580314D29600025304E35702B4E3570D2
:104CC00001252C43234D2C7470BD10B5244B1A8044
:104CD000244B19600023244C2370294C23701A4B59
:104CE000187510BD10B5224B1A800023214C23806B
:104CF000214B19600023214C2370214C2370124B4F
:104D0000187510BD1048407C802108430E49487436
:104D100000BF00BF00BF00BF1A480069042108435C
:104D20001849086130BF00BF70470748407C8021A8
:104D300088430549487400BF00BF00BF00BF00BFE3
:104D40007047000020040240201A044040610040E7
:104D500040600040401B04406008044000000440E4
:104D6000E0000020DC000020E2000020D000002055
:104D7000D8000020DA000020D4000020E30000204A
:104D8000D100002000ED00E00120F74908707047D5
:104D90000120F64908707047F549097C202211432B
:104DA000F34A1174704710B5F248407CC007C00F39
:104DB00000281FD0EE48007C10218843EC4908747D
:104DC000ED4800788021084000280FD0EA4800789C
:104DD00004210840002801D0FFF7DAFFE6480078F8
:104DE00002210840002801D0FFF7CEFF0120E24950
:104DF0000870C6E0E04800788021084000284CD1C7
:104E0000DC48407C10210840002842D0D848007C73
:104E10000843D74908748020D7490870D548407C9A
:104E200008210840002821D0D148007C0843D049FF
:104E30000874D248008800280FD0D1480068007854
:104E4000CC490874CE480068401CCD490860CB4866
:104E50000088401EC949088093E0FFF799FFC448C5
:104E6000007C20210843C24908748AE0C048007CC5
:104E700004210843BE4908740846007C0821884381
:104E8000BB4908740846007C20210843B8490874CF
:104E900077E08020FFF780FF73E0B648407C082170
:104EA0000840002830D0B448007804210843B249B3
:104EB0000870B048407C04210840002807D1AF4862
:104EC0000088002803D00220FFF766FF59E0AB48B6
:104ED000008800280FD0AA4800680078A549087407
:104EE000A7480068401CA6490860A4480088401EE6
:104EF000A249088045E0FFF74BFF9D48007C202138
:104F000008439B4908743CE09B4800780221084311
:104F1000994908709B4800889B49098888422ADA89
:104F20009448007C99490968087098480068401CBA
:104F30009649086093480088401C924908800846BA
:104F400000889149098888420ED18948007C08214F
:104F50000843874908740846007C20210843844997
:104F60000874FFF711FF0CE08148007C2021084302
:104F70007F49087405E07E48007C202108437C4975
:104F8000087410BD7A48007C0121084378490874F0
:104F900000BF7848407CC007C00F0028F9D001202E
:104FA0007149087070477248007C012108437049BC
:104FB000087400BF6F48407CC007C00F0028F9D0BC
:104FC00001206A4908707047704710B56948807CB5
:104FD00040210840002807D168480088002803D0F5
:104FE0000120FFF7F1FFACE069480078802108401C
:104FF000002844D15F48407C0421084000283AD072
:105000006348007880210843614908705948407C12
:105010000821084000281BD05548007C084354490B
:1050200008745648008800280FD05548006800785A
:105030005049087452480068401C514908604F4864
:105040000088401E4D4908807BE0FFF7ACFF78E008
:105050004748007C04210843454908740846007C01
:1050600008218843424908740846007C20210843EF
:105070003F49087465E00220FFF7A6FF61E03D4864
:10508000407C08210840002824D03A48407C042174
:105090000840002807D139480088002803D00220A2
:1050A000FFF792FF4DE03548008800280FD03448C4
:1050B000006800782F49087431480068401C304966
:1050C00008602E480088401E2C49088039E0FFF710
:1050D0006AFF36E02B4800882B49098888422EDA7F
:1050E0002448007C29490968087028480068401C49
:1050F0002649086023480088401C22490880084649
:10510000008821490988884212D11948007C04216D
:105110008843174908740846007C20210843144935
:1051200008740846007C082108431149087408E007
:105130000F48007C202108430D49087401E0FFF767
:1051400021FF10BD10B5002012490870FFF7EDFDDA
:105150000848407C80210840802802D1FFF735FFB5
:1051600001E0FFF720FE10BDE3000020E200002078
:10517000201A0440401B0440D1000020E000002021
:10518000DC000020DA000020D8000020D40000203D
:10519000D00000204060004008B5C207D20F002AAE
:1051A00032D000BF0C229E4B1A719E4A9278022385
:1051B0001A439C4B9A709B4A4032927802239A433E
:1051C000984B40339A7000BF0123974A1371002215
:1051D000964B1A71964A527E52085200944B5A7658
:1051E0001A46127E520852001A761A46527ECB0791
:1051F000DB0F1A438E4B5A761A46127E02230B405F
:105200005B081A438A4B1A7602220240002A34D0E5
:1052100000BF2922824B5A71824A527B40231A4393
:10522000804B5A737F4A4032527B40239A437D4BD6
:1052300040335A7300BF01237B4A137200227B4B19
:105240001A727B4A527E02239A43794B5A761A4647
:10525000127E02239A43764B1A761A46527ECB0769
:105260009B0F1A43724B5A761A46127E02230B404A
:105270005B085B001A436E4B1A7604220240002A38
:1052800034D000BF2422664B9A71664A127B0223F7
:105290001A43644B1A73634A4032127B02239A43C7
:1052A000604B40331A7300BF01235F4A137300221F
:1052B0005E4B1A735E4A527E04239A435C4B5A76C5
:1052C0001A46127E04239A43594B1A761A46527E86
:1052D000CB075B0F1A43564B5A761A46127E0223AF
:1052E0000B405B089B001A43514B1A760822024080
:1052F000002A34D000BF1322494BDA71494AD278D0
:1053000001231A43474BDA70464A4032D27852089A
:105310005200444B4033DA7000BF0123424A1374F9
:105320000022424B1A74424A527E08239A43404B51
:105330005A761A46127E08239A433D4B1A761A462D
:10534000527ECB071B0F1A43394B5A761A46127EF0
:1053500002230B405B08DB001A43354B1A76002210
:10536000009205E000BF6A461278521CD3B2009347
:105370006A461278012AF5D908BDC107C90F00296C
:1053800005D00021294A1171002227490A71022102
:105390000140002905D00021244A1172002222492F
:1053A0000A7204210140002905D000211F4A11730F
:1053B00000221D490A7308210140002905D000215F
:1053C0001A4A1174002218490A747047C107C90F9C
:1053D000002905D0012214490A710021134A1171D4
:1053E00002210140002905D001220F490A72002143
:1053F0000E4A117204210140002905D001220A49F8
:105400000A730021094A117308210140002905D0BF
:10541000012205490A740021044A117470470000F2
:10542000600804402000044000610040006000402B
:10543000205B044019480068401C18490860704708
:1054400010B5002016490871FFF7F4FF10BD15488C
:105450000068401C13490860704710B500201049CF
:105460000872FFF7F4FF10BD0F480068401C0E499A
:105470000860704710B5002009490873FFF7F4FF72
:1054800010BD0A480068401C08490860704710B504
:10549000002003490874FFF7F4FF10BDE40000206A
:1054A00000600040E8000020EC000020F000002038
:1054B00000200149087670470060004010B504469E
:1054C000E0B200F049F910BD70B504460D46E0B2F7
:1054D00000F042F90A2C02D10D2000F03DF92046DF
:1054E00070BD70B5054600F042F904460D2C05D19B
:1054F00000F032F90A2000F02FF902E0204600F017
:105500002BF9204670BD01460020C043704700289B
:1055100003D00449044A116202E00121024A1162E7
:1055200000BFFEE7AD0B00000080024010B5002870
:1055300019DBF84A03231B02D21883089B00D258B8
:105540008307DC0EFF23A3409A438B071B0E8407BF
:10555000E40EA3401A43EF4B032424021B198408D2
:10556000A4001A5118E0EC4A03071B0F083B9B08E4
:105570009B00D2588307DC0EFF23A3409A438B077E
:105580001B0E8407E40EA3401A43E34B0407240FC9
:10559000083CA408A4001A5110BDF7B584B0164603
:1055A0008020039000242BE06000DC4A115A04980C
:1055B00007F0CCFE019002251EE0691C019807F05F
:1055C000C5FE41080291D64A029951430846059901
:1055D00007F0BCFED249471A381E01DB014600E045
:1055E0004142142906DA3470757000200390039844
:1055F00007B0F0BD681CC5B2802DDEDB601CC4B2F4
:10560000102CD1DB0398F3E7F8B505460E466A4641
:1056100031462846FFF7C1FF0446002C1FD1032066
:10562000C04988800846C08800090001C880084633
:10563000C088694609780843BA49C88068464078F6
:105640004006000CB8490882684640784006000CC5
:105650004882B448408803210843B2494880204624
:10566000F8BD70B505460E46B048007804210843E1
:10567000AE4908700320AB49C8802220A9492039CF
:105680000882AB48088367204002A7490882A948DE
:10569000007C01210843A74908740720A14920394B
:1056A0004881FF2023304882A34848836720400276
:1056B0009D4948829B4800890121084399490881F6
:1056C0000846808A9D490840964988820846408954
:1056D000012108439349488100BF05209849C870BB
:1056E0009848007B08210843964908739548203064
:1056F000007B08218843934920310873914840304A
:10570000007F082188438F49403108778D486030F9
:10571000007B082188438B496031087300BF00BFBC
:1057200017208749203108728648203040790121AE
:1057300008438449203148718248603040794008EC
:10574000400080496031487100BF31462846FFF76C
:105750005BFF0446204670BD7349087400BF714961
:1057600020390988602211400029F8D1704700BF14
:105770006C4820384088202108400028F8D06A482A
:10578000807C704710B5012383431946022383436D
:105790005A10664B1B7804242343644C2370614BDE
:1057A0009B88012423435F4CA3802346DB88F0249D
:1057B000A3435C4CE3802346DB88E3800723594CFA
:1057C000203C23815A4B773B23824B035E4C23437F
:1057D00014032343DB1C534C203C238367235B02CD
:1057E000514C2382002801D0012806D14D4B1B8942
:1057F000FF240134A3434B4C2381022801D003280A
:1058000006D1484B1B89FF2401342343454C238197
:10581000444B5B8901242343424C638100BF1B231B
:10582000474C2034A372474B20339B7904242343F5
:10583000444C2034A37123469B7D04242343414CD4
:105840002034A3753F4B60339B790424A3433D4C24
:105850006034A37100BF00BF0823394C403C23765D
:10586000384BDB7801242343364CE370354B20332F
:10587000DB785B085B00334C2034E370314B403302
:10588000DB7C5B085B002F4C4034E3742D4B6033B2
:10589000DB785B085B002B4C6034E37000BF00BF1B
:1058A0001723274C20342372264B20335B790124A5
:1058B0002343244C20346371224B60335B795B08B3
:1058C0005B00204C6034637100BF00BF05231C4C9B
:1058D000203C63721B4B5B7902242343194C637198
:1058E000184B20335B790224A343164C2034637198
:1058F000144B40335B7D0224A343124C4034637548
:10590000104B60335B790224A3430E4C6034637107
:1059100000BF10BD00E100E01CED00E092DA0000E5
:10592000102700002011044000130440200402400E
:10593000978000006004044097400000FEFF0000D4
:10594000400804400000044004C0000010B500BF3F
:105950000420FA49887500BFF948408901210843AD
:10596000F74948810846408801210843F4494880A6
:105970000020F44908720A2003F0B9F90021F24826
:10598000017210BD0121F0480172ED488088084382
:10599000EB49888008464089EC490840E84948813D
:1059A0000020E849087200BF0420E4496039887586
:1059B00000BF7047F8B505460C4616460027002C78
:1059C00001D180275CE0DE482038008B0321890369
:1059D0000843DB4920390883002049054872182014
:1059E000DB490880012148074184601E81B2012003
:1059F00040078184601E81B201204007C184D549DF
:105A00008162C6620421018601214186601E81B245
:105A1000012040078186601E81B201204007C186B7
:105A2000691C8163CB49C163CB48807E0821084350
:105A3000C94988768804C9498860084640780221A7
:105A40000843C64948700120C5490880C5490880F7
:105A5000C54805603019401EC4490860FFF776FF4D
:105A6000C14800680078BB4910390874BE48006816
:105A7000401CBD490860BB480088401EB9490880E9
:105A80003846F8BD70B505460C460026002C01D1FD
:105A9000802650E0AA482038008B032189038843E0
:105AA000A749203908830846008B0121C903084310
:105AB000A349203908830020490548720420A449DD
:105AC00008800121C0064184601E81B20120400788
:105AD0008184601E81B201204007C184681C0121BD
